:020000040800F2
:10000000180A0020C10100087D320008593000089C
:1000100079320008590B000859410008000000001F
:100020000000000000000000000000003135000862
:100030005D0B000800000000813200083535000823
:10004000DB010008DB010008DB010008DB01000820
:10005000DB010008DB010008DB010008DB01000810
:10006000DB010008DB010008DB010008DB01000800
:10007000DB010008DB010008DB010008DB010008F0
:10008000DB010008DB01000849080008DB0100086B
:10009000DB010008DB010008DB010008DB010008D0
:1000A000DB010008DB010008DB010008DB010008C0
:1000B000DB010008DB010008DB010008DB010008B0
:1000C000DB010008DB010008DB010008DB010008A0
:1000D000DB010008DB010008DB010008DB01000890
:1000E000DB010008DB010008DB010008DB01000880
:1000F000DB010008DB010008DB010008DB01000870
:10010000DB010008DB010008DB010008DB0100085F
:10011000DB010008DB010008DB010008DB0100084F
:10012000DB010008DB010008DB010008DB0100083F
:10013000DB010008DB010008DB010008DB0100082F
:10014000DB010008DB010008DB010008DB0100081F
:10015000DB010008DB010008DB010008DB0100080F
:10016000DB010008DB010008DB010008DB010008FF
:10017000DB010008DB010008DB01000800000000D3
:10018000DB010008DB010008DB010008DB010008DF
:10019000DB010008DB010008DB010008DB010008CF
:1001A000DB010008DB010008DB010008DFF80CD0F0
:1001B00000F026FB0048004781410008180A002093
:1001C0000648804706480047FEE7FEE7FEE7FEE7F1
:1001D000FEE7FEE7FEE7FEE7FEE7FEE7E53500089F
:1001E000AD0100082DE9F05F0546002092469B46D0
:1001F00088460646814640241BE02846414647463D
:10020000224600F00BF953465A46C01A914110D3CA
:1002100011461846224600F0F2F82D1A67EB010845
:100220004F4622460120002100F0E9F817EB0009B3
:100230004E41201EA4F10104DFDC484631462A4627
:10024000434600F000B830BCBDE8C09FD2B201E028
:1002500000F8012B491EFBD270470022F6E710B5CB
:1002600013460A4604461946FFF7F0FF204610BD24
:100270002DE9FE4F81EA030404F0004421F000411F
:1002800000944FF0000B23F0004350EA01045ED0CD
:1002900052EA03045BD0C3F30A54C1F30A552C4459
:1002A000A4F2F3340194A0FB0254C1F3130141F40E
:1002B0008011C3F3130343F4801301FB024400FBDA
:1002C000034E840A970A44EA815447EA8357A4FB01
:1002D000076802958D0A05FB07854FEA932C04FBFE
:1002E0000C542705029D4FEA065847EA1637B5EB2E
:1002F00008056EEB070C870E920E47EA811742EA5B
:100300008312A7FB0201B6EB0B0164EB00042B0D7B
:1003100043EA0C335E1844EB1C50DA465146E7FBC7
:100320000201C5F313044FEA0B3343EA14534FEAB7
:100330000432019C43EA0603A4F10C040294009CDD
:10034000CDE900B400F0C0F803B000F003B800201D
:100350000146F9E730BCBDE8C08F0EB540F233412D
:1003600002910021CDE900110A460B4600F0ACF8DD
:1003700003B000BD00F0004230F000400AD0C10DD3
:1003800001F56071C0F3160042EA0151C20840074E
:100390001143704700200146704701F0004330B41C
:1003A00021F0004150EA010206D00A0DA2F5607268
:1003B000C1F31301002A02DC30BC00207047440F57
:1003C00044EAC104C100E01830BC00EBC25000F0A8
:1003D00035B830B50B46014600202022012409E043
:1003E00021FA02F59D4205D303FA02F5491B04FAEE
:1003F00002F52844151EA2F10102F1DC30BD202ACD
:1004000004DB203A00FA02F1002070479140C2F16B
:10041000200320FA03F3194390407047202A04DB9D
:10042000203A21FA02F00021704721FA02F3D0406D
:10043000C2F1200291400843194670470029A8BF25
:100440007047401C490008BF20F00100704710B4FD
:10045000B0FA80FC00FA0CF050EA010404BF10BCB2
:10046000704749B1CCF1200421FA04F411FA0CF1DF
:1004700018BF012121430843A3EB0C01CB1D4FEA18
:1004800000614FEA102042BF002010BC704700EB13
:10049000C35010440029A4BF10BC7047401C490041
:1004A00008BF20F0010010BC704710B5141E73F196
:1004B000000408DA401C41F1000192185B411A4324
:1004C00001D120F0010010BD2DE9F04D92469B4670
:1004D00011B1B1FA81F202E0B0FA80F22032904616
:1004E000FFF78DFF04460F4640EA0A0041EA0B0180
:1004F00053465A46084313D0114653EA010019D017
:10050000C8F140025046FFF789FF05460E465046A7
:1005100059464246FFF773FF084305D0012004E027
:1005200020463946BDE8F08D0020054346EAE076D6
:100530002C4337430A986305E40AA0EB0800002225
:10054000FD0A44EA47540A3002D500200146E9E793
:10055000010510196941DDE9084500196941BDE847
:10056000F04DA2E72DE9FE4F804681EA0300C00F5F
:100570000C46009021F0004123F00045B8EB02004A
:10058000A94105D24046214690461C460B460246EC
:1005900023F00040104347D0270DC7F30A00C3F3F0
:1005A0000A510290401A019040286BDAC3F31300FD
:1005B00040F4801B0098924620B10023D2EB030A3E
:1005C00063EB0B0B01985946C0F140025046FFF710
:1005D00016FF06460D4650465946019A00F022F98C
:1005E00010EB08006141002487EA115284EAE773A6
:1005F0001A4340D0009A62B3019A012A4FEA075287
:1006000015DC001B61EB02014FF0004202EA0752C9
:10061000CDE90042001C41F5801132462B46FFF720
:1006200053FF03B000F045B840462146F9E7001BF0
:1006300061EB0201001C41F5801300185B4120189A
:10064000A2F5001747EB030140EAD570B6196D41DA
:1006500011E06D084FEA360645EAC0754FEA0752C9
:10066000001B61EB0201001C41F5801149084FEAB3
:1006700030000019514132462B4603B000F01CB83F
:10068000FFF713BF0098012240000023D0EB0202C5
:1006900063EBE073009821464FEAE074B8EB00008A
:1006A00061EB0401E9E783F000435BE781F000417F
:1006B00058E730BCBDE8C08F30BCBDE8C04FFFF785
:1006C000DFBF2DE9F04D81EA030404F0004B21F077
:1006D000004514464FF0000A23F0004150EA05029D
:1006E00020D054EA01021DD0C5F30A570246C5F3D3
:1006F0001303C1F31300C1F30A5640F4801543F409
:100700008013A7EB0608101BD64608F2FD3873EBE2
:10071000050002D308F1010801E092185B41B8F12D
:10072000000F03DA00200146BDE8F08D00204FF4F1
:100730008011064684460EE0171B73EB050705D3B0
:10074000121B63EB050306434CEA010C49084FEA10
:10075000300092185B4150EA0107EDD152EA0300E4
:1007600012D082EA040083EA0501084305D0101B79
:10077000AB4106D20122002306E000224FF00043E5
:1007800002E06FF0010253101AEB06004CEB085127
:1007900010EB0A0041EB0B01BDE8F04DFFF785BE01
:1007A000C1F30A52C1F3130140F2FF3341F4801147
:1007B0009A4202DA00200146704740F233439A42DF
:1007C000A2F2334202DC5242FFF728BEFFF717BE07
:1007D00030B5041E71F1000404DB4FF000444042C8
:1007E00064EB0101141E73F1000405DB1C464FF09D
:1007F0000043524263EB0403994208BF904230BD6C
:10080000064C074D06E0E06840F0010394E807005D
:1008100098471034AC42F6D3FFF7CCFC5C4D00088F
:100820007C4D0008202A06DBCB17203A41FA02F063
:1008300043EAE07306E041FA02F3D040C2F120023D
:10084000914008431946704740F21C00C2F2000074
:1008500000F05CBC70B5044600688268836802F0F2
:10086000040203F00803D21800F0BA80C2689201B3
:100870006ED5627E012A6BD1227E012A68D1016881
:10088000490661D40121CAF24031026852065BD4A4
:100890000268520658D4026852065CBF02685FEADA
:1008A000426251D4026852065CBF02685FEA42624B
:1008B0004AD4026852065CBF02685FEA426243D4CF
:1008C000026852065CBF02685FEA42623CD402687A
:1008D00052065CBF02685FEA426235D40268520683
:1008E0005CBF02685FEA42622ED4026852065CBFB7
:1008F00002685FEA426227D4026852065CBF02685F
:100900005FEA426220D4026852065CBF02685FEA76
:10091000426219D4026852065CBF02685FEA426212
:1009200012D4026852065CBF02685FEA42620BD4CE
:10093000026852065CBF02685FEA426204D41B3957
:1009400044D002685206A0D540210160012105E093
:10095000022903D10221082612E000BF8268520753
:100960000AD58268920707D482684FF6C073C7F62B
:10097000FF731A401032826001294FF0040610D034
:10098000826812070AD58268920707D482684FF6F8
:10099000C073C7F6FF731A4020328260032908BF74
:1009A0000C2601F045F821688968314218D00546C7
:1009B00003E000BF8068304212D001F039F8411BDB
:1009C00020680629F6D381683142F3D0A06D40F04B
:1009D0001000A065E06D40F00100E065012070BDF1
:1009E000002070BDB0B5016804468A688868C007F9
:1009F0004FF0000031D012F0020218BFB0BD88687D
:100A000000F00D0001281FD188684FF6C072C7F6AC
:100A1000FF721040023088600320086001F008F87F
:100A200021688968C90704BF0020B0BD054602E0FF
:100A30008068C00712D000F0FBFF411B206803292B
:100A4000F6D38168C907F3D0A06D40F01000A0650F
:100A5000E06D40F00100E0650120B0BD0020B0BDB8
:100A600070B582B004460020019021688A68D207E0
:100A700011D14FF6C076C7F6FF76886806F17F027F
:100A800010420BD0A06D40F01000A065E06D40F06A
:100A90000100E065012002B070BD00BF88683040F1
:100AA00040F00100886040F20830C5F204000068A0
:100AB000000221D400F0BCFF21680A68D20717D1D8
:100AC000054602E00868C00712D18868C00704D153
:100AD0008868304040F00100886000F0A9FF401BAA
:100AE00021680328EED30868C007EBD1CAE700BF2E
:100AF000002002B070BD00BF40F20C00C2F2000046
:100B0000006842F663518009C0F23E51A0FB01012A
:100B1000880900EB40000C2101EB80000190019856
:100B20000028C7D001980138019001980028C1D051
:100B300001980138019001980028BBD00198013834
:100B4000019001980028B5D00198013801900198D2
:100B50000028E7D1AEE70000FEE700007047000084
:100B6000EFF3108072B600BFFEE70000B0B582B0B0
:100B700004460020019094F85400012802D102207C
:100B800002B0B0BD012084F8540020460D46FFF7A6
:100B900029FFA16D10B141F010014BE041F20212AA
:100BA00091430231A16521684FF6C073D1F808C0A6
:100BB000C3F6FF7303EA0C0305F0804548F2FF72A9
:100BC0002B44C0F2040203F100438B608B68B3F145
:100BD000FF3F2BDC019B01330193019B93421DD806
:100BE0008B68B3F1FF3F21DC019B01330193019B33
:100BF000934213D88B68B3F1FF3F17DC019B01339D
:100C00000193019B934209D88B68B3F1FF3F0DDC40
:100C1000019B01330193019B9342D7D9A06D40F012
:100C2000100020F00201012004E000BFA16D0122AC
:100C300062F30101A165002184F8541002B0B0BD37
:100C400070470000704700007047000070470000C8
:100C50007047000070B582B090F85420012A03D18B
:100C60000221084602B070BD002340F20832019311
:100C70000093C5F204020368A2F54274A3422FD187
:100C80004FF6006E4FF60055CFF6FF7ECFF6FF759C
:100C900052F80E40535923435B0721D4D1F800C0CA
:100CA0001368BCF1000F23F4604425D04B6890F822
:100CB000306043EA463323431360535952F80E60C1
:100CC0006FF0FF05555933432B43DB0726D11368DB
:100CD00040F61F768968B343194341EA0C011AE0D4
:100CE000816D41F0200181650121002280F85420AE
:100CF000084602B070BD00BF1460515952F80E3062
:100D00006FF0FF06965919433143C90708D111689E
:100D100040F61F73994311600021E6E70021E4E7E4
:100D20000021E2E7F0B581B00022009290F8542053
:100D3000012A03D10221084601B0F0BD0123076852
:100D400080F85430BB685B0740D44B68052B07D84C
:100D5000023B032B9ABFD9A555F8233006234B60DD
:100D6000C3F3012407EB84040D68226B03F01F0317
:100D70001F269E40B243C5F3846606FA03F31A4366
:100D80002263BA68BB6802F0040203F00803D218B9
:100D900040F0A5800A6807F114030426C2F34064FA
:100DA000D1F808E006EAD25C53F82450C2F30454A8
:100DB0000722A240BEF1004F25EA02050CD143F8FC
:100DC0000C501A6842F000430EE000BF816D41F004
:100DD0002001816501216AE10EFA04F22A4343F8F9
:100DE0000C201A6822F000437B61D1E90434FD68CD
:100DF000042B5FD13A6E3A6E0B68C2F3846293FAA9
:100E0000A3F6C3F3846C6FF3DF43B6FA86F5002BC9
:100E10002C464FF6FF7E08BF6446A242C0F2070E82
:100E20000CD13A6E22F000423A660A6802EA0E03DA
:100E3000C2F3846C92FAA2F2B2FA82F57A6E7A6EFA
:100E4000002BC2F384622C4608BF6446A2420CD138
:100E50007A6E22F000427A660A6802EA0E03C2F352
:100E6000846C92FAA2F2B2FA82F5BA6EBA6E002BD4
:100E7000C2F384622C4608BF6446A2420CD1BA6E0B
:100E800022F00042BA660A6802EA0E03C2F3846CDA
:100E900092FAA2F2B2FA82F5FA6EFA6E002BC2F35F
:100EA000846208BF6546AA4219D1FA6E22F0004258
:100EB000FA6614E0062202EA95020E6807EB830345
:100EC00004FA02F21D6E4FF20004C0F2FF3406F085
:100ED000F846254032432A4342F000421A66BA6877
:100EE000D20750D10C68CA68D7F8B06023466FF3B8
:100EF000DF4326EA030C4FF6FF7602F01805C0F236
:100F00000706EE4000252640C4F27F0546EA0C069F
:100F1000AA42C7F8B06036D193B194FAA4F2B2FAFB
:100F200082F2013202F01E03092B02F01F0310D8D7
:100F300001229A4003EB430342EA035315E000BF4A
:100F4000012202EB946202F01E030A2B02F01F033F
:100F5000EED3012200269A4003EB4303CFF620662E
:100F600006EB03531A4342F00073C3F3406607EBEA
:100F700086068A687569C3F3045307249C40A54319
:100F80009A402A43726109680022C8F2080211429D
:100F90002ED040F2083CC5F2040CDCF800300022F0
:100FA000CCF25272914203F0E07408BF13F40002D5
:100FB00020D00022CCF68432914208BF13F0807218
:100FC00056D00122C8F2000291424FF0000108BF42
:100FD00013F480026BD1ACF54272974267D1DCF812
:100FE000001021F0E071214341F480014FE000BF87
:100FF00000215CE040F2002247F40071C5F20402D7
:10100000914249D1DCF8001042F6635221F0E071C0
:10101000214341F40001CCF8001040F20C01C2F26F
:1010200000010968C0F23E528909A1FB0212910930
:1010300001EB41010C2202EB81010091009969B39F
:10104000009901390091009961B30099013900912B
:10105000009949B3009901390091009931B3009981
:1010600001390091009900294FF00001E8D11EE0FC
:1010700040F2002247F40071C5F2040291420FD100
:10108000DCF8001021F0E071214341F08071CCF8D0
:10109000001000210BE000BF002108E0002106E065
:1010A000002104E0002102E0002100E000210022F4
:1010B00080F85420084601B0F0BD00BF0C000000CD
:1010C00012000000180000000001000080B540F28E
:1010D0001C00C2F2000000F015F840F2100CC2F241
:1010E000000C9CF80120531CD9B20CEB42028CF886
:1010F00001300529508004BF0120ACF8000080BDFC
:10110000704700000068006C704700002DE9F04750
:10111000056840F20008C5F204082E68D5F804A05E
:10112000D8F808730446B0070FD51AF002000CD0A7
:10113000A06DC00603D4A06D40F40060A0652046F9
:10114000FFF77EFD256802202860700707F01F0961
:1011500002D51AF0040004D130074BD51AF008006C
:1011600048D0204650F8582FD20603D4026842F4E3
:1011700000720260EA6812F4406F35D108F580729F
:1011800095422A4608BF42461346B9F1090F08BFE7
:101190002B46B9F1050F08BF2B46B9F1000F08BF68
:1011A0002B46AA4208BF1346DA6892041CD42A6868
:1011B000120719D5AA6852070CD46A6822F00C02EB
:1011C0006A60016821F4807101600168C90407D573
:1011D0000AE000BFA06D40F01000A06504F15C00C3
:1011E000016841F0010101602046FFF76FFF2568AB
:1011F0000C202860B00602D51AF0200004D1700639
:101200002DD51AF040002AD0204650F8582FD2068B
:1012100003D4026842F40052026008F58073294644
:10122000EF6CEA689D4208BF41460B46B9F1070FD3
:1012300008BF2B46B9F1060F08BF2B46B9F1000FC6
:1012400008BF2B46A94208BF0B46DB6817F0C00F4A
:101250006AD02046FFF7F6FC25686020286030063B
:101260000CD51AF0800009D0A06D40F48030A06544
:10127000204600F09DF9256880202860F0050DD5F6
:101280001AF480700AD0A06D40F40030A0652046AA
:10129000FFF7DCFC25684FF480702860B0050DD5A1
:1012A0001AF400700AD0A06D40F48020A06520469A
:1012B000FFF7CEFC25684FF400702860F0061AD5C1
:1012C0001AF0100017D0606B38B1B9F1000F4DD093
:1012D000D8F8080310F4604F0BD0A06D40F4806084
:1012E000A065E06D40F00200E0652046FFF708FFD2
:1012F000256810202860700558BFBDE8F0871AF4F3
:1013000080600FD0A06D4FF4806140F48040A065F4
:10131000E06D40F00800E06520462960BDE8F04738
:10132000FFF792BCBDE8F087990106D502F4406151
:1013300003F4005289187FF48CAF296849067FF5C1
:1013400088AF13F400117FF484AFA968090711D4A2
:10135000696821F060016960016821F480510160D1
:101360000168C9053FF575AF0AE000BFE868C0072E
:10137000B3D1BEE7A06D40F01000A06504F15C00A1
:10138000016841F00101016063E70000B0B582B07F
:101390000446002001904CB1A06D58B121688868C6
:1013A000800012D48868C00019D54CE0012002B03A
:1013B000B0BD00BF204600F0FDF80020E06584F8D5
:1013C0005400216888688000ECD588684FF6C072A8
:1013D000C5F6FF72104088608868C00033D44FF6AD
:1013E000C0728868C5F6FF7202F18052104000F1A9
:1013F0008050886040F20C00C2F20000006842F6A3
:1014000063528009C0F23E52A0FB02029009022200
:1014100002EB400001900198A8B100BF019801388B
:101420000190019878B1019801380190019850B16C
:10143000019801380190019828B101980138019074
:1014400001980028EAD18868C00009D4A06D40F056
:101450001000A065E06D40F00100E065012000E0B3
:1014600000208A68A36D02F0040203F01003D21872
:10147000A26D40F0838022F481720232A2658A68F4
:10148000D20720D140F2083C4FF600534FF60062DD
:10149000C5F2040CCFF6FF73CFF6FF725CF803E0E1
:1014A0005CF802206FF0FF035CF8033042EA0E02A2
:1014B0001A43D20707D16268DCF8003023F47C13AA
:1014C0001A43CCF80020627E636B43EA4232D4E9CF
:1014D00002C31A4394F8203042EA0C02012B42EA7C
:1014E000034207D1D4F824C00023CFF6FE7303EBE8
:1014F0004C431A43A36A33B1D4F82CC003F470737D
:1015000043EA0C031A43D1F80CC04CF20703CFF6A0
:10151000F07303EA0C031A43CA608A688B6802F00E
:10152000040203F00803D21831D1D4F84CC0237E52
:1015300094F830204CEA833394F838E043EA420CC4
:10154000CB6844F2060223EA020242EA0C02CA60B5
:101550000A69BEF1010F17D140F2FD7322EA030CB4
:10156000D4E90F32D4E911E543EA0C031A4342EA05
:101570000E022A4342F0010208E000BF42F01001CF
:101580000120A16502B0B0BD22F001020A6122690A
:101590000B6B012A23F00F0202D1E369013B1A43CE
:1015A0000A63A16D012262F30101A16502B0B0BD21
:1015B0007047000080B586B000680022C5F20402C2
:1015C000002190420591049102D006B080BD00BF79
:1015D00041F24C00C4F20200026842F40052026080
:1015E000026802F400520092009A026842F004027B
:1015F0000260006800F00400009000980C20019048
:101600000320CDE9020140F60000C4F6000001A964
:1016100000F02AF912200021002200F081FA1220A5
:1016200000F06AFA06B080BD70B50025C5F2040569
:101630000446D5F8086300688068400703D494F82E
:101640005400012802D1022070BD00BF012084F89F
:1016500054002046FFF704FA20B1002184F854100A
:1016600070BD00BF2068A26D40F601739A4305F576
:101670008073984218BF05462B1AB3FA83F306F01D
:101680001F0E02F580725FEA531CA26502D1BEF103
:10169000000F03D1A26D22F48012A265A66D002274
:1016A000F6044FF0000644BFE66D26F00606E66538
:1016B0001C26066084F85420426822F01C02426016
:1016C0006369666B4168082B1A4618BF04221143F0
:1016D00041601EB1BCF1000F07D010E0416841F03D
:1016E00010014160BCF1000F09D1BEF1090F29D8EA
:1016F000012101FA0EF140F22122114222D0C168EB
:10170000890115D5A16D012262F30D31A1654168F2
:101710006FF04002082B08BF6FF0200201EA0201BF
:10172000416041684FF0200308BF402319434160E6
:1017300081684FF6C072C7F6FF72114004318160B4
:10174000002070BDA16D41F48011A165E968890197
:101750005CBF002070BDA16D012262F30D31A16557
:101760004168082B06D121F020014160416841F019
:10177000400105E021F040014160416841F0200155
:101780004160002070BD0000B0B5044690F85400E0
:10179000012804BF0220B0BD012084F85400204677
:1017A0000321FFF757F818B1002184F85410B0BD99
:1017B0002068416821F01C01416081688268D2077D
:1017C00017D011F0020114D1816801F00D01012937
:1017D00026D181684FF6C072C7F6FF721140023100
:1017E00081600321016000F023F921688968C9073D
:1017F00008D1214651F8580F41F2011220EA0202A5
:10180000002015E0054602E08068C007F1D000F036
:101810000FF9411B20680329F6D38168C907F3D06B
:10182000A06D214640F01000A06551F85C2F01200A
:1018300042F001020A60002184F85410B0BD00009B
:10184000B0B5044600F0F4F8054640F20400C2F2D8
:1018500000000078611C18BF044400BF00F0E8F8E5
:10186000401BA042FAD3B0BD2DE9F04F82B00D6805
:10187000002D00F0CB8041F6004400F13847C4F65B
:10188000000408224FEAB726A04208BF0722072E0D
:1018900038BF4FEAB722002401274FF0000E002680
:1018A000009209E00D68013635FA06F20EF1040ED9
:1018B00004F1020400F0AA8007FA06FB15EA0B08FF
:1018C000F0D0D1F804A003220AF0030CACF101051A
:1018D000A240012D6FEA020910D88268CD6802EAA1
:1018E0000902A5402A4382604268CAF3001522EA31
:1018F0000B02B5402A43426006E000BFBCF1030F73
:1019000002D14FF0030C21E0C2688D6802EA09029F
:10191000A5402A43BCF1020FC26017D16FF0030249
:1019200002EA560202440EF01C030F25D2F820C032
:1019300005FA03FA0D692CEA0A0C05FA03F343EAE7
:101940000C031362D1F804A00AF0030C02680CFA2D
:1019500004F302EA09021A431AF4403F0260A1D0DC
:1019600041F26003C4F202031A6840F2004942F0F7
:1019700001021A601A68C4F2010902F00102019220
:10198000019A26F003024FF6084A4A44CFF6FF7A3E
:1019900052F80AC00EF00C050F23009FAB402CEA52
:1019A000030307FA05F52B4342F80A30D9F808C0BB
:1019B0004B684CEA0805DA0258BF2CEA080540F2E9
:1019C0000C4CC9F80850C4F2010CDCF800209F024E
:1019D00042EA080558BF22EA0805CCF80050D9F8B9
:1019E00004209D0342EA080758BF22EA0807C9F805
:1019F0000470D9F80020DB0342EA080758BF22EA46
:101A00000807C9F8007001274CE700BF02B000F0DA
:101A100000B830BCBDE8C08F0069084018BF012085
:101A2000704700001823002A08BF2823C1507047C0
:101A300040F21460C2F200000068704740F20400F7
:101A400040F21461C2F20000C2F2000100780A689C
:101A5000104408607047000080B5032000F08CF847
:101A6000002000F009F800281CBF012080BD00F014
:101A700029F8002080BD000070B540F20406C2F2D3
:101A800000063178E1B1044640F20C00C2F20000D9
:101A90004FF47A720068B2FBF1F1B0FBF1F001F0A3
:101AA000B1F90F2C4FF0010508D838B94FF0FF30CD
:101AB00021460022002500F033F87460284670BDEE
:101AC000012070BD82B041F25800C4F2020081686A
:101AD00041F001018160816801F0010101910199EA
:101AE000016841F080510160006800F08050009072
:101AF000009802B070470000002848BF7047C1B28C
:101B000000F01F00012202FA00F04EF20012CEF2A5
:101B1000000242EAD10121F0030108607047000091
:101B200010B54EF60C5CCEF2000CDCF80030C3F3BE
:101B3000022E8EF00704042C28BF0424BEF10303F8
:101B40004FF0FF3E0EFA04F438BF0023A143994042
:101B50000EFA03F39A43114300F00F0200F16043C1
:101B60000901043A03F564436244002848BF02F1C6
:101B70000C03197010BD00004EF60C51CEF200019E
:101B80000A684FF6FF031A4060F30A2242F08060B1
:101B900040F0FD700860704701220168C0F8002520
:101BA000002280F8F424886940F000608861486D64
:101BB00040F0805040F0030200204A65704700006A
:101BC0002DE9F04F8BB0002800F0868004460568B0
:101BD00090F8BD0428B9002084F8BC04204600F029
:101BE00095F8032084F8BD04E86BC0055CBF0020B5
:101BF0002061206802F076FA206804F11C0A0A903D
:101C0000D4E90C5004F1040E9AE8C0079EE80E587F
:101C1000CDE9085003A880E8C0030A988DE8005871
:101C2000CDF81CA001F098FF002852D120680021B7
:101C3000002502F05FFA616861B3012000230022F1
:101C400003EBC30304EB830787F83C20D3B20132D4
:101C5000A7F84430D3B2994287F83D0087F8405046
:101C6000C7E912557D65EBD800200023002200BF94
:101C700003EBC30304EB830787F87C220132D3B262
:101C8000994287F87D0287F88002C7E9A200C7F869
:101C90009402EDD8A06822680A90D4E90C5004F1AF
:101CA000140E04F1240AD4E903379EE840589AE858
:101CB0000007CDE9085002A880E8005810460A9AAB
:101CC000CDE90076CDE90589CDF81CA001F0D2FF61
:101CD00030B1022084F8BD0401200BB000F013B82D
:101CE000002084F83800012084F8BD04606A0128CF
:101CF00002D12046FFF750FF206801F0ABFF002023
:101D00000BB000F000B830BCBDE8C08F70B586B035
:101D10000068B0F1A04F01D006B070BD41F24C0593
:101D2000C4F20205286801AC40F001002860286870
:101D3000002600F00100019001984FF4E850019056
:101D400002200290032004900A2005904FF090405A
:101D500021460396FFF788FD4FF40070CDE9010698
:101D60004FF0904021460396FFF77EFD286840F42F
:101D700080502860286800F4805000900098E8683F
:101D8000C00011D4E86840F08050E860E86800F0D6
:101D900080500090009800F05BF8E86820F08050D8
:101DA000E86006B070BD00BF00F052F806B070BD2C
:101DB00047F20001C4F200010A68B0F5007F02F4A6
:101DC000C06031D1B0F5007F2CD00868012262F3E9
:101DD0004A20086040F20C00C2F200000068322283
:101DE00050434DF68362C4F21B32A0FB0202900CFA
:101DF0004A69520511D5421C0FD04A6952050CD5CB
:101E000058B14A69520508D5012806D04A695205D9
:101E100003D50228A0F10400EAD14869400544BF77
:101E20000320704700207047B0F5806FFAD0086833
:101E3000022262F34A2008600020704747F2040043
:101E4000C4F20000016841F40071016070470000B5
:101E500047F20400C4F20000016841F480610160AF
:101E60007047000047F20000C4F20000006800F470
:101E7000C060704747F20000C4F20000016841F4FE
:101E8000807101607047000041F20000C4F202005E
:101E9000016841F004010160704700002DE9F0473E
:101EA00082B00446407841F288070007C4F2020776
:101EB00030D5A06E4FEAB05103290BD8DFE801F00E
:101EC00002101C25201D002101F0DCF9064670B926
:101ED0001AE000BF01266078C0060BD51EE000BFE7
:101EE00004F12000002101F083FA064660B1607819
:101EF000C00613D4B2464EE057F87C1C41F4803142
:101F000047F87C1C01E000BFA06E396821F4400155
:101F10000843386000266078C006EBD5E06E4FEAD3
:101F2000306003280AD8B246DFE800F0021022161B
:101F3000201D002101F0A6F90DE000BF4FF0010ABD
:101F40004FF00108A07880070DD528E004F12000AB
:101F5000002101F04DFA8246BAF1000FD04612D0AE
:101F6000A07880071BD4C2462168C80768D08AE0E1
:101F700057F87C0CB24640F4803047F87C0CBAF13C
:101F8000000FD046ECD13868E16E20F04070084375
:101F90004FF0000A3860B046A0788007E3D557F8C4
:101FA000300C10F080590BD157F8300C40F08050B5
:101FB00047F8300C57F8300C00F080500190019831
:101FC00047F20005C4F20005286840F480702860DC
:101FD000FFF72EFD064600BF2868C00508D4FFF7AE
:101FE00027FD801B0228F7D94FF0030A22E000BF2B
:101FF000BAF1000F1ED1B86810F4407012D0D4F8B6
:10200000881088420BD0B868B96820F4407041F459
:102010008031B960B96821F48031B960B860C00717
:1020200040F02681B868D4F8881020F44070084346
:10203000C246B860B9F1000F1CD02168C80722D190
:10204000880728D448072ED4080734D4C8063AD4C1
:10205000880640D4880546D448054CD4480652D456
:10206000080658D4C8055ED4C80264D488046AD46B
:102070007BE000BF57F8300C20F0805047F8300C60
:102080002168C807DCD03868A26B20F00300104339
:1020900038608807D6D53868E26B20F00C00104312
:1020A00038604807D0D53868226C20F030001043E3
:1020B00038600807CAD53868626C20F0C000104349
:1020C0003860C806C4D53868A26C20F4407010434C
:1020D00038608806BED53868E26C20F44060104352
:1020E00038608805B8D53868226E20F44020104347
:1020F00038604805B2D53868626E20F4401010434D
:1021000038604806ACD53868226D20F44050104342
:1021100038600806A6D53868626D20F44040104348
:102120003860C805A0D53868A26D20F4403010434F
:102130003860C8029AD57869E26D20F00300104338
:102140007861880411D53A68206F22F0406202431A
:10215000B0F1806F3A601DD0B0F1006F05D157F833
:102160007C0C40F4801047F87C0C080326D53A68B4
:10217000606F22F040620243B0F1806F3A6015D088
:10218000B0F1006F1AD157F87C0C40F4801047F87A
:102190007C0C13E0201D012101F074F82168002857
:1021A00018BF82460803E2D408E000BF201D0121C9
:1021B00001F068F82168002818BF8246480311D54D
:1021C0003A68A06F22F040620243B0F1806F3A603B
:1021D0001CD0B0F1006F05D157F87C0C40F4801092
:1021E00047F87C0C480425D53968E06F21F0405150
:1021F0000143B0F1005F396014D0B0F1805F19D1B4
:10220000201D022101F03EF811E000BF201D012138
:1022100001F038F82168002818BF82464804E3D44A
:1022200008E000BF04F12000022101F0E1F80028DD
:1022300018BF82462068010406D4C0030DD450465E
:1022400002B0BDE8F08700BF3968D4F8802021F0E3
:10225000804111433960C003F1D53868D4F8841047
:1022600020F0004008433860504602B0BDE8F087D7
:10227000FFF7DEFB064641F288354FF0030A00BF48
:10228000B86880073FF5CEAEFFF7D2FB801BA842AF
:10229000F6D9CFE62DE9F04381B000286BD042F2A9
:1022A0000008C4F202080446D8F800000D4600F009
:1022B000070088420CD2D8F8000020F0070028431D
:1022C000C8F80000D8F8000000F00700A84252D17A
:1022D000206841F2080910F00201C4F202090DD091
:1022E000A268D9F8003003F0F0039A4206D9D9F871
:1022F000003023F0F0031A43C9F80020C2072DD1A3
:1023000069B1A168D9F8002002F0F002914206D22A
:10231000D9F8002022F0F0021143C9F80010D8F8D3
:10232000001001F00701A9420CD9D8F8001021F0E3
:1023300007012943C8F80010D8F8001001F0070180
:10234000A94218D141071BD4000723D4D9F80000B3
:10235000D9F8041010F00C002CD131E0606800288E
:102360005ED0022800F07E80032840F0818059F87A
:10237000081C890158D4012001B0BDE8F08300BFDA
:10238000D9F80010E26821F4E0611143C9F80010A7
:102390000007DBD5D9F80000216920F4605040EA3D
:1023A000C100C9F80000D9F80000D9F8041010F0F5
:1023B0000C0005D00C2829D101F00301012925D1F9
:1023C00059F8081C090703D4D9F88C10090A02E04F
:1023D00059F8081C090944F61C5201F00F01C0F617
:1023E000000252F8211000280A4618BF00220C28CB
:1023F00071D1D9F8040000F00300022846D0032868
:1024000004BF41F20021C0F27A0143E0042857D012
:1024100008285BD141F20022C0F27A025BE000BFE3
:1024200059F8081C8907A6D5D9F8001021F0030136
:102430000843C9F80000FFF7FBFA064641F2883767
:10244000D9F80000616800F00C00B0EB810F15D0E6
:10245000FFF7EEFA801BB842F2D9032001B0BDE8C5
:10246000F08300BF59F8081C89037FF584AFDBE7D0
:1024700059F8081C49057FF57EAFD5E7206800F0C4
:10248000020100297FF43DAF49E700BF42F200415D
:10249000C0F2F401D9F80400D9F80420C0F3021006
:1024A000C2F306225143D9F804200130B1FBF0F009
:1024B000C2F34161022202EB4101B0FBF1F20AE0FA
:1024C00042F20042C0F2F40205E000BF0022002107
:1024D0000C283FF48EAFD9F8000044F60451C0F345
:1024E0000310C0F60001085C00F01F0022FA00F1A2
:1024F00040F20800C2F2000040F20C020068C2F292
:102500000002116001B0BDE8F043FFF7B5BA00006A
:1025100040F20C0041F20801C2F20000C4F20201D4
:102520000068096844F61452C1F30221C0F60002A3
:10253000515C01F01F01C8407047000040F20C00E0
:1025400041F20801C2F20000C4F202010068096809
:1025500044F61452C1F3C221C0F60002515C01F0EE
:102560001F01C8407047000041F20C01C4F2020193
:1025700051F8040C10F00C02086805D00C2A29D17F
:1025800000F00300012825D151F80C0C000703D4FA
:10259000D1F88800000A02E051F80C0C000944F65A
:1025A0001C5300F00F00C0F6000353F82030002A3F
:1025B000184618BF00200C2A18BF7047086800F0A2
:1025C0000300022810D0032804BF41F20023C0F208
:1025D0007A030DE0042A1FD0082A23D141F20020FB
:1025E000C0F27A00704700BF42F20043C0F2F40329
:1025F00008680A68C0F30210C2F3062209680130B5
:102600005A43B2FBF0F0C1F34161022202EB4101F7
:10261000B0FBF1F0704700BF42F20040C0F2F4009E
:10262000704700BF00200023C5E700002DE9F043FC
:1026300083B0002800F03C8341F200060446C4F257
:102640000206B068F168227800F00C09D00601F0AB
:1026500003081DD42078C00700F08180B9F1080F6D
:1026600076D0B9F10C0F08BFB8F1030F70D06068D5
:10267000B0F5803F07D0B0F5A02F40F04F82306812
:1026800040F480203060306840F48030306050E2A8
:10269000B9F1000F1ED0B9F10C0F08BFB8F1010F4E
:1026A00018D0A1693068002900F0968140F001003F
:1026B0003060FFF7BDF905463068800700F19E8164
:1026C000FFF7B6F9401B02284FF00300F4D903B01E
:1026D000BDE8F0833068800703D5A069002800F0CA
:1026E000E782256A3068000700F13E81D6F8940041
:1026F000000900F0F000854200F23C813068B9F139
:10270000000F40F008003060306820F0F00040EA30
:10271000050030607068E16920F47F4040EA0120E4
:10272000706040F0B382B06DC00000F14F82B06DB8
:1027300040F08050B065B06D00F08050029002987B
:10274000FFF790FBB16D21F08051B16540E200BF11
:102750003068800303D56068002800F0A9822078E3
:1027600080072DD5B9F1040F1CD0B9F10C0F08BFAB
:10277000B8F1020F16D0E1683068002900F0E88156
:1027800040F480703060FFF753F90546306840052B
:102790000FD4FFF74DF9401B02284FF00300F5D985
:1027A00095E700BF3068400503D5E068002800F0D9
:1027B0007F827068216920F0FE4040EA016070600D
:1027C0002078000760D42078400775D420788006F0
:1027D00000F1AE80A06A002800F01083022840F0CB
:1027E0001F81F068E16A00F003028A4240F0308104
:1027F000226B6FF00F0300F0700103EB02129142A5
:1028000040F02681616B00F4FE42B2EB012F40F0F4
:102810001F81A16B00F07842B2EBC16F40F01881CC
:10282000E26B0023CFF6E07303EA025200F4C0012A
:10283000A2F50012914240F00B81216C4FF07E42D4
:1028400002EA016100F0C06001F17E41884240F07F
:10285000FF803068800100F1D182306840F08070E4
:102860003060F06840F08070F060FFF7E1F80446F7
:102870003068800100F1C282FFF7DAF8001B0228FD
:102880004FF00300F4D922E76169D6F894000029DB
:1028900000F08C8040F00100C6F89400FFF7C8F803
:1028A000054600BFD6F8940080078CD4FFF7C0F827
:1028B000401B0228F6D92DE1B06D10F0805808D1E8
:1028C000B06D40F08050B065B06D00F08050009069
:1028D000009847F20007C4F200073868C00513D417
:1028E000386840F480703860FFF7A2F8054600BFF2
:1028F0003868C00508D4FFF79BF8401B02284FF04A
:102900000300F5D9E3E600BFA068012808D0052838
:1029100040F0E280D6F8900040F00400C6F8900045
:10292000D6F8900040F00100C6F89000E3E000BF48
:10293000616AD6F89800002900F0B88040F00100E4
:10294000C6F89800FFF774F8054600BFD6F898005F
:1029500080073FF53FAFFFF76BF8401B02284FF0B1
:102960000300F3D9B3E600BF306800F0F000854201
:102970007FF6C4AEB06DC00000F18A80B06D40F04B
:102980008050B065B06D00F0805001900198FFF765
:1029900069FAB16D21F08051B165B0F5007F00F0AA
:1029A0007D80802D40F2E6800320EEE020F00100E3
:1029B000C6F89400FFF73CF8054600BFD6F894002F
:1029C00080077FF500AFFFF733F8401B02284FF078
:1029D0000300F3D97BE600BF20F001003060FFF771
:1029E00027F80546306880077FF534AEFFF720F8FA
:1029F000401B02284FF00300F4D968E6306840F02D
:102A0000080030603068D4E9072120F0F000084366
:102A10003060706820F47F4040EA0220706019E660
:102A2000B9F10C0F00F04481306820F08070306004
:102A3000FEF7FEFF044600BF3068800140F1F280DF
:102A4000FEF7F6FF001B02284FF00300F4D93EE624
:102A5000B9F10C0F00F02C81306840015CBF306888
:102A60005FEAC00000F12481306820F0807030609F
:102A7000FEF7DEFF05463068800140F18181FEF7F8
:102A8000D7FF401B02284FF00300F4D91FE600BF18
:102A9000FFF7E8F9B0F5007F7FF483AF812D73D3A2
:102AA0000120A02D88BF02206FE000BF20F00100B0
:102AB000C6F89800FEF7BCFF054600BFD6F89800A0
:102AC00080077FF587AEFEF7B3FF401B02284FF06B
:102AD0000300F3D9FBE500BFD6F89010002821F0E1
:102AE0000101C6F89010D6F8901021F00401C6F844
:102AF000901000F07B80FEF79BFF054641F288377F
:102B0000D6F89000800700F18380FEF791FF401B0C
:102B1000B842F5D9032003B0BDE8F083316800283E
:102B200021F480313160316821F48021316000F07E
:102B30008580FEF77DFF0546306880033FF50FAEC8
:102B4000FEF776FF401B64284FF00300F4D9BEE582
:102B500020F480703060FEF76BFF0546306840055A
:102B60007FF52EAEFEF764FF401B02284FF00300F6
:102B7000F4D9ACE5A5F17000B0FA80F04009802DE1
:102B800008BF022001E000BF002042F20001C4F2B1
:102B900002010A6822F0070202440A60096801F093
:102BA0000701814240F08480306840F008003060C6
:102BB0003068D4E9072120F0F000084330607068E5
:102BC00020F47F4040EA022070605FE0FFF74AF99E
:102BD000B0F5007F06D1812D40D30120A02D88BF04
:102BE000022045E0802D3BD9032041E0FEF720FF85
:102BF000054641F28837D6F89000800708D5FEF7E1
:102C000017FF401BB8424FF00300F4D95FE500BF47
:102C1000B8F1000F7FF4DAADB06D20F08050B065F0
:102C2000D4E500BFF0684FF6FC71CFF6EE610840C6
:102C3000F060002003B0BDE8F08300BFFEF7F8FEAF
:102C40000546306880037FF58AADFEF7F1FE401B34
:102C500064284FF00300F4D939E500BF002007E0F5
:102C6000A5F17000B0FA80F04009802D08BF022065
:102C700042F20001C4F202010A6822F00702024493
:102C80000A60096801F00701814211D1B068F1685A
:102C900010F00C0005D00C282AD101F00301012905
:102CA00026D13168090707D4D6F89410090A05E03F
:102CB000012003B0BDE8F0833168090944F61C52D5
:102CC00001F00F01C0F6000252F8211000280A4658
:102CD00018BF00220C2837D1F06800F0030002284A
:102CE00010D0032804BF41F20021C0F27A010DE0A8
:102CF00004281FD0082823D141F20022C0F27A0212
:102D000022E000BF42F20041C0F2F401F068F26834
:102D1000C0F30210C2F306225143F2680130B1FB46
:102D2000F0F0C2F34161022202EB4101B0FBF1F28B
:102D30000AE000BF42F20042C0F2F40204E000BF29
:102D4000002200210C28C7D0B06844F60451C0F31B
:102D50000310C0F60001085C00F01F0022FA00F129
:102D600040F20800C2F2000040F20C020068C2F219
:102D700000021160FEF780FE00287FF4A8AC69E431
:102D8000F06848F28C01C0F29D1104F12C0700EAB2
:102D9000010C8ECF6FF00F00D4E90F5400EB02103E
:102DA0000022CFF6E07241EA0C0102EA0552084324
:102DB000A2F500124FF07E4540EA032005EA0465C3
:102DC000104305F17E4540EAC7602843F060306853
:102DD00040F080703060F06840F08070F060FEF786
:102DE00027FE04463068800108D4FEF721FE001B50
:102DF00002284FF00300F5D969E400BF002003B0BA
:102E0000BDE8F083411E0020B0EB116F1CBF012014
:102E100070474EF21002CEF2000251604EF623517E
:102E2000CEF20001F0230B70072190601160704713
:102E3000B0B582B0A0B10446806F28B9002084F8F4
:102E40007400204600F056F82420A067206801682E
:102E500021F001010160204600F042FC012803D16D
:102E6000012002B0B0BD00BF606A10B1204600F082
:102E7000C3FB2068416821F490414160816821F0E2
:102E80002A018160016841F0010101600020C4F85D
:102E90008000FEF7CDFD216805460A6812070CD5B3
:102EA0006FF07E4C20464FF4001100222B46CDF8E7
:102EB00000C000F049FD78B92168086840070FD5C7
:102EC0006FF07E4C20464FF4800100222B46CDF857
:102ED00000C000F039FD18B1032002B0B0BD00BF42
:102EE0002020A067E0670020206684F8740002B00C
:102EF000B0BD000010B5A8B0044668460430882173
:102F0000FDF7ABF9206848F20001C4F200018842E5
:102F100002D028B010BD00BF202000906846FEF708
:102F2000BDFF002818BFFDF71BFE41F24C00C4F2A4
:102F30000200016941F001010161016901F0010133
:102F400023912399016841F040010160006800F07D
:102F5000400023902398FEF771FF4FF4C070239038
:102F600002202490002025900320269008202790FE
:102F700041F60000C4F6000023A9FEF775FC28B056
:102F800010BD00002DE9F04182B00446806F20287A
:102F90000BD10D4600294FF001005AD01746002AE8
:102FA00057D094F87400012804D1022002B0BDE883
:102FB000F08100BF012084F874000020C4F8800074
:102FC00021209846A067FEF733FDA4F85070A4F8BE
:102FD0005270A1680746B1F5805F01D1206918B130
:102FE0002E46002501E000BF0026002084F8740072
:102FF0000BE000BF35F8021B00266FF35F2101854F
:10300000B4F852000138A4F85200B4F8520078B174
:103010002046802100223B46CDF8008000F094FC41
:1030200078B92068002EE5D016F8011BE7E700BF4D
:103030002046402100223B46CDF8008000F084FC71
:1030400020B1032002B0BDE8F08100BF2020A067BE
:10305000002002B0BDE8F081FEE7000010B58AB0A4
:1030600040F21C0000210024C2F20000C5F204015D
:103070000422C0E900140121CDE90844CDE905444A
:10308000CDE90344CDE90144C0E90244C0E904426A
:103090000483C16180F82040C0E90A4480F83040D0
:1030A000446380F83840FEF771F9002818BFFDF737
:1030B00057FD40F21C00C2F2000007A90794FDF77B
:1030C000C9FD002818BFFDF74BFD0820C0F6904051
:1030D000002101900620C4F27F010290002004919B
:1030E00004210390CDE9051040F21C00C2F200005B
:1030F00001A9FDF717FE002818BFFDF731FD0AB042
:1031000010BD00002DE9F04387B0002741F24C04C8
:10311000CDE90577C4F20204206840F00400206085
:10312000206800F0040001900198206840F08000C1
:103130002060206800F0800001900198206840F035
:1031400002002060206800F00200019001982068D1
:1031500040F040002060206800F04000019001989D
:10316000FEF76CFE20684FF4814140F001002060C2
:10317000206841F6000400F001000190C4F600044C
:103180000198A4F5A055284600224FF48149FEF786
:1031900049FC2046402100224FF04008FEF742FC47
:1031A0004FF4005002904FF4881002AECDE90307AF
:1031B000A4F580503146FEF757FBCDF808904FF04C
:1031C000010928463146CDE903970597FEF74CFBE8
:1031D0002020CDE90207204631460497FEF744FB44
:1031E00020463146CDE90289CDE90477FEF73CFB64
:1031F00007B0BDE8F083000080B540F2840048F2DB
:103200000001C2F20000C4F2000100234FF00C0CD8
:103210004FF4E13280E80E00C0E90333C0E905C392
:10322000C0E90833FFF704FE002808BF80BDBDE8F1
:103230008040FDF795BC000080B540F20810C2F256
:1032400000004FF0A0410622C0E900120221012235
:10325000002300F1180CC1608CE80E00C0E90932AF
:10326000C0E90B23FEF7ACFC002808BF80BDBDE819
:103270008040FDF775BC0000FEE70000FEE700009F
:1032800070470000F0B581B041F20007C4F20207B8
:10329000FA680D469107044614D0F868216800F0DA
:1032A000030088424FF0010040F09F80002900F0A9
:1032B0009C80F8686168C0F302100130884232D106
:1032C00034E000BF206803280CD0022816D0012863
:1032D00029D13968012211F0020182EA510116D187
:1032E00020E000BF3968890310D43968012211F445
:1032F000802182EA91410AD114E000BF396801229D
:1033000011F4806182EA912101D10BE00021FA6879
:1033100063686FF00F0622F0730206EB03131A4383
:103320001043F86011B1012001B0F0BD386820F001
:1033300080603860FEF77CFB064600BF38680001FD
:1033400006D5FEF775FB801B0228F7D944E000BFC5
:10335000012D0DD0F5B9386948F2FF01C0F2FF71B7
:103360000840D4E9021240EA012040EAC26022E0AB
:1033700048F2FF013869CFF6FF112269002301F1FD
:10338000B461CFF6E0730840A16803EA0252A2F5E7
:1033900000120DE0386948F2FF016269CFF6FF11B3
:1033A0004FF07E430840A16803EA026202F17E42C8
:1033B00040EA012010433861386840F0806038608E
:1033C000FEF736FB054600BF3868000108D4FEF75B
:1033D0002FFB401B0228F7D9032001B0F0BD00BF2E
:1033E000A069396908433861002001B0F0BD0000D0
:1033F000F0B581B041F20007C4F20207FA680D4649
:103400009107044614D0F868216800F00300884250
:103410004FF0010040F08980002900F08680F868B4
:103420006168C0F302100130884219D136E000BF54
:103430002068032818D002280AD0012810D1396842
:10344000012211F0020182EA510108D019E000BF07
:103450003968012211F4806182EA912111D1E9B128
:10346000012001B0F0BD00BF3968890308D4396874
:10347000012211F4802182EA9141F0D001E000BFE5
:103480000021FA6863686FF00F0622F0730206EB02
:1034900003131A431043F8600029E1D1386820F083
:1034A00080503860FEF7C4FA064600BF38688000D6
:1034B00006D5FEF7BDFA801B0228F7D92CE000BF25
:1034C0007969A0684FEA002065B148F2FF02CFF6A3
:1034D000FF12114022694FF07E4303EA026202F1BB
:1034E0007E4206E048F2FF02E368C0F2FF7211403C
:1034F000DA06084310437861386840F0805038603D
:10350000FEF796FA054600BF3868800008D4FEF73B
:103510008FFA401B0228F7D9032001B0F0BD00BF8D
:103520006069796908437861002001B0F0BD00004E
:1035300070470000FEF782BA10B596B005A80430B7
:103540002421FCF78AFE00244FF400700494CDE996
:103550000244CDE90044FEF72BFC28B1EFF31080C4
:1035600072B600BFFEE700BFFEF784FC41F2900098
:10357000C4F20200016821F01801016014206021EA
:10358000059001200D9102210790CDE90B04CDE9B2
:103590000F1011904720CDE912010620159005A8C3
:1035A0001491FFF743F828B1EFF3108072B600BF13
:1035B000FEE700BF0F2000900320019000204FF491
:1035C00080610290CDE9031068460221FEF762FE99
:1035D00020B1EFF3108072B6FEE700BFFEF754FC97
:1035E00016B010BD4EF68850CEF20000016841F4CE
:1035F000700101607047000080B5416ACA070DD1B3
:103600008A0716D44A071FD40A0728D4CA0631D419
:103610008A063AD44A0658D542E000BF0268D0F87C
:1036200028C0536823F4003343EA0C0353608A072D
:10363000E8D50268D0F82CC0536823F4803343EAFD
:103640000C0353604A07DFD50268D0F830C05368D6
:1036500023F4802343EA0C0353600A07D6D502689B
:10366000D0F834C0536823F4004343EA0C0353609A
:10367000CA06CDD50268D0F838C0936823F48053C9
:1036800043EA0C0393608A06C4D50268D0F83CC0B4
:10369000936823F4005343EA0C0393604A0614D55D
:1036A0000268D0F840C05368BCF5801F23F4801333
:1036B00043EA0C03536008D1D2F804C0D0F844E0C8
:1036C0002CF4C00343EA0E035360090658BF80BDC3
:1036D0000168806C4A6822F400221043486080BD73
:1036E000B0B5054605F108041ECC0068194341EA4F
:1036F0000403D5F81CE0046846F6F311CEF6FF711A
:103700002140194341EA0E010160416848F2000C72
:1037100021F4405111434160AA69C4F2000C604594
:103720001CBF296A0A438168102321F430611143C8
:10373000816044F6FF71C4F20001884218DC44F253
:103740000041C4F20001884228D044F60001C4F2CE
:10375000000188422AD044F60041C4F200018842A8
:1037600042D141F28801C4F2020109688B0933E0B9
:1037700045F20001C4F2000188421FD0604525D007
:1037800043F60001C4F2010188422DD141F28801C3
:10379000C4F202010B6868A222E000BF41F2880176
:1037A000C4F2020109688B0816E000BF41F28801EB
:1037B000C4F2020109680B090EE000BF41F2880162
:1037C000C4F2020109680B0A06E000BF41F2880159
:1037D000C4F2020109688B0A44F64C52C0F600029A
:1037E00003F0030152F82130604542F20040C0F27C
:1037F000F40015D0BEF5004F22D1082B4FF0010187
:1038000000F29580DFE803F0065460935893939399
:103810005E0000BFFEF77CFE002855D14FE000BFE0
:10382000082B4FF0010100F28280DFE803F00580F1
:1038300023801B8080802100FEF76AFED0B914E04F
:10384000082B4FF0010100F27280DFE803F005530E
:103850005F70577070705D00FEF75AFE002855D1FA
:103860004FE000BFFEF780FE20B900215FE000BFFF
:103870004FF400406A6802EB420188424FF00101B8
:1038800055D31303984252D8010E000210EB520098
:1038900041F100010023FCF7A5FC4FF60052A0F512
:1038A0004071C0F20F0291423BD301213FE000BFC3
:1038B000FEF744FE40B902E0FEF756FE20B90021B3
:1038C00035E000BF4FF4004069684A0802EB400051
:1038D000B0FBF1F04FF6EF72A0F11001914207D862
:1038E0004FF6F0710140C0F34200084419E000BFF8
:1038F00001211CE0FEF722FE40B902E0FEF734FE93
:1039000020B9002113E000BF4FF4004069684FF672
:10391000EF7200EB5100B0FBF1F0A0F11001914209
:1039200004D82968C860002101E000BF01210022FD
:1039300008466A66AA66B0BD0100000004000000E7
:1039400002000000080000002DE9F0410446006874
:103950001546C2690E461140891BB1FA81F1490929
:10396000A94240F0A080DDF81880B8F1000F29D0FE
:1039700018F1010140F08080C1693140891BB1FA22
:1039800081F14909A94240F08E80C1693140891B0B
:10399000B1FA81F14909A94240F08580C1693140FD
:1039A000891BB1FA81F14909A9427CD1C169314031
:1039B000891BB1FA81F14909A942DDD00020BDE897
:1039C000F08100BFFEF734F8206850E8000F21684E
:1039D00020F4D07041E80002BAB3206850E8000F2C
:1039E000216820F4D07041E8000272B3206850E8EA
:1039F000000F216820F4D07041E800022AB320684B
:103A000050E8000F216820F4D07041E80002002A3D
:103A1000DAD11AE0206850E8020F216820F0010096
:103A200041E80202DAB1206850E8020F216820F074
:103A3000010041E8020292B1206850E8020F2168BB
:103A400020F0010041E802024AB1206850E8020F6C
:103A5000216820F0010041E80202002ADAD120208A
:103A6000A06704F17C0020210160002084F874002C
:103A70000320BDE8F08100BF1F4600BFFDF7D8FF5F
:103A8000C01B4045A0D820680168490744BFC169F0
:103A90005FEA01510AD4C0693040801BB0FA80F05F
:103AA0004009A842EAD00020BDE8F0814FF400614F
:103AB000016200BF206850E8000F216820F4D07038
:103AC00041E80002BAB3206850E8000F216820F4F2
:103AD000D07041E8000272B3206850E8000F2168FE
:103AE00020F4D07041E800022AB3206850E8000FAB
:103AF000216820F4D07041E80002002ADAD11AE0EF
:103B0000206850E8020F216820F0010041E802021D
:103B1000DAB1206850E8020F216820F0010041E886
:103B2000020292B1206850E8020F216820F00100E3
:103B300041E802024AB1206850E8020F216820F0F3
:103B4000010041E80202002ADAD12020A067E067E4
:103B500004F1800087E7000081B0C3680146079A3E
:103B600040F6405043F04003C0F20300CB60002316
:103B70000093009B01330093009B83424AD80B695A
:103B8000002B1BD4009B01330093009B834243D83E
:103B90000B69002B12D4009B01330093009B8342DE
:103BA0003CD80B69002B09D4009B01330093009B88
:103BB000834235D80B69B3F1FF3FDADC0023009371
:103BC0000B6943F001030B61009B01330093009BE1
:103BD000834227D80B69DB0726D0009B0133009373
:103BE000009B834222D80B69DB0721D0009B013365
:103BF0000093009B83421DD80B69DB071CD0009B00
:103C000001330093009B834218D80B69DB07DBD19B
:103C1000002014E0032012E0032010E003200EE057
:103C200003200CE003200AE0002008E0032006E067
:103C3000002004E0032002E0002000E003208B6B62
:103C4000002A23F4803308BF03F580338B6301B06F
:103C5000704700000146D0F8000E20F00300C1F8C4
:103C6000000ED1F8040840F002020020C1F8042838
:103C7000704700002DE9F04F83B0DDF84CE00022E2
:103C8000BEF1000FC0F80421C0F80821C0F80C21D3
:103C9000C0F81021C0F81421C0F81821C0F81C2168
:103CA000C0F82021C0F82421C0F82821C0F82C2118
:103CB000C0F83021C0F83421C0F83821C0F83C21C8
:103CC00006D0826B00F5006A42F40012826313E0B2
:103CD000D0F8042800F5006A42F00202C0F8042877
:103CE000826B22F400128263026842F0400202609A
:103CF000026842F0800202600022C0F8002ED0F874
:103D00000078DDF83C90C0F80078D0F8007840F6F4
:103D10004054C0F2030447F00307C0F80078019252
:103D2000019A01320192019AA2424BD80269002AFB
:103D30001BD4019A01320192019AA24242D802692F
:103D4000002A12D4019A01320192019AA24239D872
:103D50000269002A09D4019A01320192019AA24211
:103D600030D80269B2F1FF3FDADC002201924FF451
:103D700084620261019A01320192019AA24221D821
:103D8000026992061AD5019A01320192019AA24261
:103D900018D80269920611D5019A01320192019A4E
:103DA000A2420FD80269920608D5019A0132019207
:103DB000019AA24206D802699206DBD44FF0000BAA
:103DC00002E000BF4FF0010B00220292029A013282
:103DD0000292029AA24247D80269002A1BD4029A90
:103DE00001320292029AA2423ED80269002A12D4FB
:103DF000029A01320292029AA24235D80269002A3E
:103E000009D4029A01320292029AA2422CD8026983
:103E1000B2F1FF3FDADC0022029210220261029A24
:103E200001320292029AA2421ED80269D2061DD520
:103E3000029A01320292029AA24215D80269D2066F
:103E400014D5029A01320292029AA2420CD8026957
:103E5000D2060BD5029A01320292029AA24203D8EC
:103E60000269D206DBD401E04FF0010B4FF00008ED
:103E70000029CAF81080CAF81480CAF81C8000F023
:103E80000281D0F800294FF0006707EA12124FF6BE
:103E90007F334D1EC0F80029C0F81089C0F80839DA
:103EA0007AD08A1ECDF800B0032A05F0030B05D2A4
:103EB0002027BBF1000F44D168E000BF25F00307C5
:103EC00000224FF090464FF67F3E4FF0000C00BFAF
:103ED00000EB0C04D4F82099043F06EAE973C4F817
:103EE0002039C4F83029C4F828E9D4F840390CF155
:103EF000800C06EAE373C4F84039C4F85029C4F8CA
:103F000048E9D4F8603906EAE373C4F86039C4F8C4
:103F10007029C4F868E9D4F8803906EAE373C4F874
:103F20008039C4F89029C4F888E9D1D1DDF84CE093
:103F3000DDF83C900CF120074FF67F33BBF1000F0A
:103F400024D000F51066F4594FF0904C0CEAE4745C
:103F5000F219F45100264FF67F37BBF1010F1661BD
:103F6000976013D0146ABBF1020F0CEAE474146278
:103F7000166397620AD0176C4FF0904606EAE7770F
:103F80001764002717654FF67F379764DDF800B098
:103F900000294FF0006776D0D0F8002B002D07EAFB
:103FA0001212C0F8002B4FF00002C0F8102BC0F81E
:103FB000083B68D00239032905F0030C04D2202203
:103FC000BCF1000F3AD15EE025F0030500224FF06E
:103FD00090464FF67F3700214318D3F8204B043D1D
:103FE00006EAE474C3F8204BC3F8302BC3F8287BEF
:103FF000D3F8404B01F1800106EAE474C3F8404B6A
:10400000C3F8502BC3F8487BD3F8604B06EAE4743E
:10401000C3F8604BC3F8702BC3F8687BD3F8804BB0
:1040200006EAE474C3F8804BC3F8902BC3F8887B8E
:10403000D2D101F12002BCF1000F24D000F5306391
:104040009E584FF0904707EAE67699189E50002652
:104050004FF67F32BCF1010F0E618A6013D00B6AFC
:10406000BCF1020F07EAE3730B620E638A620AD0A7
:104070000A6C4FF0904303EAE2720A6400220A6578
:104080004FF67F328A64DAF8101043F6000221F40A
:104090008071CAF810106FF08041C0F8188041613B
:1040A0008169C8F23C0241F0100181618169B9F176
:1040B000000F41EA0201816103D0816941F00801EA
:1040C0008161BEF1010F05D1816941F0804141F06C
:1040D00004018161584603B000F000B830BCBDE86F
:1040E000C08F00000146806820F0010200208A6035
:1040F00070470000B0B50446C06820F0C040E060E2
:1041000091B1012926D1E068002540F00050E0601F
:104110000120FDF795FB6069C00705F1010014D18E
:10412000312D0546F4D310E0E068002540F08040D2
:10413000E06000BF0120FDF783FB6069C00705F167
:10414000010002D0312D0546F4D33238B0FA80F0A8
:104150004009B0BD0120B0BDFEE7000080B582B0CF
:10416000019040F28400C2F2000001A901224FF642
:10417000FF73FEF707FF019802B080BD000000004A
:10418000A4B0FDF769FCFFF7D7F901AC04F12000FA
:104190006C21FCF762F84FF4C04001904FF0805062
:1041A00020904FF080601D900120CDE90200182082
:1041B00004900220CDE9050007904FF08870089028
:1041C0002046FDF76BFE28B1EFF3108072B600BFFA
:1041D000FEE700BF40F2004BC4F6000BFEF792FF73
:1041E000FEF73CFFFFF708F8FFF726F864A000F0A1
:1041F00077FD68A000F074FD40F21C0640F2100943
:104200009FED5D8B9FED699A0BF58065C2F200060C
:10421000C2F20009B1EE04AA4FF0000A4FF0000804
:104220002DE000BF1CEE100AFCF7A4F8024665A0C2
:104230000B4600F0D5F88CEE0B0A65A0BDEEC00A67
:1042400010EE101A00F0CCF84FF00008B0EE4BCA98
:10425000002089F80000584680210122FDF7E2FB8A
:104260004FF49670FDF7ECFA584680210022FDF7D6
:10427000D9FB4FF49670FDF7E3FAB0EE4CBA544612
:1042800028464FF40051FDF7C7FB0128A24604BFA2
:1042900082468046BAF1000F4FF00004F0D030465D
:1042A0007F21FCF763FC3046FDF7BEF999F800006A
:1042B0000028CBD03046FDF767FAB9F80200FCF7CA
:1042C0004CF857EC184B22463B46FBF7D1FFFCF766
:1042D00064F800EE100AB9F8040080EE09CAFCF791
:1042E0003CF822463B46FBF7C3FFFCF756F800EECE
:1042F000100A80EE090AB9F806003CEE00CAFCF785
:104300002CF822463B46FBF7B3FFFCF746F800EEDD
:10431000100A80EE090AB9F808003CEE00CAFCF762
:104320001CF822463B46FBF7A3FFFCF736F800EEED
:10433000100A80EE090AB9F80A003CEE00CAFCF740
:104340000CF822463B46FBF793FFFCF726F800EEFD
:10435000100A80EE090A5FEA08603CEE000A80EE6F
:104360000ACA3FF45FAF12A000F0BAFC4FF0000899
:104370006EE700BF00BF00BF6666666666660A40FD
:10438000526561647920746F20646574656374217B
:1043900000000000707265737320627574746F6E34
:1043A00020746F20737461727400000000F07F4508
:1043B00073797374656D2063616C69627261746591
:1043C00064000000252E32662056203D3D3E200030
:1043D00025642070617065722873290A000000004E
:1043E0000FB4054B10B503A9044A029800F0DEF89B
:1043F00010BC5DF814FB00005D41000800000020C7
:1044000002E008C8121F08C1002AFAD1704770479D
:10441000002001E001C1121F002AFBD170470000FB
:104420002DE9FF5F82B00021DDE90430020DDDF8E7
:1044300040B0034318D044F61050A2F2FF3242437A
:104440001514119801281FD0A5EB0B00401C5FEA42
:10445000000A4FF000064E4FDFF83891B046504644
:1044600015D5CAF1000413E0119801244AA30128CC
:1044700001D16FEA0B010298119AC0E90031C0E93D
:10448000024206B000F08EB8CBF10000DFE7044630
:104490000021404A491842EB0450CDE9001012E0D7
:1044A000E00707D032463B4640464946FBF7E0FE70
:1044B0008046894632463B4610461946FBF7D8FEF1
:1044C00006460F466410002CEAD1DDE90401DDE95F
:1044D0000023BAF1000F06DAFBF7CAFE42464B464C
:1044E000FBF7C6FE05E0FCF7ECF842464B46FCF74E
:1044F000E8F804460E460022284BFCF769F903D879
:104500004FF0FF30014607E00022254B20463146A0
:10451000FCF728F8FCF744F9102409E0002C0ADB2A
:104520000A220023FBF75EFE039B30321A55641EFD
:1045300050EA0102F2D1641C039AC4F1110314443D
:10454000119A012A03D0012208430DD10AE0084341
:1045500004D000204FF0110B119072E7A3EB0B0574
:104560006D1E0DE05B4504DD4FF0000205F1010515
:1045700004E003DA4FF00002A5F10105002AECD0B7
:1045800002981199C0E90231C0E9004579E70000BD
:10459000000014400000F03F300000000000F04335
:1045A0000000E03F30BCBDE8C09F00002DE9FF4F98
:1045B00095B09B468946064600250FE2252877D10F
:1045C00000242746F84A0121059400E0044316F828
:1045D000013F203B01FA03F01042F7D130782A283E
:1045E00011D06FF02F033078A0F13002092A16D8CD
:1045F000059A44F0020402EB820203EB42021044EB
:10460000761C0590EFE759F8042B0592002A03DA8F
:10461000504244F40054059044F00204761C307873
:104620002E2816D116F8010F44F004042A280DD0C4
:104630006FF02F023078A0F13003092B09D807EB77
:10464000870302EB4303C718761CF3E759F8047B92
:10465000761C30786C280FD006DC4C2817D06828E0
:104660000DD06A2814D104E0742810D07A280FD114
:104670000DE044F400140AE044F4801401E044F432
:1046800040147278824202D104F58014761C761CA4
:10469000307866280BD013DC582877D009DC002846
:1046A00075D04528F6D04628F4D047281AD19DE188
:1046B00018E0632835D0642879D0652812D195E1B7
:1046C000702873D008DC6728F1D069286FD06E2875
:1046D0000DD06F2806D1B5E073282CD0752875D081
:1046E000782874D05A46179990476D1C75E1C4F329
:1046F0000250022809D003280DD0D9F80010042850
:104700000DD00D6009F1040967E1D9F80010EA172E
:10471000C1E90052F6E7D9F800100D80F2E70D70FC
:10472000F0E719F8041B8DF8001000208DF8010047
:10473000EA46012003E059F804AB4FF0FF3061076F
:104740004FF0000102D40DE008F101018846B942A2
:104750000FDA8045F8DB1AF808100029F4D108E0D8
:1047600008F1010188468142FADB1AF80810002995
:10477000F6D105985B46A0EB080721463846179A04
:1047800000F097FA284400EB080507E04DE029E126
:104790000DE01AF8010B5A4617999047B8F1010835
:1047A000F7D25B4621463846179A13E142E00A22C7
:1047B0000092C4F302524FF0000A022A08D059F8BE
:1047C00004CB032A4FEAEC710AD00DE029E02AE07D
:1047D00009F1070121F00702F2E802C1914609E060
:1047E0000FFA8CFC4FEAEC71042A03D14FFA8CFCCF
:1047F0004FEAEC71002907DA0A460021DCF1000CCF
:1048000061EB02012D2202E0220504D52B228DF856
:104810000420012203E0E20701D02022F7E79046BE
:1048200059E00A2102E010220DE010214FF0000AA9
:1048300000910BE010224FF0000A44F00404082716
:10484000009203E008224FF0000A0092C4F30252E3
:10485000022A05D059F804CB0021032A08D009E028
:1048600009F1070121F00702F2E802C1914605E0D3
:104870001FFA8CFC042A01D10CF0FF0C4FF0000849
:10488000220728D5702806D0009B83F0100353EA36
:104890000A0305D00EE040228DF80420012208E032
:1048A0005CEA010206D030228DF804208DF8050064
:1048B00002229046009B83F0080353EA0A030AD1C0
:1048C0005CEA010201D1620705D530228DF804208F
:1048D0004FF001087F1E582804D034A003900EA882
:1048E00002900DE036A0F9E753466046009AFBF7C8
:1048F00079FC84460398825C0298401E0290027004
:104900005CEA0100F0D1029806A9081A00F1200A19
:10491000600702D524F4803400E00127574502DD0A
:10492000A7EB0A0000E0002000EB0A0100900598C8
:104930004144401A0590E00306D45B462146179A8D
:10494000059800F0B6F90544002706E001A85A468C
:10495000C05D179990476D1C7F1C4745F6DBE0034F
:104960000CD55B462146179A059800F0A2F905443C
:1049700004E030205A46179990476D1C0099481E54
:1049800000900029F5DC08E0029802995A46007868
:10499000491C0291179990476D1CBAF10001AAF1C8
:1049A000010AF1DC65E100000928010030313233F1
:1049B000343536373839616263646566000000005B
:1049C0003031323334353637383941424344454645
:1049D0000000000000F05BF90544761C30780028E8
:1049E0007FF4ECAD19B0284600F04EB9620700D450
:1049F000062709F1070222F0070CFCE80223E14632
:104A000003F000485FEA080C02D00FF2702C0DE0B2
:104A10005FEA045C02D50FF2682C07E05FEAC47C11
:104A200002D00FF2602C01E0AFF2700C4FF0FF38B3
:104A300023F00043CDF850C065280CD006DC452893
:104A400009D046281DD047283DD13DE0662818D022
:104A500067287ED138E00021112F01DB112000E012
:104A6000781CCDE9000106A90EA8FFF7D9FCDDE905
:104A70000F010E9A03910021009207F1010A04919F
:104A80004DE04FF000400097CDE9011006A90EA8B7
:104A9000FFF7C6FCDDE90F0203920E9B119900227D
:104AA000DDF80CA00093049211B9791C00EB010A07
:104AB000B7EB0A0004D4C0F1FF3007F1010A0490FB
:104AC000AAEB0700019044E0012F00DA0127002142
:104AD000112F01DD112000E03846CDE9000106A9C3
:104AE0000EA8FFF79DFCDDE90F010E9A039100214E
:104AF00004910092BA4621070CD40399514500DA7B
:104B00008A46BAF1010F05DD009AAAF10101515C54
:104B1000302908D0B84202DA10F1040F06DA012178
:104B2000CDE9011015E0AAF10101E9E7002805DC53
:104B3000049901440491AAEB000102E0411C514593
:104B400000DD8A460499401A401C01904FF0004055
:104B50000290200704D40198504501DBCDF8048071
:104B600000208DF84F0002980DF14F07B0F1004F73
:104B700025D02B200E9002984FF0020800280CDA66
:104B8000404202902D200E9007E00A210298FBF788
:104B900020FC3031029007F8011DB8F10001A8F1A6
:104BA0000108F2DC02980028EFD1791E0E980870F7
:104BB000307800F0200040F0450007F8020D12A800
:104BC000C01B00F107081498007800B1012000EB29
:104BD0000A01019801EBE07105984144401A401E1A
:104BE0000590E00306D45B462146179A059800F02D
:104BF00060F805441498007818B15A461799904700
:104C00006D1CE00324D55B462146179A059800F0F9
:104C100050F805441CE00498002807DBDDE9030197
:104C2000884203DD0098405C179901E01799302015
:104C30005A469047049805F10105401C04900198DC
:104C4000401E019004D12E205A46179990476D1CA2
:104C5000BAF10001AAF1010ADDDC05E017F8010B49
:104C60005A46179990476D1CB8F10001A8F1010848
:104C7000F4DC5B462146179A0598ABE62D00000050
:104C80002B0000002000000030BCBDE8C08F2DE9E3
:104C9000F041044600251E461746880404D405E06A
:104CA00039462020B0476D1C641EF9D52846BDE862
:104CB000F0812DE9F041044600251E469046C803C8
:104CC00001D5302700E02027880404D505E04146BF
:104CD0003846B0476D1C641EF9D52846BDE8F08102
:104CE00010B5044601E0FFF739FA14F8010B044946
:104CF0000028F8D1BDE810400A20FFF72FBA0000C5
:104D00000000002000000000000000000102030479
:104D1000060708090000000001020304A086010044
:104D2000400D0300801A060000350C0040420F00C1
:104D300080841E0000093D0000127A000024F40067
:104D400000366E010048E801006CDC020000000043
:104D5000040000000200000008000000804D000870
:104D6000000000201000000000440008904D0008E2
:104D700010000020080A0000104400080000000095
:104D800000000000010000001000000000093D00CC
:04000005080001AD41
:00000001FF
