:020000040800F2
:10000000C0260020C10100089D1F0008911D0008A6
:10001000991F00082D03000841440008000000005B
:100020000000000000000000000000001938000877
:1000300031030008000000004D3500081D3800089D
:10004000DB010008DB010008DB010008DB01000820
:10005000DB010008DB010008DB010008DB01000810
:10006000DB010008DB010008DB010008DB01000800
:10007000DB010008DB010008DB010008DB010008F0
:10008000DB010008DB010008DB010008DB010008E0
:10009000DB010008DB010008DB010008DB010008D0
:1000A000DB010008DB010008DB010008DB010008C0
:1000B000DB010008DB010008DB010008DB010008B0
:1000C000DB010008DB010008DB010008FD37000848
:1000D000DB010008DB010008DB010008DB01000890
:1000E000DB010008DB010008DB010008DB01000880
:1000F000DB010008DB010008DB010008DB01000870
:10010000DB010008DB010008DB010008DB0100085F
:10011000DB010008DB010008DB010008DB0100084F
:10012000DB010008DB010008DB010008DB0100083F
:10013000DB010008DB010008DB010008DB0100082F
:10014000DB010008DB010008DB010008DB0100081F
:10015000DB010008DB010008DB010008DB0100080F
:10016000DB010008DB010008DB010008DB010008FF
:10017000DB010008DB010008DB01000800000000D3
:10018000DB010008DB010008DB010008DB010008DF
:10019000DB010008DB010008DB010008DB010008CF
:1001A000DB010008DB010008DB010008DFF80CD0F0
:1001B00000F07EF80048004745440008C0260020B3
:1001C0000648804706480047FEE7FEE7FEE7FEE7F1
:1001D000FEE7FEE7FEE7FEE7FEE7FEE7CD380008B4
:1001E000AD0100082DE9F05F0546002092469B46D0
:1001F00088460646814640241BE02846414647463D
:10020000224600F044F853465A46C01A914110D392
:1002100011461846224600F02BF82D1A67EB01080C
:100220004F4622460120002100F022F817EB00097A
:100230004E41201EA4F10104DFDC484631462A4627
:10024000434600F000B830BCBDE8C09FD2B201E028
:1002500000F8012B491EFBD270470022F6E710B5CB
:1002600013460A4604461946FFF7F0FF204610BD24
:10027000202A04DB203A00FA02F100207047914066
:10028000C2F1200320FA03F3194390407047202A5B
:1002900004DB203A21FA02F00021704721FA02F330
:1002A000D040C2F120029140084319467047000037
:1002B000064C074D06E0E06840F0010394E80700B3
:1002C00098471034AC42F6D3FFF774FF3C5E000849
:1002D0005C5E000870B58C1810F8015B15F0070320
:1002E00001D110F8013B2A1106D110F8012B03E0CF
:1002F00010F8016B01F8016B5B1EF9D12B0705D4D7
:100300000023521E0DD401F8013BFAE710F8013B1F
:10031000CB1A921C03E013F8015B01F8015B521E3B
:10032000F9D5A142D8D3002070BD0000FEE700003F
:1003300070470000EFF3108072B600BFFEE70000C8
:1003400080B590F82510022922D10168D0F838E054
:10035000D0E910C30A68BEF1000F22F00E020A6055
:100360000A6822F001020A6003F01C014FF001024A
:1003700002FA01F1CCF804104FF0000180F82520BA
:1003800080F8241001D0F0470021084680BD00BF4E
:100390000421C163012080BDB0B5044600F0EEF831
:1003A000054640F20000C2F200000078611C18BF50
:1003B000044400BF00F0E2F8401BA042FAD3B0BDF5
:1003C0002DE9F04F82B00D68002D00F0CB8041F692
:1003D000004400F13847C4F6000408224FEAB7266B
:1003E000A04208BF0722072E38BF4FEAB7220024D9
:1003F00001274FF0000E0026009209E00D6801363B
:1004000035FA06F20EF1040E04F1020400F0AA809F
:1004100007FA06FB15EA0B08F0D0D1F804A0032276
:100420000AF0030CACF10105A240012D6FEA0209AC
:1004300010D88268CD6802EA0902A5402A4382608A
:100440004268CAF3001522EA0B02B5402A43426013
:1004500006E000BFBCF1030F02D14FF0030C21E016
:10046000C2688D6802EA0902A5402A43BCF1020F66
:10047000C26017D16FF0030202EA560202440EF086
:100480001C030F25D2F820C005FA03FA0D692CEAE7
:100490000A0C05FA03F343EA0C031362D1F804A033
:1004A0000AF0030C02680CFA04F302EA09021A4388
:1004B0001AF4403F0260A1D041F26003C4F202038B
:1004C0001A6840F2004942F001021A601A68C4F248
:1004D000010902F001020192019A26F003024FF68F
:1004E000084A4A44CFF6FF7A52F80AC00EF00C05CB
:1004F0000F23009FAB402CEA030307FA05F52B43BB
:1005000042F80A30D9F808C04B684CEA0805DA020C
:1005100058BF2CEA080540F20C4CC9F80850C4F248
:10052000010CDCF800209F0242EA080558BF22EACD
:100530000805CCF80050D9F804209D0342EA0807CA
:1005400058BF22EA0807C9F80470D9F80020DB0375
:1005500042EA080758BF22EA0807C9F800700127D5
:100560004CE700BF02B000F000B830BCBDE8C08F5F
:100570001823002A08BF2823C150704742F2BC202C
:10058000C2F200000068704740F2000042F2BC2155
:10059000C2F20000C2F2000100780A68104408604C
:1005A0007047000080B5032000F08CF8002000F0B8
:1005B00009F800281CBF012080BD00F029F80020A8
:1005C00080BD000070B540F20006C2F2000631782E
:1005D000E1B1044641F64000C2F200004FF47A72E5
:1005E0000068B2FBF1F1B0FBF1F001F011FB0F2C50
:1005F0004FF0010508D838B94FF0FF3021460022EE
:10060000002500F033F87460284670BD012070BDED
:1006100082B041F25800C4F20200816841F0010149
:100620008160816801F0010101910199016841F047
:1006300080510160006800F080500090009802B086
:1006400070470000002848BF7047C1B200F01F008B
:10065000012202FA00F04EF20012CEF2000242EA4B
:10066000D10121F0030108607047000010B54EF67B
:100670000C5CCEF2000CDCF80030C3F3022E8EF0DE
:100680000704042C28BF0424BEF103034FF0FF3EEF
:100690000EFA04F438BF0023A14399400EFA03F385
:1006A0009A43114300F00F0200F160430901043A3C
:1006B00003F564436244002848BF02F10C0319703B
:1006C00010BD00004EF60C51CEF200010A684FF644
:1006D000FF031A4060F30A2242F0806040F0FD7090
:1006E0000860704701220168C0F80025002280F8E8
:1006F000F424886940F000608861486D40F08050C3
:1007000040F0030200204A65704700002DE9F04FD9
:100710008BB0002800F086800446056890F8BD0480
:1007200028B9002084F8BC04204600F095F8032086
:1007300084F8BD04E86BC0055CBF00202061206820
:1007400003F044FE206804F11C0A0A90D4E90C501E
:1007500004F1040E9AE8C0079EE80E58CDE908504F
:1007600003A880E8C0030A988DE80058CDF81CA0C3
:1007700003F066FB002852D120680021002503F019
:100780002DFE616861B301200023002203EBC30347
:1007900004EB830787F83C20D3B20132A7F844303A
:1007A000D3B2994287F83D0087F84050C7E9125507
:1007B0007D65EBD800200023002200BF03EBC303BC
:1007C00004EB830787F87C220132D3B2994287F881
:1007D0007D0287F88002C7E9A200C7F89402EDD82D
:1007E000A06822680A90D4E90C5004F1140E04F1B8
:1007F000240AD4E903379EE840589AE80007CDE977
:10080000085002A880E8005810460A9ACDE9007600
:10081000CDE90589CDF81CA003F0A0FB30B1022082
:1008200084F8BD0401200BB000F013B8002084F858
:100830003800012084F8BD04606A012802D12046F6
:10084000FFF750FF206803F079FB00200BB000F0A9
:1008500000B830BCBDE8C08F70B5AAB0044602A88D
:1008600020306C21FFF7F9FC2068B0F1A04F01D0D7
:100870002AB070BD4FF4005002904FF080601E907F
:100880000120CDE90300182005904FF480100224C8
:10089000099002A8CDE90644089400F0C3F80028A6
:1008A00018BFFFF747FD41F24C05C4F20205286866
:1008B000002640F001002860286800F00100259023
:1008C00025984FF4E850CDE92504032028900A200C
:1008D00025AC29904FF0904021462796FFF770FDF8
:1008E0004FF40070CDE925064FF090402146279641
:1008F000FFF766FD286840F480502860286800F4FF
:10090000805001900198E868C00011D4E86840F078
:100910008050E860E86800F080500190019800F095
:100920005BF8E86820F08050E8602AB070BD00BF36
:1009300000F052F82AB070BD47F20001C4F2000185
:100940000A68B0F5007F02F4C06031D1B0F5007FD5
:100950002CD00868012262F34A20086041F640006A
:10096000C2F200000068322250434DF68362C4F2A6
:100970001B32A0FB0202900C4A69520511D5421CA1
:100980000FD04A6952050CD558B14A69520508D5AD
:10099000012806D04A69520503D50228A0F10400B7
:1009A000EAD14869400544BF0320704700207047E2
:1009B000B0F5806FFAD00868022262F34A2008601E
:1009C0000020704747F20400C4F20000016841F4BF
:1009D000007101607047000047F20400C4F200009B
:1009E000016841F4806101607047000047F2000037
:1009F000C4F20000006800F4C060704747F20000D5
:100A0000C4F20000016841F4807101607047000089
:100A100041F20000C4F20200016841F004010160EB
:100A2000704700002DE9F04782B00446407841F25B
:100A300088070007C4F2020730D5A06E4FEAB05114
:100A400003290BD8DFE801F002101C25201D00212E
:100A500002F07EFD064670B91AE000BF01266078FC
:100A6000C0060BD51EE000BF04F12000002102F0FB
:100A700025FE064660B16078C00613D4B2464EE04B
:100A800057F87C1C41F4803147F87C1C01E000BF22
:100A9000A06E396821F44001084338600026607870
:100AA000C006EBD5E06E4FEA306003280AD8B246A4
:100AB000DFE800F002102216201D002102F048FDA0
:100AC0000DE000BF4FF0010A4FF00108A078800749
:100AD0000DD528E004F12000002102F0EFFD824650
:100AE000BAF1000FD04612D0A07880071BD4C246BE
:100AF0002168C80768D08AE057F87C0CB24640F4F9
:100B0000803047F87C0CBAF1000FD046ECD1386841
:100B1000E16E20F0407008434FF0000A3860B046A4
:100B2000A0788007E3D557F8300C10F080590BD12E
:100B300057F8300C40F0805047F8300C57F8300C24
:100B400000F080500190019847F20005C4F20005C2
:100B5000286840F480702860FFF710FD064600BF4B
:100B60002868C00508D4FFF709FD801B0228F7D9C3
:100B70004FF0030A22E000BFBAF1000F1ED1B8689F
:100B800010F4407012D0D4F8881088420BD0B868A6
:100B9000B96820F4407041F48031B960B96821F43B
:100BA0008031B960B860C00740F02681B868D4F8D9
:100BB000881020F440700843C246B860B9F1000FB5
:100BC0001CD02168C80722D1880728D448072ED412
:100BD000080734D4C8063AD4880640D4880546D4D9
:100BE00048054CD4480652D4080658D4C8055ED4EB
:100BF000C80264D488046AD47BE000BF57F8300C84
:100C000020F0805047F8300C2168C807DCD03868E5
:100C1000A26B20F00300104338608807D6D53868EF
:100C2000E26B20F00C00104338604807D0D53868DC
:100C3000226C20F03000104338600807CAD53868AD
:100C4000626C20F0C00010433860C806C4D5386814
:100C5000A26C20F44070104338608806BED5386816
:100C6000E26C20F44060104338608805B8D53868DD
:100C7000226E20F44020104338604805B2D5386811
:100C8000626E20F44010104338604806ACD53868D6
:100C9000226D20F44050104338600806A6D538680D
:100CA000626D20F4404010433860C805A0D5386814
:100CB000A26D20F4403010433860C8029AD578699C
:100CC000E26D20F0030010437861880411D53A6882
:100CD000206F22F040620243B0F1806F3A601DD075
:100CE000B0F1006F05D157F87C0C40F4801047F844
:100CF0007C0C080326D53A68606F22F040620243FC
:100D0000B0F1806F3A6015D0B0F1006F1AD157F88A
:100D10007C0C40F4801047F87C0C13E0201D01216E
:100D200002F016FC2168002818BF82460803E2D4AE
:100D300008E000BF201D012102F00AFC2168002804
:100D400018BF8246480311D53A68A06F22F040626E
:100D50000243B0F1806F3A601CD0B0F1006F05D152
:100D600057F87C0C40F4801047F87C0C480425D5DB
:100D70003968E06F21F040510143B0F1005F396004
:100D800014D0B0F1805F19D1201D022102F0E0FBE8
:100D900011E000BF201D012102F0DAFB21680028CC
:100DA00018BF82464804E3D408E000BF04F12000E5
:100DB000022102F083FC002818BF8246206801044B
:100DC00006D4C0030DD4504602B0BDE8F08700BF82
:100DD0003968D4F8802021F0804111433960C00384
:100DE000F1D53868D4F8841020F00040084338600A
:100DF000504602B0BDE8F087FFF7C0FB064641F25F
:100E000088354FF0030A00BFB86880073FF5CEAEC3
:100E1000FFF7B4FB801BA842F6D9CFE62DE9F043DB
:100E200081B000286BD042F20008C4F202080446E8
:100E3000D8F800000D4600F0070088420CD2D8F820
:100E4000000020F007002843C8F80000D8F8000090
:100E500000F00700A84252D1206841F2080910F0C2
:100E60000201C4F202090DD0A268D9F8003003F0E3
:100E7000F0039A4206D9D9F8003023F0F0031A4360
:100E8000C9F80020C2072DD169B1A168D9F80020A6
:100E900002F0F002914206D2D9F8002022F0F002CE
:100EA0001143C9F80010D8F8001001F00701A94259
:100EB0000CD9D8F8001021F007012943C8F8001018
:100EC000D8F8001001F00701A94218D141071BD43E
:100ED000000723D4D9F80000D9F8041010F00C0052
:100EE0002CD131E0606800285ED0022800F07E80BE
:100EF000032840F0818059F8081C890158D401204A
:100F000001B0BDE8F08300BFD9F80010E26821F419
:100F1000E0611143C9F800100007DBD5D9F80000E3
:100F2000216920F4605040EAC100C9F80000D9F8F6
:100F30000000D9F8041010F00C0005D00C2829D1BD
:100F400001F00301012925D159F8081C090703D430
:100F5000D9F88C10090A02E059F8081C090944F272
:100F6000386201F00F01C0F6000252F8211000288B
:100F70000A4618BF00220C2871D1D9F8040000F0ED
:100F80000300022846D0032804BF41F20021C0F22A
:100F90007A0143E0042857D008285BD141F20022AF
:100FA000C0F27A025BE000BF59F8081C8907A6D599
:100FB000D9F8001021F003010843C9F80000FFF739
:100FC000DDFA064641F28837D9F80000616800F082
:100FD0000C00B0EB810F15D0FFF7D0FA801BB842A0
:100FE000F2D9032001B0BDE8F08300BF59F8081C16
:100FF00089037FF584AFDBE759F8081C49057FF5C5
:101000007EAFD5E7206800F0020100297FF43DAFF4
:1010100049E700BF42F20041C0F2F401D9F80400F0
:10102000D9F80420C0F30210C2F306225143D9F8C4
:1010300004200130B1FBF0F0C2F34161022202EB67
:101040004101B0FBF1F20AE042F20042C0F2F402C8
:1010500005E000BF002200210C283FF48EAFD9F834
:10106000000044F21E61C0F30310C0F60001085CEA
:1010700000F01F0022FA00F140F20400C2F200006A
:1010800041F640020068C2F20002116001B0BDE802
:10109000F043FFF797BA000041F6400041F2080123
:1010A000C2F20000C4F202010068096844F22E6234
:1010B000C1F30221C0F60002515C01F01F01C840DB
:1010C0007047000041F6400041F20801C2F2000002
:1010D000C4F202010068096844F22E62C1F3C22121
:1010E000C0F60002515C01F01F01C84070470000CB
:1010F00041F20C01C4F2020151F8040C10F00C0290
:10110000086805D00C2A29D100F00300012825D158
:1011100051F80C0C000703D4D1F88800000A02E053
:1011200051F80C0C000944F2386300F00F00C0F6CF
:10113000000353F82030002A184618BF00200C2A5C
:1011400018BF7047086800F00300022810D0032879
:1011500004BF41F20023C0F27A030DE0042A1FD03D
:10116000082A23D141F20020C0F27A00704700BF64
:1011700042F20043C0F2F40308680A68C0F30210A8
:10118000C2F30622096801305A43B2FBF0F0C1F302
:101190004161022202EB4101B0FBF1F0704700BF58
:1011A00042F20040C0F2F400704700BF002000236C
:1011B000C5E700002DE9F04383B0002800F03C8330
:1011C00041F200060446C4F20206B068F1682278D3
:1011D00000F00C09D00601F003081DD42078C007E8
:1011E00000F08180B9F1080F76D0B9F10C0F08BF7B
:1011F000B8F1030F70D06068B0F5803F07D0B0F54C
:10120000A02F40F04F82306840F48020306030687A
:1012100040F48030306050E2B9F1000F1ED0B9F1D7
:101220000C0F08BFB8F1010F18D0A1693068002970
:1012300000F0968140F001003060FFF79FF905460D
:101240003068800700F19E81FFF798F9401B022863
:101250004FF00300F4D903B0BDE8F0833068800795
:1012600003D5A069002800F0E782256A30680007EE
:1012700000F13E81D6F89400000900F0F0008542AC
:1012800000F23C813068B9F1000F40F00800306096
:10129000306820F0F00040EA050030607068E169D5
:1012A00020F47F4040EA0120706040F0B382B06DCE
:1012B000C00000F14F82B06D40F08050B065B06D5D
:1012C00000F0805002900298FFF790FBB16D21F082
:1012D0008051B16540E200BF3068800303D560688B
:1012E000002800F0A982207880072DD5B9F1040FDD
:1012F0001CD0B9F10C0F08BFB8F1020F16D0E1688D
:101300003068002900F0E88140F480703060FFF719
:1013100035F90546306840050FD4FFF72FF9401B1B
:1013200002284FF00300F5D995E700BF306840056B
:1013300003D5E068002800F07F827068216920F002
:10134000FE4040EA016070602078000760D4207899
:10135000400775D42078800600F1AE80A06A00288E
:1013600000F01083022840F01F81F068E16A00F06D
:1013700003028A4240F03081226B6FF00F0300F0CD
:10138000700103EB0212914240F02681616B00F480
:10139000FE42B2EB012F40F01F81A16B00F07842BA
:1013A000B2EBC16F40F01881E26B0023CFF6E0731F
:1013B00003EA025200F4C001A2F50012914240F08B
:1013C0000B81216C4FF07E4202EA016100F0C060A7
:1013D00001F17E41884240F0FF803068800100F1D9
:1013E000D182306840F080703060F06840F08070EA
:1013F000F060FFF7C3F804463068800100F1C28254
:10140000FFF7BCF8001B02284FF00300F4D922E7D5
:101410006169D6F89400002900F08C8040F001004A
:10142000C6F89400FFF7AAF8054600BFD6F8940066
:1014300080078CD4FFF7A2F8401B0228F6D92DE1D3
:10144000B06D10F0805808D1B06D40F08050B0659C
:10145000B06D00F080500090009847F20007C4F291
:1014600000073868C00513D4386840F480703860CD
:10147000FFF784F8054600BF3868C00508D4FFF7B9
:101480007DF8401B02284FF00300F5D9E3E600BFCA
:10149000A068012808D0052840F0E280D6F8900026
:1014A00040F00400C6F89000D6F8900040F001002B
:1014B000C6F89000E3E000BF616AD6F89800002902
:1014C00000F0B88040F00100C6F89800FFF756F829
:1014D000054600BFD6F8980080073FF53FAFFFF7FD
:1014E0004DF8401B02284FF00300F3D9B3E600BFCC
:1014F000306800F0F00085427FF6C4AEB06DC000E9
:1015000000F18A80B06D40F08050B065B06D00F0A1
:10151000805001900198FFF769FAB16D21F0805178
:10152000B165B0F5007F00F07D80802D40F2E6804F
:101530000320EEE020F00100C6F89400FFF71EF84B
:10154000054600BFD6F8940080077FF500AFFFF78F
:1015500015F8401B02284FF00300F3D97BE600BFCB
:1015600020F001003060FFF709F805463068800779
:101570007FF534AEFFF702F8401B02284FF003005E
:10158000F4D968E6306840F0080030603068D4E98B
:10159000072120F0F00008433060706820F47F409D
:1015A00040EA0220706019E6B9F10C0F00F04481A6
:1015B000306820F080703060FEF7E0FF044600BF26
:1015C0003068800140F1F280FEF7D8FF001B02284E
:1015D0004FF00300F4D93EE6B9F10C0F00F02C8176
:1015E000306840015CBF30685FEAC00000F12481D0
:1015F000306820F080703060FEF7C0FF054630682C
:10160000800140F18181FEF7B9FF401B02284FF0B5
:101610000300F4D91FE600BFFFF7E8F9B0F5007F3B
:101620007FF483AF812D73D30120A02D88BF0220CA
:101630006FE000BF20F00100C6F89800FEF79EFFA3
:10164000054600BFD6F8980080077FF587AEFEF705
:1016500095FF401B02284FF00300F3D9FBE500BFC4
:10166000D6F89010002821F00101C6F89010D6F8A5
:10167000901021F00401C6F8901000F07B80FEF776
:101680007DFF054641F28837D6F89000800700F1CB
:101690008380FEF773FF401BB842F5D9032003B0E7
:1016A000BDE8F0833168002821F480313160316871
:1016B00021F48021316000F08580FEF75FFF054650
:1016C000306880033FF50FAEFEF758FF401B6428DB
:1016D0004FF00300F4D9BEE520F480703060FEF7CF
:1016E0004DFF0546306840057FF52EAEFEF746FFFC
:1016F000401B02284FF00300F4D9ACE5A5F17000BF
:10170000B0FA80F04009802D08BF022001E000BF40
:10171000002042F20001C4F202010A6822F007022E
:1017200002440A60096801F00701814240F08480A8
:10173000306840F0080030603068D4E9072120F0BC
:10174000F00008433060706820F47F4040EA0220D7
:1017500070605FE0FFF74AF9B0F5007F06D1812D98
:1017600040D30120A02D88BF022045E0802D3BD929
:10177000032041E0FEF702FF054641F28837D6F824
:101780009000800708D5FEF7F9FE401BB8424FF0E5
:101790000300F4D95FE500BFB8F1000F7FF4DAADC4
:1017A000B06D20F08050B065D4E500BFF0684FF612
:1017B000FC71CFF6EE610840F060002003B0BDE898
:1017C000F08300BFFEF7DAFE0546306880037FF540
:1017D0008AADFEF7D3FE401B64284FF00300F4D916
:1017E00039E500BF002007E0A5F17000B0FA80F0F5
:1017F0004009802D08BF022042F20001C4F202011C
:101800000A6822F0070202440A60096801F0070131
:10181000814211D1B068F16810F00C0005D00C289D
:101820002AD101F00301012926D13168090707D423
:10183000D6F89410090A05E0012003B0BDE8F08352
:101840003168090944F2386201F00F01C0F6000264
:1018500052F8211000280A4618BF00220C2837D160
:10186000F06800F00300022810D0032804BF41F202
:101870000021C0F27A010DE004281FD0082823D1EE
:1018800041F20022C0F27A0222E000BF42F200419F
:10189000C0F2F401F068F268C0F30210C2F306224D
:1018A0005143F2680130B1FBF0F0C2F34161022212
:1018B00002EB4101B0FBF1F20AE000BF42F200424C
:1018C000C0F2F40204E000BF002200210C28C7D0BF
:1018D000B06844F21E61C0F30310C0F60001085C5A
:1018E00000F01F0022FA00F140F20400C2F20000F2
:1018F00041F640020068C2F200021160FEF762FE8B
:1019000000287FF4A8AC69E4F06848F28C01C0F2CA
:101910009D1104F12C0700EA010C8ECF6FF00F002F
:10192000D4E90F5400EB02100022CFF6E07241EA36
:101930000C0102EA05520843A2F500124FF07E4561
:1019400040EA032005EA0465104305F17E4540EABC
:10195000C7602843F060306840F080703060F06805
:1019600040F08070F060FEF709FE044630688001A8
:1019700008D4FEF703FE001B02284FF00300F5D940
:1019800069E400BF002003B0BDE8F08370470000A9
:10199000B0B582B0044600684168826812F0400326
:1019A00005D112F0010518BF11F0400512D19507BD
:1019B00008D511F0800505D0216D204602B0BDE8A4
:1019C000B040084712F4B07F18BF11F0200507D1CE
:1019D00002B0B0BDE16C204602B0BDE8B04008479F
:1019E000BBB194F85D30032B08D100210191C1688F
:1019F000019180680190019802B0B0BD236E43F060
:101A00000403236600230193C36801938368019351
:101A1000019B12F0200302F4807203D18AB9226E76
:101A2000DAB9D5E7236E43F001032366002301935F
:101A300083680193036823F040030360019B002A3D
:101A4000EDD0226E42F008022266002201928268E6
:101A50000192019A226E002ABAD04268890722F0C8
:101A6000E00242604FF0010284F85D2020D041681E
:101A700043F6090521F003014160A06DC0F60005A1
:101A800038B18563FEF75CFC18B1206E40F0400071
:101A90002066606D00289BD08563FEF751FC00280E
:101AA0003FF496AF206E40F04000206602B0B0BD1B
:101AB000204602B0BDE8B040FFF768BF002804BF71
:101AC00001207047B0B50446406A28B1002020616B
:101AD00004F1140006E000BF6068B0F5827F03D017
:101AE00004F11C00002101600025A56294F85D004E
:101AF00020B9204684F85C5000F04EF8022084F8AB
:101B00005D002068D4F80CE00268BEF5E06F22F0BA
:101B1000400202604EF4006298BF0125B2F5706F7A
:101B20001CBF0023A3624FEA053CD4E90135D4E988
:101B3000042103F4827305F404452B4402F00202ED
:101B40001A44A36901F00101E569114403F400722C
:101B5000114405F03802256A114405F08002A56A97
:101B6000114405F40052114301600421626A0EF42D
:101B7000706501EA1341636B45EA0C0502F010023F
:101B8000294303F008031143194341600020012158
:101B9000206684F85D10B0BD80B586B0006843F261
:101BA0000001C4F20101884202D006B080BD00BF2E
:101BB00041F24C00C4F20200416941F4805141619C
:101BC000416901F4805101910199016841F00101DD
:101BD0000160006801A900F0010001900198B020A7
:101BE0000190022002900020039003200490052021
:101BF00005904FF09040FEF7E3FB232000210022E8
:101C0000FEF734FD2320FEF71DFD06B080BD000069
:101C1000411E0020B0EB116F1CBF012070474EF237
:101C20001002CEF2000251604EF62351CEF20001B6
:101C3000F0230B700721906011607047B0B582B03F
:101C4000A0B10446806F28B9002084F874002046B3
:101C500000F056F82420A0672068016821F00101F7
:101C60000160204601F0B0FE012803D1012002B03E
:101C7000B0BD00BF606A10B1204601F031FE20689F
:101C8000416821F490414160816821F02A0181601E
:101C9000016841F0010101600020C4F88000FEF7F6
:101CA0006DFC216805460A6812070CD56FF07E4C62
:101CB00020464FF4001100222B46CDF800C001F061
:101CC000B7FF78B92168086840070FD56FF07E4CE0
:101CD00020464FF4800100222B46CDF800C001F0D1
:101CE000A7FF18B1032002B0B0BD00BF2020A0673D
:101CF000E0670020206684F8740002B0B0BD0000E8
:101D000010B5A8B00446684604308821FEF7A5FA4D
:101D1000206848F20001C4F20001884202D028B0D5
:101D200010BD00BF202000906846FEF77BFE002813
:101D300018BFFEF7FFFA41F24C00C4F2020001693D
:101D400041F001010161016901F001012391239931
:101D5000016841F040010160006800F040002390FC
:101D60002398FEF72FFE4FF4C0702390022024909A
:101D700000202590032026900820279041F600009F
:101D8000C4F6000023A9FEF71BFB28B010BD00001D
:101D9000FEE700002DE9F04F87B0002541F24C042A
:101DA000CDE90555C4F20204206840F0040020602B
:101DB000206800F0040001900198206840F0800045
:101DC0002060206800F0800001900198206840F0B9
:101DD00001002060206800F0010001900198206857
:101DE00040F002002060206800F00200019001989D
:101DF000206840F040002060206800F04000019022
:101E00000198FEF7DFFD206844F2A00140F00800D1
:101E10002060206841F6000400F008000190C4F63C
:101E200000040198A4F5A0563046002244F2A00B0D
:101E3000FEF79EFB2046402100224FF0400AFEF7AD
:101E400097FBA4F540684046042100224FF00409A6
:101E5000FEF78EFB4FF4005002904FF4881002AF53
:101E6000CDE90305A4F580503946FEF7A9FACDF86F
:101E700008B04FF0010B30463946CDE903B5059562
:101E8000FEF79EFA2020CDE902052046394604954A
:101E9000FEF796FA20463946CDE902ABCDE9045566
:101EA000FEF78EFA40463946CDE9029BCDE904554E
:101EB000FEF786FA07B000F000B830BCBDE8C08F6E
:101EC00080B541F6C84048F2000C43F22432C2F219
:101ED0000000C4F2000CC0F203024FF08053002156
:101EE0004FF00C0EC0E900C2C0E90231C0E9041E87
:101EF0008161C0E90811FFF7A1FE002808BF80BD7D
:101F0000BDE88040FEF716BA80B542F2582043F291
:101F10000001C2F20000C4F201014FF482720023FA
:101F20004FF4407C4FF4802E80E80E1007210822E9
:101F3000C0E90433C0E906E3C0E90833C0E90A3167
:101F4000C0E90C32FFF7BAFD002808BF80BDBDE82C
:101F50008040FEF7EFB9000080B541F64C50C2F268
:101F600000004FF0A0410622C0E900120221012228
:101F7000002300F1180CC1608CE80E00C0E90932A2
:101F8000C0E90B23FEF7C2FB002808BF80BDBDE8F7
:101F90008040FEF7CFB90000FEE70000FEE700003A
:101FA00041F648000021C2F200000022831881544B
:101FB00002F58072B2F5806F19721974197683F880
:101FC000201083F8281083F8301083F8381083F835
:101FD000401083F8481083F8501083F8581083F8A5
:101FE000601083F8681083F8701083F8781083F815
:101FF000801083F8881083F8901083F8981083F885
:10200000A01083F8A81083F8B01083F8B81083F8F4
:10201000C01083F8C81083F8D01083F8D81083F864
:10202000E01083F8E81083F8F01083F8F810BDD1C1
:1020300000210022831802F58072B2F5806F59707A
:1020400059725974597683F8211083F8291083F84E
:10205000311083F8391083F8411083F8491083F860
:10206000511083F8591083F8611083F8691083F8D0
:10207000711083F8791083F8811083F8891083F840
:10208000911083F8991083F8A11083F8A91083F8B0
:10209000B11083F8B91083F8C11083F8C91083F820
:1020A000D11083F8D91083F8E11083F8E91083F890
:1020B000F11083F8F910BDD100210022831802F538
:1020C0008072B2F5806F997099729974997683F8DD
:1020D000221083F82A1083F8321083F83A1083F81C
:1020E000421083F84A1083F8521083F85A1083F88C
:1020F000621083F86A1083F8721083F87A1083F8FC
:10210000821083F88A1083F8921083F89A1083F86B
:10211000A21083F8AA1083F8B21083F8BA1083F8DB
:10212000C21083F8CA1083F8D21083F8DA1083F84B
:10213000E21083F8EA1083F8F21083F8FA10BDD1A8
:1021400000210022831802F58072B2F5806FD970E9
:10215000D972D974D97683F8231083F82B1083F8B9
:10216000331083F83B1083F8431083F84B1083F847
:10217000531083F85B1083F8631083F86B1083F8B7
:10218000731083F87B1083F8831083F88B1083F827
:10219000931083F89B1083F8A31083F8AB1083F897
:1021A000B31083F8BB1083F8C31083F8CB1083F807
:1021B000D31083F8DB1083F8E31083F8EB1083F877
:1021C000F31083F8FB10BDD100210022831802F523
:1021D0008072B2F5806F197119731975197783F8C8
:1021E000241083F82C1083F8341083F83C1083F803
:1021F000441083F84C1083F8541083F85C1083F873
:10220000641083F86C1083F8741083F87C1083F8E2
:10221000841083F88C1083F8941083F89C1083F852
:10222000A41083F8AC1083F8B41083F8BC1083F8C2
:10223000C41083F8CC1083F8D41083F8DC1083F832
:10224000E41083F8EC1083F8F41083F8FC10BDD18F
:1022500000210022831802F58072B2F5806F597157
:1022600059735975597783F8251083F82D1083F821
:10227000351083F83D1083F8451083F84D1083F82E
:10228000551083F85D1083F8651083F86D1083F89E
:10229000751083F87D1083F8851083F88D1083F80E
:1022A000951083F89D1083F8A51083F8AD1083F87E
:1022B000B51083F8BD1083F8C51083F8CD1083F8EE
:1022C000D51083F8DD1083F8E51083F8ED1083F85E
:1022D000F51083F8FD10BDD100210022831802F50E
:1022E0008072B2F5806F997199739975997783F8B7
:1022F000261083F82E1083F8361083F83E1083F8EA
:10230000461083F84E1083F8561083F85E1083F859
:10231000661083F86E1083F8761083F87E1083F8C9
:10232000861083F88E1083F8961083F89E1083F839
:10233000A61083F8AE1083F8B61083F8BE1083F8A9
:10234000C61083F8CE1083F8D61083F8DE1083F819
:10235000E61083F8EE1083F8F61083F8FE10BDD176
:1023600000210022831802F58072B2F5806FD971C6
:10237000D973D975D97783F8271083F82F1083F88C
:10238000371083F83F1083F8471083F84F1083F815
:10239000571083F85F1083F8671083F86F1083F885
:1023A000771083F87F1083F8871083F88F1083F8F5
:1023B000971083F89F1083F8A71083F8AF1083F865
:1023C000B71083F8BF1083F8C71083F8CF1083F8D5
:1023D000D71083F8DF1083F8E71083F8EF1083F845
:1023E000F71083F8FF10BDD100F026BB2DE9F04FA8
:1023F00085B041F24C00C4F202000168012241F0B4
:10240000800101600168B02701F08001009100990E
:102410000168012441F001010160016801F001013E
:1024200000910099016841F004010160016801F028
:10243000040100910099016841F008010160016800
:1024400001F0080100910099016841F0020101606A
:102450000068B02100F00200009000984FF090401A
:10246000FEF786F840F60048C4F60008A8F5806636
:1024700030464FF4805101224FF48059FEF778F82E
:102480004046042101224FF0040AFEF771F8A8F536
:10249000006B5846E0210122FEF76AF8CDE900748E
:1024A0006F4602254FF09040394602940395FDF7A0
:1024B00087FF30463946CDE90094CDE90245FDF766
:1024C0007FFF40463946CDE900A4CDE90245FDF73E
:1024D00077FFE020CDE9000458463946CDE90245B2
:1024E000FDF76EFF4046042100220025FEF740F86C
:1024F000C820FDF751FF404604210122FEF738F8BD
:10250000AE20002100F068FF0020002100F064FFF1
:102510001020002100F060FF4020002100F05CFF4F
:102520008120002100F058FFCF20002100F054FF4F
:10253000A120002100F050FFC820002100F04CFF36
:10254000A620002100F048FFA820002100F044FF51
:102550003F20002100F040FFD320002100F03CFF8D
:102560000020002100F038FFD520002100F034FFCA
:102570008020002100F030FFD920002100F02CFF46
:10258000F120002100F028FFDA20002100F024FFD4
:102590001220002100F020FFDB20002100F01CFFB2
:1025A0004020002100F018FF2020002100F014FF3F
:1025B0000220002100F010FF8D20002100F00CFF10
:1025C0001420002100F008FFA420002100F004FFE7
:1025D000A620002100F000FFAF20002100F0FCFE4B
:1025E00041F64800C2F20000002100BF42184554E5
:1025F00001F58071B1F5806F15721574157682F84A
:10260000205082F8285082F8305082F8385082F8F2
:10261000405082F8485082F8505082F8585082F862
:10262000605082F8685082F8705082F8785082F8D2
:10263000805082F8885082F8905082F8985082F842
:10264000A05082F8A85082F8B05082F8B85082F8B2
:10265000C05082F8C85082F8D05082F8D85082F822
:10266000E05082F8E85082F8F05082F8F850BDD17E
:1026700000210022831802F58072B2F5806F597034
:1026800059725974597683F8211083F8291083F808
:10269000311083F8391083F8411083F8491083F81A
:1026A000511083F8591083F8611083F8691083F88A
:1026B000711083F8791083F8811083F8891083F8FA
:1026C000911083F8991083F8A11083F8A91083F86A
:1026D000B11083F8B91083F8C11083F8C91083F8DA
:1026E000D11083F8D91083F8E11083F8E91083F84A
:1026F000F11083F8F910BDD100210022831802F5F2
:102700008072B2F5806F997099729974997683F896
:10271000221083F82A1083F8321083F83A1083F8D5
:10272000421083F84A1083F8521083F85A1083F845
:10273000621083F86A1083F8721083F87A1083F8B5
:10274000821083F88A1083F8921083F89A1083F825
:10275000A21083F8AA1083F8B21083F8BA1083F895
:10276000C21083F8CA1083F8D21083F8DA1083F805
:10277000E21083F8EA1083F8F21083F8FA10BDD162
:1027800000210022831802F58072B2F5806FD970A3
:10279000D972D974D97683F8231083F82B1083F873
:1027A000331083F83B1083F8431083F84B1083F801
:1027B000531083F85B1083F8631083F86B1083F871
:1027C000731083F87B1083F8831083F88B1083F8E1
:1027D000931083F89B1083F8A31083F8AB1083F851
:1027E000B31083F8BB1083F8C31083F8CB1083F8C1
:1027F000D31083F8DB1083F8E31083F8EB1083F831
:10280000F31083F8FB10BDD100210022831802F5DC
:102810008072B2F5806F197119731975197783F881
:10282000241083F82C1083F8341083F83C1083F8BC
:10283000441083F84C1083F8541083F85C1083F82C
:10284000641083F86C1083F8741083F87C1083F89C
:10285000841083F88C1083F8941083F89C1083F80C
:10286000A41083F8AC1083F8B41083F8BC1083F87C
:10287000C41083F8CC1083F8D41083F8DC1083F8EC
:10288000E41083F8EC1083F8F41083F8FC10BDD149
:1028900000210022831802F58072B2F5806F597111
:1028A00059735975597783F8251083F82D1083F8DB
:1028B000351083F83D1083F8451083F84D1083F8E8
:1028C000551083F85D1083F8651083F86D1083F858
:1028D000751083F87D1083F8851083F88D1083F8C8
:1028E000951083F89D1083F8A51083F8AD1083F838
:1028F000B51083F8BD1083F8C51083F8CD1083F8A8
:10290000D51083F8DD1083F8E51083F8ED1083F817
:10291000F51083F8FD10BDD100210022831802F5C7
:102920008072B2F5806F997199739975997783F870
:10293000261083F82E1083F8361083F83E1083F8A3
:10294000461083F84E1083F8561083F85E1083F813
:10295000661083F86E1083F8761083F87E1083F883
:10296000861083F88E1083F8961083F89E1083F8F3
:10297000A61083F8AE1083F8B61083F8BE1083F863
:10298000C61083F8CE1083F8D61083F8DE1083F8D3
:10299000E61083F8EE1083F8F61083F8FE10BDD130
:1029A00000210022831802F58072B2F5806FD97180
:1029B000D973D975D97783F8271083F82F1083F846
:1029C000371083F83F1083F8471083F84F1083F8CF
:1029D000571083F85F1083F8671083F86F1083F83F
:1029E000771083F87F1083F8871083F88F1083F8AF
:1029F000971083F89F1083F8A71083F8AF1083F81F
:102A0000B71083F8BF1083F8C71083F8CF1083F88E
:102A1000D71083F8DF1083F8E71083F8EF1083F8FE
:102A2000F71083F8FF10BDD100F006F805B000F0F4
:102A300000B830BCBDE8C08F70B5B020002100F0F8
:102A4000CBFC0020002100F0C7FC1020002100F08A
:102A5000C3FC41F648046FF00705C2F2000400BF52
:102A60006019007A012100F0B7FC0835B5F57E7FCA
:102A7000F6D1B120002100F0AFFC0020002100F0D1
:102A8000ABFC1020002100F0A7FCE51F802600BF52
:102A900015F8080F012100F09FFC013EF8D1B2208B
:102AA000002100F099FC0020002100F095FC10208E
:102AB000002100F091FCA51F802600BF15F8080F2B
:102AC000012100F089FC013EF8D1B320002100F083
:102AD00083FC0020002100F07FFC1020002100F08A
:102AE0007BFC651F802600BF15F8080F012100F050
:102AF00073FC013EF8D1B420002100F06DFC0020F1
:102B0000002100F069FC1020002100F065FC251F69
:102B1000802600BF15F8080F012100F05DFC013E82
:102B2000F8D1B520002100F057FC0020002100F072
:102B300053FC1020002100F04FFCE51E802600BF52
:102B400015F8080F012100F047FC013EF8D1B6202E
:102B5000002100F041FC0020002100F03DFC10208D
:102B6000002100F039FCA51E802600BF15F8080FD3
:102B7000012100F031FC013EF8D1B720002100F026
:102B80002BFC0020002100F027FC1020002100F089
:102B900023FC013C802500BF14F8080F012100F040
:102BA0001BFC013DF8D170BD0029804600F0B080CB
:102BB00041F648060D014FF00009C2F20006002759
:102BC000380605D05FFA89F040450ED055E000BFC9
:102BD0005FFA89F280201821102300F01BFA09F116
:102BE00001095FFA89F0404547D10024002000BF69
:102BF000325A311821F8082C8A78B1F8033001F8DC
:102C0000062CD1F8052021F8053CB1F8093041F82F
:102C1000032CD1F80B20A1F80130B1F80F30C1F826
:102C200003204A7CA1F807308B7C4A72CA7C8B72E5
:102C30000B7DCA724A7D0B738B7D4A73CA7D8B7381
:102C40000B7ECA734A7E0B748B7E4A74CA7E8B7469
:102C50000B7FCA744A7F0B758B7F4A75CA7F203001
:102C6000B0F5906F8B75CA75C2D1FFF7E5FE0134E0
:102C7000E0B28542BAD84FF000097C1C002000BFAA
:102C8000325A311821F8082C8A78B1F8033001F84B
:102C9000062CD1F8052021F8053CB1F8093041F89F
:102CA000032CD1F80B20A1F80130B1F80F30C1F896
:102CB00003204A7CA1F807308B7C4A72CA7C8B7255
:102CC0000B7DCA724A7D0B738B7D4A73CA7D8B73F1
:102CD0000B7ECA734A7E0B748B7E4A74CA7E8B74D9
:102CE0000B7FCA744A7F0B758B7F4A75CA7F203071
:102CF000B0F5906F8B75CA75C2D1E7B2FFF79CFE35
:102D0000103F18BF274638067FF45CAF60E700BF6E
:102D100041F648050024C2F200050027380606D116
:102D2000E2B280201821102300F074F901347E1CD7
:102D3000002000BF2A5A291821F8082C8A78B1F8F7
:102D4000033001F8062CD1F8052021F8053CB1F834
:102D5000093041F8032CD1F80B20A1F80130B1F86B
:102D60000F30C1F803204A7CA1F807308B7C4A72EF
:102D7000CA7C8B720B7DCA724A7D0B738B7D4A7342
:102D8000CA7D8B730B7ECA734A7E0B748B7E4A742A
:102D9000CA7E8B740B7FCA744A7F0B758B7F4A7512
:102DA000CA7F2030B0F5906F8B75CA75C2D1E0B282
:102DB000F7B2B0EB080008BF0446FFF73DFE103F36
:102DC00018BF37463806B2D1AAE700002DE9F04F08
:102DD00085B0DD0801275E0718BF07EBD3055F0844
:102DE00005FB07F63706039300F00E81039B182BB3
:102DF00000F20A81039B012441F2000704FA03F365
:102E0000C0F201173B4200F0FF80203AD3B244F2F7
:102E1000686703EB4302C0F6000707EB820844F63D
:102E2000DC22C0F600025FFA86FC4FF0000B019333
:102E300002EB03120B460092049100BF0399102984
:102E40000CD00C2946460CD0019945F2CC0201EB7E
:102E5000C101C0F6000202EB810100E0009901EB24
:102E60000B060290C1B241F64800DFB2C2F2000088
:102E7000FA0800EBC10703F00705B95C96F900609A
:102E800004FA05F521EA050A002E48BF41EA050AC1
:102E900003F10109049C5FFA89FE0398AEEB04017B
:102EA000814207F802A000F09F804FEADE055FFA3A
:102EB00086FA09F007017E5D012202FA01F146EA75
:102EC00001025FEA4A6458BF26EA01029E1C049C84
:102ED000F1B20C1B8442049C7A5500F08580CA082C
:102EE00006F00701BE5C012505FA01F146EA01057D
:102EF0005FEA8A6458BF26EA0105DE1C049CF1B231
:102F00000C1B8442049CBD546ED0CA0806F0070115
:102F1000BE5C012505FA01F146EA01055FEACA64D3
:102F200058BF26EA01051E1D049CF1B20C1B844209
:102F3000049CBD5458D0CA0806F00701BE5C0125A8
:102F400005FA01F146EA01055FEA0A7458BF26EA6C
:102F500001055E1D049CF1B20C1B8442049CBD540F
:102F600042D0CA0806F00701BE5C012505FA01F14E
:102F700046EA01055FEA4A7458BF26EA01059E1D2C
:102F8000049CF1B20C1B8442049CBD542CD0CA0892
:102F900006F00701BE5C012505FA01F146EA0105CC
:102FA0005FEA8A7458BF26EA0105DE1D049CF1B26F
:102FB0000C1B8442049CBD5416D0C90806F00702BD
:102FC0007E5C012505FA02F246EA02055FEACA7450
:102FD00008BF26EA02050833049EDAB2921B049C5D
:102FE00082427D540ED100BF0298234601300BF17E
:102FF000010BBCF1010C08F101084FF001047FF452
:103000001DAF01E00298F2E705B000F000B830BC57
:10301000BDE8C08F2DE9F04F89B0DF080793069017
:1030200000F0F88007981038C3B2400140EAD3009E
:10303000C6B2062E00F2EE800120B04010F0470F1D
:1030400000F0E880079800255043C0080090024631
:1030500006984FF0010E05960BE000BF039F029DFE
:10306000013F3A06019A05F1010502F1010200F063
:10307000D1800192D3B240F64002C2F2000202EBCC
:103080004329009A4FF0000BAB18DAB20492079A6A
:1030900003970295A5E000BF049A02EBC20540F237
:1030A0006852C2F2000202EBC5055D4441F64803D6
:1030B00095F900C0C5B2CAB2C2F20003D20803EB50
:1030C000C50501F00706AF5C0EFA06F647EA060AE8
:1030D0005FEACC7808BF27EA060A05F802A04A1C76
:1030E000D6B2F60802F00702AF5D0EFA02F247EA26
:1030F00002045FEA8C7358BF27EA02048A1CD3B229
:10310000AC55DB0802F00702EC5C0EFA02F244EA6E
:1031100002065FEA4C7758BF24EA0206CA1CEE5446
:10312000D3B2DB0802F00702EC5C0EFA02F244EACA
:1031300002065FEA0C7758BF24EA02060A1DEE5425
:10314000D3B2DB0802F00702EC5C0EFA02F244EAAA
:1031500002065FEACC6758BF24EA02064A1DEE5415
:10316000D3B2DB0802F00702EC5C0EFA02F244EA8A
:1031700002065FEA8C6758BF24EA02068A1DEE54F5
:10318000D3B2DB0802F00702EC5C0EFA02F244EA6A
:1031900002065FEA4C6758BF24EA0206CA1DEE54D5
:1031A000D3B2DB0802F00702EC5C0EFA02F224EA6A
:1031B0000207BCF1000F48BF44EA0207EF54013098
:1031C000069FC2B2079BD21B9A4204BF3846083101
:1031D000089A059E0BF1010B013A09F101093FF430
:1031E0003DAF089276B1012E3FF456AF022E4D4608
:1031F0007FF45CAF40F24062049BC2F2000202EB3B
:10320000C31552E740F20842049BC2F2000202EBEF
:1032100003154AE709B000F000B830BCBDE8C08F24
:103220002DE9F04F83B0002B5CD081460C981C46F2
:103230004508981E0190584217468B4600265FFAB3
:1032400080F842F2107A02921FE000BF0120B7FB23
:10325000F0F04CF6CD41CCF6CC41A0FB0112D108E8
:1032600001EB8101A0EB410006FB059140F030022B
:10327000002808BF30220C9BD2B2C8B25946FFF7D3
:10328000A5FD0136F0B2A0422CD2F043C1B24145B7
:10329000DCD00199891BC9B2032900EB040101D2DA
:1032A000012009E001F0FC02002301200433DFB219
:1032B000974200FB0AF0F9D1029F11F00301C6D03A
:1032C000012903D100EB80004000C0E74FF47A727F
:1032D000424302294FF0640108BF00FB01F210468F
:1032E000B5E700BF03B000F000B830BCBDE8C08F48
:1032F0002DE9F04F81B099423ED20D46010901F10E
:10330000100800F00E019A46824201F1010B21D90A
:103310000A9EA2EB00090024A5F15000C0B20021D2
:1033200000F05AF84046002100F056F858460021B7
:1033300000F052F809EB0407305D012100F04CF871
:103340000134E0B2F9B28142F6D10135E8B250451C
:10335000E2D311E0A5F15000C0B2002100F03CF82A
:103360004046002100F038F85846002100F034F8BB
:103370000135E8B25045EDD301B000F000B830BCE3
:10338000BDE8C08F2DE9F04381B0984613780D4613
:10339000A3F12001C9B25E291BD806464FEA58099D
:1033A000C8F18004571E00BFF0B2E9B2DAB243465A
:1033B000FFF70CFD4E44F0B28442B8BF0235BB7833
:1033C000B8BF0026A3F12000C0B25F2807F10107B3
:1033D000EAD301B0BDE8F083B0B540F20044C4F6D2
:1033E00000040A460546002920464FF0200118BF78
:1033F0000122FDF7BDF84FF0904010210022FDF7AB
:10340000B7F84FF0904020210022FDF7B1F8EA090B
:103410004FF090408021FDF7ABF84FF09040202115
:103420000122FDF7A5F84FF0904020210022FDF782
:103430009FF8C5F380124FF090408021FDF798F877
:103440004FF0904020210122FDF792F84FF090407C
:1034500020210022FDF78CF8C5F340124FF0904078
:103460008021FDF785F84FF0904020210122FDF7E3
:103470007FF84FF0904020210022FDF779F8C5F346
:1034800000124FF090408021FDF772F84FF090400D
:1034900020210122FDF76CF84FF0904020210022FE
:1034A000FDF766F8C5F3C0024FF090408021FDF7AC
:1034B0005FF84FF0904020210122FDF759F84FF0BE
:1034C000904020210022FDF753F8C5F380024FF011
:1034D00090408021FDF74CF84FF0904020210122D0
:1034E000FDF746F84FF0904020210022FDF740F80C
:1034F000C5F340024FF090408021FDF739F84FF0BE
:10350000904020210122FDF733F84FF09040202118
:103510000022FDF72DF805F001024FF090408021C8
:10352000FDF726F84FF0904020210122FDF720F80A
:103530004FF0904010210122FDF71AF8204620217B
:103540000122BDE8B040FDF713B80000704700004D
:10355000F0B581B041F20007C4F20207FA680D46E7
:103560009107044614D0F868216800F003008842EF
:103570004FF0010040F09F80002900F09C80F86827
:103580006168C0F302100130884232D134E000BFDC
:10359000206803280CD0022816D0012829D13968C8
:1035A000012211F0020182EA510116D120E000BF90
:1035B0003968890310D43968012211F4802182EA24
:1035C00091410AD114E000BF3968012211F48061F1
:1035D00082EA912101D10BE00021FA6863686FF063
:1035E0000F0622F0730206EB03131A431043F86030
:1035F00011B1012001B0F0BD386820F08060386062
:10360000FCF7BCFF064600BF3868000106D5FCF792
:10361000B5FF801B0228F7D944E000BF012D0DD073
:10362000F5B9386948F2FF01C0F2FF710840D4E9EA
:10363000021240EA012040EAC26022E048F2FF01A3
:103640003869CFF6FF112269002301F1B461CFF68A
:10365000E0730840A16803EA0252A2F500120DE0EF
:10366000386948F2FF016269CFF6FF114FF07E43DF
:103670000840A16803EA026202F17E4240EA0120AA
:1036800010433861386840F080603860FCF776FF9E
:10369000054600BF3868000108D4FCF76FFF401BE7
:1036A0000228F7D9032001B0F0BD00BFA069396935
:1036B00008433861002001B0F0BD0000F0B581B0D2
:1036C00041F20007C4F20207FA680D46910704466A
:1036D00014D0F868216800F0030088424FF0010020
:1036E00040F08980002900F08680F8686168C0F3A6
:1036F00002100130884219D136E000BF206803284B
:1037000018D002280AD0012810D13968012211F0FE
:10371000020182EA510108D019E000BF3968012294
:1037200011F4806182EA912111D1E9B1012001B047
:10373000F0BD00BF3968890308D43968012211F44B
:10374000802182EA9141F0D001E000BF0021FA68B7
:1037500063686FF00F0622F0730206EB03131A433F
:103760001043F8600029E1D1386820F080503860BB
:10377000FCF704FF064600BF3868800006D5FCF75A
:10378000FDFE801B0228F7D92CE000BF7969A068F4
:103790004FEA002065B148F2FF02CFF6FF12114058
:1037A00022694FF07E4303EA026202F17E4206E0A4
:1037B00048F2FF02E368C0F2FF721140DA060843E4
:1037C00010437861386840F080503860FCF7D6FECE
:1037D000054600BF3868800008D4FCF7CFFE401BC8
:1037E0000228F7D9032001B0F0BD00BF60697969F4
:1037F00008437861002001B0F0BD000042F258207B
:10380000C2F20000FEF7C4B8806A0021A0F846109A
:10381000C187FEF7BBB8000070470000FCF7B4BEDC
:1038200010B596B005A804302421FCF716FD00243D
:103830004FF400700494CDE90244CDE90044FDF753
:103840007BF828B1EFF3108072B600BFFEE700BF2F
:10385000FDF7D4F841F29000C4F20200016821F0B3
:103860001801016014206021059001200D910221B2
:103870000790CDE90B04CDE90F1011904720CDE959
:1038800012010620159005A81491FDF793FC28B1AC
:10389000EFF3108072B600BFFEE700BF0F2000906C
:1038A0000320019000204FF480610290CDE90310C5
:1038B00068460221FDF7B2FA20B1EFF3108072B62C
:1038C000FEE700BFFDF7A4F816B010BD4EF6885015
:1038D000CEF20000016841F4700101607047000001
:1038E00080B5416ACA070DD18A0716D44A071FD48A
:1038F0000A0728D4CA0631D48A063AD44A0658D5CB
:1039000042E000BF0268D0F828C0536823F40033B7
:1039100043EA0C0353608A07E8D50268D0F82CC04C
:10392000536823F4803343EA0C0353604A07DFD51E
:103930000268D0F830C0536823F4802343EA0C03B4
:1039400053600A07D6D50268D0F834C0536823F410
:10395000004343EA0C035360CA06CDD50268D0F891
:1039600038C0936823F4805343EA0C0393608A06BB
:10397000C4D50268D0F83CC0936823F4005343EAEE
:103980000C0393604A0614D50268D0F840C053680F
:10399000BCF5801F23F4801343EA0C03536008D165
:1039A000D2F804C0D0F844E02CF4C00343EA0E037C
:1039B0005360090658BF80BD0168806C4A6822F4D4
:1039C00000221043486080BDB0B5054605F10804EB
:1039D0001ECC0068194341EA0403D5F81CE00468D2
:1039E00046F6F311CEF6FF712140194341EA0E016C
:1039F0000160416848F2000C21F4405111434160DC
:103A0000AA69C4F2000C60451CBF296A0A43816898
:103A1000102321F430611143816044F6FF71C4F238
:103A20000001884218DC44F20041C4F200018842DF
:103A300028D044F60001C4F2000188422AD044F69E
:103A40000041C4F20001884242D141F28801C4F22F
:103A5000020109688B0933E045F20001C4F200015C
:103A600088421FD0604525D043F60001C4F2010111
:103A700088422DD141F28801C4F202010B6868A28C
:103A800022E000BF41F28801C4F2020109688B08FC
:103A900016E000BF41F28801C4F2020109680B0977
:103AA0000EE000BF41F28801C4F2020109680B0A6E
:103AB00006E000BF41F28801C4F2020109688B0AE6
:103AC00045F62862C0F6000203F0030152F82130E7
:103AD000604542F20040C0F2F40015D0BEF5004F40
:103AE00022D1082B4FF0010100F29580DFE803F0AE
:103AF00006546093589393935E0000BFFDF7CCFA91
:103B0000002855D14FE000BF082B4FF0010100F213
:103B10008280DFE803F0058023801B808080210005
:103B2000FDF7BAFAD0B914E0082B4FF0010100F20A
:103B30007280DFE803F005535F70577070705D00AE
:103B4000FDF7AAFA002855D14FE000BFFDF7D0FAE3
:103B500020B900215FE000BF4FF400406A6802EB2B
:103B6000420188424FF0010155D31303984252D8C5
:103B7000010E000210EB520041F100010023FCF79E
:103B800031FB4FF60052A0F54071C0F20F02914296
:103B90003BD301213FE000BFFDF794FA40B902E0BA
:103BA000FDF7A6FA20B9002135E000BF4FF4004030
:103BB00069684A0802EB4000B0FBF1F04FF6EF7283
:103BC000A0F11001914207D84FF6F0710140C0F307
:103BD0004200084419E000BF01211CE0FDF772FA21
:103BE00040B902E0FDF784FA20B9002113E000BFDC
:103BF0004FF4004069684FF6EF7200EB5100B0FBE4
:103C0000F1F0A0F11001914204D82968C8600021A8
:103C100001E000BF0121002208466A66AA66B0BD25
:103C20000100000004000000020000000800000085
:103C30002DE9F041044600681546C2690E46114060
:103C4000891BB1FA81F14909A94240F0A080DDF851
:103C50001880B8F1000F29D018F1010140F08080E0
:103C6000C1693140891BB1FA81F14909A94240F08B
:103C70008E80C1693140891BB1FA81F14909A9429D
:103C800040F08580C1693140891BB1FA81F1490951
:103C9000A9427CD1C1693140891BB1FA81F149093E
:103CA000A942DDD00020BDE8F08100BFFCF766FC32
:103CB000206850E8000F216820F4D07041E800022D
:103CC000BAB3206850E8000F216820F4D07041E8B2
:103CD000000272B3206850E8000F216820F4D07011
:103CE00041E800022AB3206850E8000F216820F460
:103CF000D07041E80002002ADAD11AE0206850E8CA
:103D0000020F216820F0010041E80202DAB12068C8
:103D100050E8020F216820F0010041E8020292B150
:103D2000206850E8020F216820F0010041E80202FB
:103D30004AB1206850E8020F216820F0010041E8F4
:103D40000202002ADAD12020A06704F17C002021A1
:103D50000160002084F874000320BDE8F08100BFFA
:103D60001F4600BFFCF70AFCC01B4045A0D82068D6
:103D70000168490744BFC1695FEA01510AD4C069BB
:103D80003040801BB0FA80F04009A842EAD0002001
:103D9000BDE8F0814FF40061016200BF206850E887
:103DA000000F216820F4D07041E80002BAB3206807
:103DB00050E8000F216820F4D07041E8000272B38F
:103DC000206850E8000F216820F4D07041E800021C
:103DD0002AB3206850E8000F216820F4D07041E831
:103DE0000002002ADAD11AE0206850E8020F2168A8
:103DF00020F0010041E80202DAB1206850E8020F29
:103E0000216820F0010041E8020292B1206850E8E8
:103E1000020F216820F0010041E802024AB1206847
:103E200050E8020F216820F0010041E80202002A58
:103E3000DAD12020A067E06704F1800087E7000066
:103E400081B0C3680146079A40F6405043F04003F2
:103E5000C0F20300CB6000230093009B013300936A
:103E6000009B83424AD80B69002B1BD4009B013373
:103E70000093009B834243D80B69002B12D4009B14
:103E800001330093009B83423CD80B69002B09D47B
:103E9000009B01330093009B834235D80B69B3F13B
:103EA000FF3FDADC002300930B6943F001030B6151
:103EB000009B01330093009B834227D80B69DB07EB
:103EC00026D0009B01330093009B834222D80B69CC
:103ED000DB0721D0009B01330093009B83421DD858
:103EE0000B69DB071CD0009B01330093009B8342CE
:103EF00018D80B69DB07DBD1002014E0032012E0A7
:103F0000032010E003200EE003200CE003200AE071
:103F1000002008E0032006E0002004E0032002E087
:103F2000002000E003208B6B002A23F4803308BFBD
:103F300003F580338B6301B0704700000146D0F871
:103F4000000E20F00300C1F8000ED1F8040840F084
:103F500002020020C1F80428704700002DE9F04F4C
:103F600083B0DDF84CE00022BEF1000FC0F8042160
:103F7000C0F80821C0F80C21C0F81021C0F81421A5
:103F8000C0F81821C0F81C21C0F82021C0F8242155
:103F9000C0F82821C0F82C21C0F83021C0F8342105
:103FA000C0F83821C0F83C2106D0826B00F5006AC9
:103FB00042F40012826313E0D0F8042800F5006A8E
:103FC00042F00202C0F80428826B22F400128263DD
:103FD000026842F040020260026842F08002026021
:103FE0000022C0F8002ED0F80078DDF83C90C0F830
:103FF0000078D0F8007840F64054C0F2030447F04F
:104000000307C0F800780192019A01320192019AE7
:10401000A2424BD80269002A1BD4019A01320192B4
:10402000019AA24242D80269002A12D4019A0132AE
:104030000192019AA24239D80269002A09D4019A50
:1040400001320192019AA24230D80269B2F1FF3FD7
:10405000DADC002201924FF484620261019A01329B
:104060000192019AA24221D8026992061AD5019AB8
:1040700001320192019AA24218D80269920611D522
:10408000019A01320192019AA2420FD80269920666
:1040900008D5019A01320192019AA24206D802691A
:1040A0009206DBD44FF0000B02E000BF4FF0010B93
:1040B00000220292029A01320292029AA24247D848
:1040C0000269002A1BD4029A01320292029AA24289
:1040D0003ED80269002A12D4029A01320292029A50
:1040E000A24235D80269002A09D4029A013202920A
:1040F000029AA2422CD80269B2F1FF3FDADC002218
:10410000029210220261029A01320292029AA242A3
:104110001ED80269D2061DD5029A01320292029A75
:10412000A24215D80269D20614D5029A013202922F
:10413000029AA2420CD80269D2060BD5029A013229
:104140000292029AA24203D80269D206DBD401E0AD
:104150004FF0010B4FF000080029CAF81080CAF890
:104160001480CAF81C8000F00281D0F800294FF0BA
:10417000006707EA12124FF67F334D1EC0F8002980
:10418000C0F81089C0F808397AD08A1ECDF800B07E
:10419000032A05F0030B05D22027BBF1000F44D101
:1041A00068E000BF25F0030700224FF090464FF66D
:1041B0007F3E4FF0000C00BF00EB0C04D4F82099B8
:1041C000043F06EAE973C4F82039C4F83029C4F87A
:1041D00028E9D4F840390CF1800C06EAE373C4F8FE
:1041E0004039C4F85029C4F848E9D4F8603906EADF
:1041F000E373C4F86039C4F87029C4F868E9D4F8E6
:10420000803906EAE373C4F88039C4F89029C4F809
:1042100088E9D1D1DDF84CE0DDF83C900CF12007C5
:104220004FF67F33BBF1000F24D000F51066F45930
:104230004FF0904C0CEAE474F219F45100264FF65A
:104240007F37BBF1010F1661976013D0146ABBF181
:10425000020F0CEAE4741462166397620AD0176CBA
:104260004FF0904606EAE7771764002717654FF688
:104270007F379764DDF800B000294FF0006776D0F3
:10428000D0F8002B002D07EA1212C0F8002B4FF0D7
:104290000002C0F8102BC0F8083B68D0023903298F
:1042A00005F0030C04D22022BCF1000F3AD15EE0ED
:1042B00025F0030500224FF090464FF67F3700218E
:1042C0004318D3F8204B043D06EAE474C3F8204BAE
:1042D000C3F8302BC3F8287BD3F8404B01F18001A1
:1042E00006EAE474C3F8404BC3F8502BC3F8487B8C
:1042F000D3F8604B06EAE474C3F8604BC3F8702B44
:10430000C3F8687BD3F8804B06EAE474C3F8804BAB
:10431000C3F8902BC3F8887BD2D101F12002BCF105
:10432000000F24D000F530639E584FF0904707EA05
:10433000E67699189E5000264FF67F32BCF1010FA9
:104340000E618A6013D00B6ABCF1020F07EAE373B7
:104350000B620E638A620AD00A6C4FF0904303EA44
:10436000E2720A6400220A654FF67F328A64DAF844
:10437000101043F6000221F48071CAF810106FF09B
:104380008041C0F8188041618169C8F23C0241F067
:10439000100181618169B9F1000F41EA0201816177
:1043A00003D0816941F008018161BEF1010F05D19F
:1043B000816941F0804141F004018161584603B0B8
:1043C00000F000B830BCBDE8C08F00000146806836
:1043D00020F0010200208A6070470000B0B504465A
:1043E000C06820F0C040E06091B1012926D1E068AA
:1043F000002540F00050E0600120FBF7CDFF606930
:10440000C00705F1010014D1312D0546F4D310E0A9
:10441000E068002540F08040E06000BF0120FBF72D
:10442000BBFF6069C00705F1010002D0312D0546D0
:10443000F4D33238B0FA80F04009B0BD0120B0BDED
:10444000FEE7000082B0FCF7ADF8FFF7E9F9FDF7F1
:10445000A1FCFDF735FDFDF757FDFDF77DFDFDF7EF
:10446000C5FF40F2080A45F638642025C2F2000A6A
:104470004FF0100B0FF25C180FF268195CA65EA7E4
:10448000C0F600040020002180220823CDF800A0FF
:10449000FEF72EFF4FF4FA70FBF77EFFFDF780FD6D
:1044A0000020002100221023FEF7B4FD122000217D
:1044B00001221023FEF7AEFD24200021022210234A
:1044C000FEF7A8FD3620002103221023FEF7A2FDEF
:1044D0004820002104221023FEF79CFD5A200021D1
:1044E00005221023FEF796FD6C20002106221023E2
:1044F000FEF790FD0820102142461023FEF742FFF0
:10450000142020214A461023FEF73CFF00203021D2
:1045100032461023FEF736FF3F2030213A46102363
:10452000FEF730FFEAB2302030211023FEF74EFCB8
:104530000135E8B27E2888BF2025EAB26720302105
:104540000323CDF800B0FEF76BFEFEF775FA4FF4CB
:10455000FA70FBF721FFFDF723FD00200021002268
:104560001023FEF757FD1020002100221823FEF72C
:1045700051FD1820142100222023FEF74BFD40207E
:10458000002100224023FEF745FDFEF755FA4FF4C7
:10459000FA70FBF701FFFDF703FD00200021224622
:1045A0000C23FEF7EFFE00200C2122461023FEF71D
:1045B000E9FE00201C2122461823FEF7E3FEFEF749
:1045C0003BFA4FF4FA70FBF7E7FE0B200421FEF7ED
:1045D000EBFA57E75A484F4E474A494E475955411B
:1045E0004E000000323031342F30352F3031000092
:1045F00041534349493A0000434F44453A000000C3
:1046000002E008C8121F08C1002AFAD1704770479B
:10461000002001E001C1121F002AFBD170470000F9
:104620000000000000000102030406070809000062
:104630000000010203040000A0860100400D0300F9
:10464000801A060000350C0040420F0080841E00D6
:1046500000093D0000127A000024F40000366E01CB
:104660000048E801006CDC020000000000000000CF
:1046700000000000000000003F40000000000000BB
:1046800000003000400030004000000009000BC076
:104690003D000BC03D00090018C024407FE02240CF
:1046A00031800000180024C01B000D8032400180C2
:1046B00003801C4027401C80074000401000600021
:1046C00000000000000000000000000000001F804B
:1046D000204040200000402020401F8000000000BB
:1046E000090006001F800600090000000400040005
:1046F0003F80040004000000001000600000000083
:104700000000000004000400040004000400000095
:10471000000000400000000000000000002001C078
:1047200006003800400000001F802040204020404C
:104730001F800000000010403FC00040000000004B
:1047400018C0214022402440184000001080204022
:10475000244024401B80000002000D0011003FC0D7
:10476000014000003C80244024402440238000007D
:104770001F8024402440344003800000300020008B
:1047800027C03800200000001B8024402440244023
:104790001B8000001C0022C0224022401F8000001D
:1047A00000000000084000000000000000000000C1
:1047B0000460000000000000000004000A00110076
:1047C000208040400900090009000900090000009C
:1047D00000004040208011000A0004001800200062
:1047E00023402400180000001F802040274029405B
:1047F0001F400000004007C039000F0001C000400A
:1048000020403FC0244024401B8000001F802040E7
:10481000204020403080000020403FC02040204009
:104820001F80000020403FC024402E4030C00000C8
:1048300020403FC024402E00300000000F001080B8
:10484000204022403380020020403FC0040004008A
:104850003FC02040204020403FC02040204000007A
:104860000060202020203FC02000200020403FC0CA
:1048700024400B0030C0204020403FC0204000407A
:10488000004000C03FC03C0003C03C003FC00000EF
:1048900020403FC00C4023003FC020001F8020402C
:1048A000204020401F80000020403FC024402400C2
:1048B000180000001F802140214020E01FA00000C0
:1048C00020403FC02440260019C0004018C02440AA
:1048D0002440224031800000300020403FC0204072
:1048E0003000000020003F80004000403F8020005A
:1048F00020003E0001C0070038002000380007C03B
:104900003C0007C038000000204039C0060039C014
:10491000204000002000384007C038402000000040
:10492000304021C02640384020C000000000000078
:104930007FE0402040200000000070000C00038059
:10494000004000000000402040207FE00000000008
:1049500000002000400020000000000000100010B7
:1049600000100010001000100000000040000000C7
:1049700000000000000002800540054003C0004028
:1049800020003FC00440044003800000000003807A
:10499000044004400640000000000380044024401E
:1049A0003FC0004000000380054005400340000078
:1049B000000004401FC0244024402000000002E00A
:1049C000055005500650042020403FC0044004001C
:1049D00003C000400000044027C000400000000069
:1049E00000100010041027E00000000020403FC02D
:1049F0000140070004C00440204020403FC0004068
:104A00000040000007C0040007C0040003C000000D
:104A1000044007C00440040003C0004000000380BD
:104A20000440044003800000041007F004500440D8
:104A300003800000000003800440045007F00010D1
:104A4000044007C0024004000400000000000640CB
:104A50000540054004C00000000004001F80044021
:104A600000400000040007800040044007C00040F0
:104A70000400070004C0018006000400060001C015
:104A8000070001C006000000044006C0010006C087
:104A9000044000000410071004E001800600040038
:104AA0000000044005C00640044000000000000073
:104AB00004007BE040200000000000000000FFF048
:104AC00000000000000040207BE004000000000027
:104AD0004000800040002000200040000000000056
:104AE00000000000000000000000000000000000C6
:104AF00000001FCC000C00000000000000000800B7
:104B0000300060000800300060000000022003FC5C
:104B10001E20022003FC1E200220000000000E18B0
:104B200011043FFF10840C78000000000F00108477
:104B30000F3800C0077818840078000000780F84D0
:104B400010C411240E9800E40084000808006800D6
:104B500070000000000000000000000000000000E5
:104B6000000007E018182004400200000000400286
:104B70002004181807E00000000000000240024076
:104B800001800FF0018002400240000000800080A0
:104B900000800FF800800080008000000001000D00
:104BA000000E000000000000000000000000008077
:104BB0000080008000800080008000800000000CE9
:104BC000000C0000000000000000000000000006D3
:104BD000001800600180060018002000000007F0A7
:104BE000080810041004080807F00000000008047A
:104BF00008041FFC000400040000000000000E0C6C
:104C000010141024104411840E0C000000000C1825
:104C100010041104110412880C700000000000E060
:104C20000320042408241FFC0024000000001F9817
:104C3000108411041104108810700000000007F0A7
:104C400008881104110418880070000000001C007E
:104C5000100010FC13001C001000000000000E38B3
:104C600011441084108411440E3800000000070025
:104C7000088C10441044088807F000000000000071
:104C80000000030C030C0000000000000000000006
:104C9000000101060000000000000000000000808C
:104CA0000140022004100808100400000220022025
:104CB0000220022002200220022000000000100436
:104CC00008080410022001400080000000000E00CF
:104CD0001200100C106C10800F00000003E00C1884
:104CE00013E4142417C4082807D000000004003C73
:104CF00003C41C40074000E4001C000410041FFC17
:104D00001104110411040E880070000003E00C1857
:104D100010041004100410081C10000010041FFCE4
:104D2000100410041004080807F0000010041FFC11
:104D30001104110417C410040818000010041FFC0B
:104D40001104110017C010000800000003E00C1847
:104D50001004100410441C780040000010041FFCD4
:104D600010840080008010841FFC100400001004D8
:104D700010041FFC100410040000000000030001D8
:104D8000100110011FFE10001000000010041FFC95
:104D9000110403801464181C1004000010041FFC8C
:104DA0001004000400040004000C000010041FFCA8
:104DB0001F0000FC1F001FFC1004000010041FFC5B
:104DC0000C04030000E010181FFC100007F0080896
:104DD000100410041004080807F0000010041FFC61
:104DE00010841080108010800F00000007F0081859
:104DF00010241024101C080A07F2000010041FFCE5
:104E00001104110011C011300E0C000400000E1C22
:104E100011041084108410441C3800001800100085
:104E200010041FFC100410001800000010001FF8F0
:104E300010040004000410041FF8100010001E00ED
:104E400011E0001C007013801C0010001FC0103CFB
:104E500000E01F0000E0103C1FC000001004180C10
:104E6000163401C001C01634180C100410001C00C8
:104E7000130400FC13041C00100000000804101CA4
:104E80001064108413041C041018000000000000BB
:104E900000007FFE4002400240020000000030009F
:104EA0000C0003800060001C0003000000004002B2
:104EB000400240027FFE00000000000000000000F1
:104EC00020004000400040002000000000010001E0
:104ED000000100010001000100010001000040008C
:104EE00040002000000000000000000000000098CA
:104EF000012401440144014400FC000410001FFC93
:104F000000880104010400880070000000000070A7
:104F10000088010401040104008800000000007002
:104F200000880104010411081FFC0004000000F8BF
:104F3000014401440144014400C800000000010490
:104F400001040FFC1104110411001800000000D628
:104F500001290129012901C90106000010041FFCD3
:104F6000008401000100010400FC000400000104B1
:104F7000190419FC000400040000000000000003F4
:104F800000010101190119FE0000000010041FFCBE
:104F90000024004001B4010C0104000000001004D2
:104FA00010041FFC0004000400000000010401FCC8
:104FB0000104010001FC0104010000FC010401FCEA
:104FC000008401000100010400FC0004000000F85E
:104FD000010401040104010400F80000010101FFC3
:104FE00000850104010400880070000000000070CA
:104FF000008801040104010501FF0001010401040E
:1050000001FC00840104010001800000000000CCCC
:105010000124012401240124019800000000010062
:10502000010007F80104010400000000010001F87C
:10503000000400040004010801FC000401000180D8
:105040000170000C001001600180010001F0010CF2
:10505000003001C00030010C01F00100000001042B
:10506000018C00740170018C0104000001010181B8
:105070000171000E00180160018001000000018430
:10508000010C013401440184010C00000000000007
:105090000000000001003EFC400240020000000051
:1050A00000000000FFFF00000000000000004002C0
:1050B00040023EFC01000000000000000000600013
:1050C0008000800040004000200020000000000020
:1050D00000000000000000000000000000000000D0
:1050E00000000000000000000000000000000000C0
:1050F0000000000000000000000000000000000FA1
:1051000080380FFE380F80380000000000000000DB
:105110000000000000000000000001000006000088
:105120000C00003800003100000600000C000038C0
:1051300000003000000000000000000061800067F7
:10514000F807F98000618000618000618000618063
:105150000067F807F980006180000000000000008F
:10516000000001C0E003E0F00630080418081FFF4B
:10517000FE040E080787F00381E000000000000035
:1051800001F000060C00040408060C7001F9C000D0
:105190000E00003BE000EC18070808040C180003A0
:1051A000E00000000001E00007F003F818041C080C
:1051B00004170807E1D003C0E00023B0003C08005A
:1051C0002008000010000000000000010000310075
:1051D000003200001C000000000000000000000081
:1051E00000000000000000000000000000000000BF
:1051F0000000000000000000000000007F0001FF30
:10520000C00780F00C00181000042000020000000D
:105210000000002000021000040C00180780F001BC
:10522000FFC0007F00000000000000000000000040
:105230000000000000000000420000660000660060
:10524000003C0000180003FFC0001800003C0000F4
:105250006600006600004200000000000800000830
:105260000000080000080000080001FFC00008005E
:10527000000800000800000800000800000000000E
:10528000000100003100003200001C00000000009E
:10529000000000000000000000000000000000000E
:1052A00000000000080000080000080000080000DE
:1052B00008000008000008000008000008000008BE
:1052C000000000000000000000000000380000386E
:1052D0000000380000000000000000000000000096
:1052E00000000000000000000000000000060000B8
:1052F0001C000070000180000E0000380000C0009B
:105300000700001C0000300000000000000000004A
:105310007F8001FFE003807006001804000804008D
:105320000806001803807001FFE0007F8000000085
:10533000000000000000010008010008010008034F
:10534000FFF807FFF8000008000008000008000050
:105350000000000000000001C03802C0580400989E
:10536000040118040218040418061C1803F8180194
:10537000E0F800000000000000000001C0E003C0F1
:10538000F004000804080804080806180803F418C4
:1053900001E7F00001E00000000000000000000054
:1053A0000300000D000011000061000081080301EE
:1053B0000807FFF80FFFF8000108000108000000CF
:1053C0000000000000E007FCD006080806100806F0
:1053D0001008061008061838060FF00607C000006F
:1053E00000000000000000003F8001FFE003843067
:1053F0000208180410080410080410080718100305
:105400000FF00007C000000000000000000003C013
:10541000000700000600000600F80607F80618005E
:1054200006E0000700000600000000000000000188
:10543000E1E003F7F0063410041808041808040C1F
:1054400008040C0806161803F3F001C1E000000080
:1054500000000000F80003FC3003063804020804D2
:1054600002080402080404100308F001FFC0007FD2
:10547000000000000000000000000000000000002C
:105480000000000070380070380070380000000024
:10549000000000000000000000000000000000000C
:1054A0000000000000000000301A00301C00000066
:1054B00000000000000000000000000000000000EC
:1054C00000000008000014000022000041000080DD
:1054D00080010040020020040010080008000000C5
:1054E0000000000021000021000021000021000038
:1054F00021000021000021000021000021000021E6
:105500000000000000000000000008000804001077
:1055100002002001004000808000410000220000C5
:10552000140000080000000000000003C00004C0D8
:1055300000040000080038080F3808083808100078
:105540000C300007E00003C0000000000000000075
:105550003F8000FFE0038070020F1006708804C0D7
:1055600088048308047F8802C09003012000FE4065
:105570000000080000180001F8003E0801C2000702
:10558000020007E20000FE00001FC80001F8000052
:105590003800000804000807FFF807FFF8040808AF
:1055A00004080804080804080806180803F4180189
:1055B000E7F00001E0000000000000003F8001FF74
:1055C000E0038070020018040008040008040008CA
:1055D0000400100600200780C00000000400080737
:1055E000FFF807FFF804000804000804000804009E
:1055F0001802001003807001FFE0007F80000000AF
:1056000004000807FFF807FFF80408080408080466
:105610000808040808043E080400080600180100F1
:105620006000000004000807FFF807FFF8040808FE
:10563000040800040800040800043E0006000006F8
:105640000000018000000000000000003F8001FF1A
:10565000E003807006001804000804020804020831
:105660000203F00783F000020000020004000807B4
:10567000FFF807FFF8040808000800000800000809
:105680000000080004080807FFF807FFF8040008F6
:1056900000000000000004000804000804000807DF
:1056A000FFF807FFF80400080400080400080000E1
:1056B00000000000000000000006000007000001DC
:1056C00004000104000104000307FFFE07FFFC04BF
:1056D000000004000004000004000807FFF807FFB2
:1056E000F8040C08001800003E0004C7800503C839
:1056F0000600F80400380400180000080400080739
:10570000FFF807FFF8040008000008000008000088
:1057100008000008000008000018000060000000F9
:1057200004000807FFF807800807FC00007FC0009E
:1057300003F80007C000780007800807FFF807FF9C
:10574000F804000804000807FFF807000803C00079
:1057500000E000003800001E000007000001C00447
:1057600000F007FFF8040000000000007F8001FF48
:10577000E003807006001804000804000806001802
:1057800003003001FFE0007F8000000004000807F4
:10579000FFF807FFF80404080404000404000404EC
:1057A00000040400060C0003F80001F000000000F3
:1057B000000000007F8001FFE00380700600880485
:1057C00000880400C806003C03003E01FFE6007F9D
:1057D0008400000004000807FFF807FFF804080829
:1057E000040800040C00040F00040BC00610F003B2
:1057F000F03801E00800000800000001E0F803F0C4
:1058000030063010041808041808040C08040C08AA
:105810000206180207F00781E00000000180000680
:10582000000004000004000004000807FFF807FF60
:10583000F8040008040000040000060000018000D5
:1058400004000007FFE007FFF00400180000080054
:10585000000800000800000800000804001007FF0E
:10586000E004000004000006000007E00007FE005E
:10587000041FE00001F80000380001E0043E0007CA
:10588000C00006000004000004000007E00007FF5D
:10589000C0041FF80007C007F80007FF80043FF8A6
:1058A0000007C004F8000700000400000000000426
:1058B000000806001807C07805F1C8003E00001F68
:1058C000800463E80780F806001804000800000060
:1058D00004000006000007800007E008047C0800C0
:1058E0001FF80007F800180804E008070000060089
:1058F000000400000000000100080600380400F861
:105900000403E8040F08047C0805F00807C0080732
:10591000001804006000000000000000000000000B
:10592000000000000000003FFFFE200002200002F7
:105930002000022000022000020000000000000001
:10594000000008000007000000C00000380000064A
:10595000000001C000003000000E00000100000047
:1059600000000000000020000220000220000220B1
:1059700000022000023FFFFE0000000000000000C7
:10598000000000000000000000000000000800000F
:10599000100000300000200000300000100000085F
:1059A00000000000000000000000010000010000F5
:1059B00001000001000001000001000001000001E1
:1059C00000000100000100000100000100000000D3
:1059D0000000000000200000200000100000100067
:1059E00000000000000000000000000000000000B7
:1059F0000000000000F00019F8001B180022080049
:105A00002608002408002410003FF8001FF80000BA
:105A10000800001800000004000007FFF80FFFF066
:105A20000018180010080020080020080030180096
:105A30001FF0000FC00000000000000007C0001FA2
:105A4000F0001830002008002008002008003C0862
:105A5000001C1000006000000000000000000000BA
:105A600007C0001FF00038180020080020080020A0
:105A70000804101007FFF80FFFF0000010000000EE
:105A80000000000000000007C0001FF000123000FE
:105A90002218002208002208003208001E10000E02
:105AA0002000000000000000200000200800200866
:105AB00001FFF803FFF80620080420080420080767
:105AC000200003000000000000000000000E000E97
:105AD0006E001FF30031B10020B10020B100319100
