:020000040800F2
:10000000B8230020C101000841370008DD32000894
:100010003D370008E1070008595A000800000000B9
:10002000000000000000000000000000E94C000893
:10003000E5070008000000001D4A0008ED4C00081C
:10004000DB010008DB010008DB010008DB01000820
:10005000DB010008DB010008DB010008DB01000810
:10006000DB010008DB010008DB010008DB01000800
:10007000DB010008DB010008DB010008DB010008F0
:10008000DB010008DB010008DB010008DB010008E0
:10009000DB010008DB010008DB010008DB010008D0
:1000A000DB010008DB010008DB010008DB010008C0
:1000B000DB010008DB010008AD4D0008DB01000892
:1000C000DB010008DB010008DB010008CD4C000863
:1000D000DB010008DB010008DB010008DB01000890
:1000E000DB010008DB010008DB010008DB01000880
:1000F000DB010008DB010008DB010008DB01000870
:10010000DB010008DB010008DB010008DB0100085F
:10011000DB010008DB010008DB010008DB0100084F
:10012000DB010008DB010008DB010008DB0100083F
:10013000DB010008DB010008DB010008DB0100082F
:10014000DB010008DB010008DB010008DB0100081F
:10015000DB010008DB010008DB010008DB0100080F
:10016000DB010008DB010008DB010008DB010008FF
:10017000DB010008DB010008DB01000800000000D3
:10018000DB010008DB010008DB010008DB010008DF
:10019000DB010008DB010008DB010008DB010008CF
:1001A000DB010008DB010008DB010008DFF80CD0F0
:1001B00000F06AFA004800477D5A0008B823002082
:1001C0000648804706480047FEE7FEE7FEE7FEE7F1
:1001D000FEE7FEE7FEE7FEE7FEE7FEE7994D0008D3
:1001E000AD0100082DE9F05F0546002092469B46D0
:1001F00088460646814640241BE02846414647463D
:10020000224600F06DF853465A46C01A914110D369
:1002100011461846224600F054F82D1A67EB0108E3
:100220004F4622460120002100F04BF817EB000951
:100230004E41201EA4F10104DFDC484631462A4627
:10024000434600F000B830BCBDE8C09FD2B201E028
:1002500000F8012B491EFBD270470022F6E710B5CB
:1002600013460A4604461946FFF7F0FF204610BD24
:1002700000F0004230F000400AD0C10D01F560717D
:10028000C0F3160042EA0151C2084007114370470B
:1002900000200146704730B50B4601460020202261
:1002A000012409E021FA02F59D4205D303FA02F583
:1002B000491B04FA02F52844151EA2F10102F1DCE3
:1002C00030BD202A04DB203A00FA02F100207047FA
:1002D0009140C2F1200320FA03F319439040704784
:1002E000202A04DB203A21FA02F00021704721FA8B
:1002F00002F3D040C2F120029140084319467047F2
:100300002DE9FE4F804681EA0300C00F0C460090A5
:1003100021F0004123F00045B8EB0200A94105D2CD
:100320004046214690461C460B46024623F00040BC
:10033000104347D0270DC7F30A00C3F30A510290B8
:10034000401A019040286BDAC3F3130040F4801B7D
:100350000098924620B10023D2EB030A63EB0B0B0B
:1003600001985946C0F140025046FFF7AAFF0646E1
:100370000D4650465946019A00F098F910EB0800D6
:100380006141002487EA115284EAE7731A4340D09E
:10039000009A62B3019A012A4FEA075215DC001B4A
:1003A00061EB02014FF0004202EA0752CDE9004240
:1003B000001C41F5801132462B4600F098F903B03D
:1003C00000F045B840462146F9E7001B61EB020109
:1003D000001C41F5801300185B412018A2F500179E
:1003E00047EB030140EAD570B6196D4111E06D0885
:1003F0004FEA360645EAC0754FEA0752001B61EB2B
:100400000201001C41F5801149084FEA3000001933
:10041000514132462B4603B000F01CB800F058B9E9
:100420000098012240000023D0EB020263EBE0734E
:10043000009821464FEAE074B8EB000061EB04013C
:10044000E9E783F000435BE781F0004158E730BC07
:10045000BDE8C08F30BCBDE8C04FFFF7DFBF2DE95E
:10046000FE4F81EA030404F0004421F000410094AF
:100470004FF0000B23F0004350EA01045ED052EA33
:1004800003045BD0C3F30A54C1F30A552C44A4F20D
:10049000F3340194A0FB0254C1F3130141F4801121
:1004A000C3F3130343F4801301FB024400FB034E28
:1004B000840A970A44EA815447EA8357A4FB0768F1
:1004C00002958D0A05FB07854FEA932C04FB0C541B
:1004D0002705029D4FEA065847EA1637B5EB08058F
:1004E0006EEB070C870E920E47EA811742EA8312E1
:1004F000A7FB0201B6EB0B0164EB00042B0D43EAF2
:100500000C335E1844EB1C50DA465146E7FB0201FF
:10051000C5F313044FEA0B3343EA14534FEA043292
:10052000019C43EA0603A4F10C040294009CCDE96B
:1005300000B400F0DCF803B000F003B8002001467E
:10054000F9E730BCBDE8C08F2DE9F04D81EA030426
:1005500004F0004B21F0004514464FF0000A23F050
:10056000004150EA050220D054EA01021DD0C5F333
:100570000A570246C5F31303C1F31300C1F30A5629
:1005800040F4801543F48013A7EB0608101BD646F1
:1005900008F2FD3873EB050002D308F1010801E011
:1005A00092185B41B8F1000F03DA00200146BDE864
:1005B000F08D00204FF48011064684460EE0171B94
:1005C00073EB050705D3121B63EB050306434CEAE7
:1005D000010C49084FEA300092185B4150EA0107CC
:1005E000EDD152EA030012D082EA040083EA050149
:1005F000084305D0101BAB4106D20122002306E0C0
:1006000000224FF0004302E06FF0010253101AEB9A
:1006100006004CEB085110EB0A0041EB0B01BDE862
:10062000F04D00F055B8C1F30A52C1F3130140F286
:10063000FF3341F480119A4202DA002001467047EC
:1006400040F233439A42A2F2334202DC5242FFF7B5
:1006500047BEFFF736BE000030B5041E71F100043E
:1006600004DB4FF00044404264EB0101141E73F1BF
:10067000000405DB1C464FF00043524263EB0403C9
:10068000994208BF904230BD064C074D06E0E06835
:1006900040F0010394E8070098471034AC42F6D3C9
:1006A000FFF788FD207D0008407D0008202A06DB3A
:1006B000CB17203A41FA02F043EAE07306E041FA30
:1006C00002F3D040C2F1200291400843194670471E
:1006D00010B5141E73F1000408DA401C41F100014A
:1006E00092185B411A4301D120F0010010BD2DE9A1
:1006F000F04D92469B4611B1B1FA81F202E0B0FA98
:1007000080F220329046FFF7DCFD04460F4640EAB7
:100710000A0041EA0B0153465A46084313D01146DA
:1007200053EA010019D0C8F140025046FFF7D8FD46
:1007300005460E46504659464246FFF7C2FD08435D
:1007400005D0012004E020463946BDE8F08D0020A8
:10075000054346EAE0762C4337430A986305E40AEA
:10076000A0EB08000022FD0A44EA47540A3002D5F3
:1007700000200146E9E7010510196941DDE9084556
:1007800000196941BDE8F04DA2E770B58C1810F86A
:10079000015B15F0070301D110F8013B2A1106D1C6
:1007A00010F8012B03E010F8016B01F8016B5B1EE0
:1007B000F9D12B0705D40023521E0DD401F8013BBB
:1007C000FAE710F8013BCB1A921C03E013F8015B27
:1007D00001F8015B521EF9D5A142D8D3002070BDAB
:1007E000FEE7000070470000EFF3108072B600BF14
:1007F000FEE7000080B590F82510022922D101689B
:10080000D0F838E0D0E910C30A68BEF1000F22F03A
:100810000E020A600A6822F001020A6003F01C015D
:100820004FF0010202FA01F1CCF804104FF0000180
:1008300080F8252080F8241001D0F04700210846D8
:1008400080BD00BF0421C163012080BDB0B5044656
:1008500000F0F4F8054640F20400C2F2000000780F
:10086000611C18BF044400BF00F0E8F8401BA04220
:10087000FAD3B0BD2DE9F04F82B00D68002D00F025
:10088000CB8041F6004400F13847C4F6000408224A
:100890004FEAB726A04208BF0722072E38BF4FEA0B
:1008A000B722002401274FF0000E0026009209E035
:1008B0000D68013635FA06F20EF1040E04F1020459
:1008C00000F0AA8007FA06FB15EA0B08F0D0D1F871
:1008D00004A003220AF0030CACF10105A240012D93
:1008E0006FEA020910D88268CD6802EA0902A540C1
:1008F0002A4382604268CAF3001522EA0B02B5401F
:100900002A43426006E000BFBCF1030F02D14FF062
:10091000030C21E0C2688D6802EA0902A5402A435F
:10092000BCF1020FC26017D16FF0030202EA560257
:1009300002440EF01C030F25D2F820C005FA03FA7A
:100940000D692CEA0A0C05FA03F343EA0C0313625F
:10095000D1F804A00AF0030C02680CFA04F302EACE
:1009600009021A431AF4403F0260A1D041F2600329
:10097000C4F202031A6840F2004942F001021A6010
:100980001A68C4F2010902F001020192019A26F0EC
:1009900003024FF6084A4A44CFF6FF7A52F80AC0DB
:1009A0000EF00C050F23009FAB402CEA030307FA5F
:1009B00005F52B4342F80A30D9F808C04B684CEAD9
:1009C0000805DA0258BF2CEA080540F20C4CC9F8B9
:1009D0000850C4F2010CDCF800209F0242EA08052E
:1009E00058BF22EA0805CCF80050D9F804209D032E
:1009F00042EA080758BF22EA0807C9F80470D9F884
:100A00000020DB0342EA080758BF22EA0807C9F8BA
:100A1000007001274CE700BF02B000F000B830BC06
:100A2000BDE8C08F0069084018BF01207047000072
:100A30001823002A08BF2823C150704741F6B07020
:100A4000C2F200000068704740F2040041F6B07145
:100A5000C2F20000C2F2000100780A681044086087
:100A60007047000080B5032000F08CF8002000F0F3
:100A700009F800281CBF012080BD00F029F80020E3
:100A800080BD000070B540F20406C2F20006317865
:100A9000E1B1044641F24440C2F200004FF47A72E0
:100AA0000068B2FBF1F1B0FBF1F001F015FB0F2C87
:100AB0004FF0010508D838B94FF0FF302146002229
:100AC000002500F033F87460284670BD012070BD29
:100AD00082B041F25800C4F20200816841F0010185
:100AE0008160816801F0010101910199016841F083
:100AF00080510160006800F080500090009802B0C2
:100B000070470000002848BF7047C1B200F01F00C6
:100B1000012202FA00F04EF20012CEF2000242EA86
:100B2000D10121F0030108607047000010B54EF6B6
:100B30000C5CCEF2000CDCF80030C3F3022E8EF019
:100B40000704042C28BF0424BEF103034FF0FF3E2A
:100B50000EFA04F438BF0023A14399400EFA03F3C0
:100B60009A43114300F00F0200F160430901043A77
:100B700003F564436244002848BF02F10C03197076
:100B800010BD00004EF60C51CEF200010A684FF67F
:100B9000FF031A4060F30A2242F0806040F0FD70CB
:100BA0000860704701220168C0F80025002280F823
:100BB000F424886940F000608861486D40F08050FE
:100BC00040F0030200204A65704700002DE9F04F15
:100BD0008BB0002800F086800446056890F8BD04BC
:100BE00028B9002084F8BC04204600F095F80320C2
:100BF00084F8BD04E86BC0055CBF0020206120685C
:100C000004F0F0FE206804F11C0A0A90D4E90C50AC
:100C100004F1040E9AE8C0079EE80E58CDE908508A
:100C200003A880E8C0030A988DE80058CDF81CA0FE
:100C300004F012FC002852D120680021002504F0A5
:100C4000D9FE616861B301200023002203EBC303D6
:100C500004EB830787F83C20D3B20132A7F8443075
:100C6000D3B2994287F83D0087F84050C7E9125542
:100C70007D65EBD800200023002200BF03EBC303F7
:100C800004EB830787F87C220132D3B2994287F8BC
:100C90007D0287F88002C7E9A200C7F89402EDD868
:100CA000A06822680A90D4E90C5004F1140E04F1F3
:100CB000240AD4E903379EE840589AE80007CDE9B2
:100CC000085002A880E8005810460A9ACDE900763C
:100CD000CDE90589CDF81CA004F04CFC30B1022010
:100CE00084F8BD0401200BB000F013B8002084F894
:100CF0003800012084F8BD04606A012802D1204632
:100D0000FFF750FF206804F025FC00200BB000F036
:100D100000B830BCBDE8C08F70B5AAB0044602A8C8
:100D200020306C21FFF799FA2068B0F1A04F01D074
:100D30002AB070BD4FF4005002904FF080601E90BA
:100D40000120CDE90300182005904FF48010022403
:100D5000099002A8CDE90644089400F0C3F80028E1
:100D600018BFFFF741FD41F24C05C4F202052868A7
:100D7000002640F001002860286800F0010025905E
:100D800025984FF4E850CDE92504032028900A2047
:100D900025AC29904FF0904021462796FFF76AFD39
:100DA0004FF40070CDE925064FF09040214627967C
:100DB000FFF760FD286840F480502860286800F440
:100DC000805001900198E868C00011D4E86840F0B4
:100DD0008050E860E86800F080500190019800F0D1
:100DE0005BF8E86820F08050E8602AB070BD00BF72
:100DF00000F052F82AB070BD47F20001C4F20001C1
:100E00000A68B0F5007F02F4C06031D1B0F5007F10
:100E10002CD00868012262F34A20086041F2444065
:100E2000C2F200000068322250434DF68362C4F2E1
:100E30001B32A0FB0202900C4A69520511D5421CDC
:100E40000FD04A6952050CD558B14A69520508D5E8
:100E5000012806D04A69520503D50228A0F10400F2
:100E6000EAD14869400544BF03207047002070471D
:100E7000B0F5806FFAD00868022262F34A20086059
:100E80000020704747F20400C4F20000016841F4FA
:100E9000007101607047000047F20400C4F20000D6
:100EA000016841F4806101607047000047F2000072
:100EB000C4F20000006800F4C060704747F2000010
:100EC000C4F20000016841F48071016070470000C5
:100ED00041F20000C4F20200016841F00401016027
:100EE000704700002DE9F04782B00446407841F297
:100EF00088070007C4F2020730D5A06E4FEAB05150
:100F000003290BD8DFE801F002101C25201D002169
:100F100003F086FD064670B91AE000BF012660782E
:100F2000C0060BD51EE000BF04F12000002103F035
:100F30002DFE064660B16078C00613D4B2464EE07E
:100F400057F87C1C41F4803147F87C1C01E000BF5D
:100F5000A06E396821F440010843386000266078AB
:100F6000C006EBD5E06E4FEA306003280AD8B246DF
:100F7000DFE800F002102216201D002103F050FDD2
:100F80000DE000BF4FF0010A4FF00108A078800784
:100F90000DD528E004F12000002103F0F7FD824682
:100FA000BAF1000FD04612D0A07880071BD4C246F9
:100FB0002168C80768D08AE057F87C0CB24640F434
:100FC000803047F87C0CBAF1000FD046ECD138687D
:100FD000E16E20F0407008434FF0000A3860B046E0
:100FE000A0788007E3D557F8300C10F080590BD16A
:100FF00057F8300C40F0805047F8300C57F8300C60
:1010000000F080500190019847F20005C4F20005FD
:10101000286840F480702860FFF710FD064600BF86
:101020002868C00508D4FFF709FD801B0228F7D9FE
:101030004FF0030A22E000BFBAF1000F1ED1B868DA
:1010400010F4407012D0D4F8881088420BD0B868E1
:10105000B96820F4407041F48031B960B96821F476
:101060008031B960B860C00740F02681B868D4F814
:10107000881020F440700843C246B860B9F1000FF0
:101080001CD02168C80722D1880728D448072ED44D
:10109000080734D4C8063AD4880640D4880546D414
:1010A00048054CD4480652D4080658D4C8055ED426
:1010B000C80264D488046AD47BE000BF57F8300CBF
:1010C00020F0805047F8300C2168C807DCD0386821
:1010D000A26B20F00300104338608807D6D538682B
:1010E000E26B20F00C00104338604807D0D5386818
:1010F000226C20F03000104338600807CAD53868E9
:10110000626C20F0C00010433860C806C4D538684F
:10111000A26C20F44070104338608806BED5386851
:10112000E26C20F44060104338608805B8D5386818
:10113000226E20F44020104338604805B2D538684C
:10114000626E20F44010104338604806ACD5386811
:10115000226D20F44050104338600806A6D5386848
:10116000626D20F4404010433860C805A0D538684F
:10117000A26D20F4403010433860C8029AD57869D7
:10118000E26D20F0030010437861880411D53A68BD
:10119000206F22F040620243B0F1806F3A601DD0B0
:1011A000B0F1006F05D157F87C0C40F4801047F87F
:1011B0007C0C080326D53A68606F22F04062024337
:1011C000B0F1806F3A6015D0B0F1006F1AD157F8C6
:1011D0007C0C40F4801047F87C0C13E0201D0121AA
:1011E00003F01EFC2168002818BF82460803E2D4E1
:1011F00008E000BF201D012103F012FC2168002837
:1012000018BF8246480311D53A68A06F22F04062A9
:101210000243B0F1806F3A601CD0B0F1006F05D18D
:1012200057F87C0C40F4801047F87C0C480425D516
:101230003968E06F21F040510143B0F1005F39603F
:1012400014D0B0F1805F19D1201D022103F0E8FB1A
:1012500011E000BF201D012103F0E2FB21680028FE
:1012600018BF82464804E3D408E000BF04F1200020
:10127000022103F08BFC002818BF8246206801047D
:1012800006D4C0030DD4504602B0BDE8F08700BFBD
:101290003968D4F8802021F0804111433960C003BF
:1012A000F1D53868D4F8841020F000400843386045
:1012B000504602B0BDE8F087FFF7C0FB064641F29A
:1012C00088354FF0030A00BFB86880073FF5CEAEFF
:1012D000FFF7B4FB801BA842F6D9CFE62DE9F04317
:1012E00081B000286BD042F20008C4F20208044624
:1012F000D8F800000D4600F0070088420CD2D8F85C
:10130000000020F007002843C8F80000D8F80000CB
:1013100000F00700A84252D1206841F2080910F0FD
:101320000201C4F202090DD0A268D9F8003003F01E
:10133000F0039A4206D9D9F8003023F0F0031A439B
:10134000C9F80020C2072DD169B1A168D9F80020E1
:1013500002F0F002914206D2D9F8002022F0F00209
:101360001143C9F80010D8F8001001F00701A94294
:101370000CD9D8F8001021F007012943C8F8001053
:10138000D8F8001001F00701A94218D141071BD479
:10139000000723D4D9F80000D9F8041010F00C008D
:1013A0002CD131E0606800285ED0022800F07E80F9
:1013B000032840F0818059F8081C890158D4012085
:1013C00001B0BDE8F08300BFD9F80010E26821F455
:1013D000E0611143C9F800100007DBD5D9F800001F
:1013E000216920F4605040EAC100C9F80000D9F832
:1013F0000000D9F8041010F00C0005D00C2829D1F9
:1014000001F00301012925D159F8081C090703D46B
:10141000D9F88C10090A02E059F8081C090946F2AB
:10142000205201F00F01C0F6000252F821100028EE
:101430000A4618BF00220C2871D1D9F8040000F028
:101440000300022846D0032804BF41F20021C0F265
:101450007A0143E0042857D008285BD141F20022EA
:10146000C0F27A025BE000BF59F8081C8907A6D5D4
:10147000D9F8001021F003010843C9F80000FFF774
:10148000DDFA064641F28837D9F80000616800F0BD
:101490000C00B0EB810F15D0FFF7D0FA801BB842DB
:1014A000F2D9032001B0BDE8F08300BF59F8081C51
:1014B00089037FF584AFDBE759F8081C49057FF500
:1014C0007EAFD5E7206800F0020100297FF43DAF30
:1014D00049E700BF42F20041C0F2F401D9F804002C
:1014E000D9F80420C0F30210C2F306225143D9F800
:1014F00004200130B1FBF0F0C2F34161022202EBA3
:101500004101B0FBF1F20AE042F20042C0F2F40203
:1015100005E000BF002200210C283FF48EAFD9F86F
:10152000000046F20851C0F30310C0F60001085C49
:1015300000F01F0022FA00F140F20800C2F20000A1
:1015400041F244420068C2F20002116001B0BDE8FD
:10155000F043FFF797BA000041F24440C2F20000A6
:101560000068704741F2444041F20801C2F20000B5
:10157000C4F202010068096846F21852C1F3022160
:10158000C0F60002515C01F01F01C8407047000026
:1015900041F2444041F20801C2F20000C4F20201EB
:1015A0000068096846F21852C1F3C221C0F6000271
:1015B000515C01F01F01C8407047000041F20C016E
:1015C000C4F2020151F8040C10F00C02086805D0B6
:1015D0000C2A29D100F00300012825D151F80C0C68
:1015E000000703D4D1F88800000A02E051F80C0C7F
:1015F000000946F2205300F00F00C0F6000353F834
:101600002030002A184618BF00200C2A18BF704747
:10161000086800F00300022810D0032804BF41F23C
:101620000023C0F27A030DE0042A1FD0082A23D138
:1016300041F20020C0F27A00704700BF42F200433E
:10164000C0F2F40308680A68C0F30210C2F306226D
:10165000096801305A43B2FBF0F0C1F34161022244
:1016600002EB4101B0FBF1F0704700BF42F20040D5
:10167000C0F2F400704700BF00200023C5E700005F
:101680002DE9F04383B0002800F03C8341F20006CE
:101690000446C4F20206B068F168227800F00C0932
:1016A000D00601F003081DD42078C00700F0818027
:1016B000B9F1080F76D0B9F10C0F08BFB8F1030FDC
:1016C00070D06068B0F5803F07D0B0F5A02F40F033
:1016D0004F82306840F480203060306840F48030C1
:1016E000306050E2B9F1000F1ED0B9F10C0F08BF05
:1016F000B8F1010F18D0A1693068002900F0968177
:1017000040F001003060FFF799F905463068800726
:1017100000F19E81FFF792F9401B02284FF0030071
:10172000F4D903B0BDE8F0833068800703D5A06921
:10173000002800F0E782256A3068000700F13E814A
:10174000D6F89400000900F0F000854200F23C81D8
:101750003068B9F1000F40F008003060306820F0C8
:10176000F00040EA050030607068E16920F47F40D5
:1017700040EA0120706040F0B382B06DC00000F11B
:101780004F82B06D40F08050B065B06D00F0805079
:1017900002900298FFF78AFBB16D21F08051B1658C
:1017A00040E200BF3068800303D56068002800F085
:1017B000A982207880072DD5B9F1040F1CD0B9F18A
:1017C0000C0F08BFB8F1020F16D0E168306800298D
:1017D00000F0E88140F480703060FFF72FF9054693
:1017E000306840050FD4FFF729F9401B02284FF05D
:1017F0000300F5D995E700BF3068400503D5E068E0
:10180000002800F07F827068216920F0FE4040EAE5
:10181000016070602078000760D42078400775D49C
:101820002078800600F1AE80A06A002800F01083C6
:10183000022840F01F81F068E16A00F003028A424A
:1018400040F03081226B6FF00F0300F0700103EB6A
:101850000212914240F02681616B00F4FE42B2EB2D
:10186000012F40F01F81A16B00F07842B2EBC16FF5
:1018700040F01881E26B0023CFF6E07303EA0252D6
:1018800000F4C001A2F50012914240F00B81216CDE
:101890004FF07E4202EA016100F0C06001F17E413A
:1018A000884240F0FF803068800100F1D1823068CA
:1018B00040F080703060F06840F08070F060FFF7BA
:1018C000BDF804463068800100F1C282FFF7B6F827
:1018D000001B02284FF00300F4D922E76169D6F813
:1018E0009400002900F08C8040F00100C6F89400BC
:1018F000FFF7A4F8054600BFD6F8940080078CD403
:10190000FFF79CF8401B0228F6D92DE1B06D10F0CE
:10191000805808D1B06D40F08050B065B06D00F0D7
:1019200080500090009847F20007C4F20007386822
:10193000C00513D4386840F480703860FFF77EF833
:10194000054600BF3868C00508D4FFF777F8401B8C
:1019500002284FF00300F5D9E3E600BFA068012894
:1019600008D0052840F0E280D6F8900040F004004E
:10197000C6F89000D6F8900040F00100C6F890003C
:10198000E3E000BF616AD6F89800002900F0B88053
:1019900040F00100C6F89800FFF750F8054600BF78
:1019A000D6F8980080073FF53FAFFFF747F8401B98
:1019B00002284FF00300F3D9B3E600BF306800F00F
:1019C000F00085427FF6C4AEB06DC00000F18A80A1
:1019D000B06D40F08050B065B06D00F08050019067
:1019E0000198FFF763FAB16D21F08051B165B0F550
:1019F000007F00F07D80802D40F2E6800320EEE045
:101A000020F00100C6F89400FFF718F8054600BF63
:101A1000D6F8940080077FF500AFFFF70FF8401B62
:101A200002284FF00300F3D97BE600BF20F001004D
:101A30003060FFF703F80546306880077FF534AE65
:101A4000FEF7FCFF401B02284FF00300F4D968E6C4
:101A5000306840F0080030603068D4E9072120F099
:101A6000F00008433060706820F47F4040EA0220B4
:101A7000706019E6B9F10C0F00F04481306820F075
:101A800080703060FEF7DAFF044600BF30688001E6
:101A900040F1F280FEF7D2FF001B02284FF0030056
:101AA000F4D93EE6B9F10C0F00F02C81306840010A
:101AB0005CBF30685FEAC00000F12481306820F02C
:101AC00080703060FEF7BAFF05463068800140F153
:101AD0008181FEF7B3FF401B02284FF00300F4D9C9
:101AE0001FE600BFFFF7E2F9B0F5007F7FF483AF98
:101AF000812D73D30120A02D88BF02206FE000BF8D
:101B000020F00100C6F89800FEF798FF054600BFD8
:101B1000D6F8980080077FF587AEFEF78FFF401B51
:101B200002284FF00300F3D9FBE500BFD6F8901070
:101B3000002821F00101C6F89010D6F8901021F08D
:101B40000401C6F8901000F07B80FEF777FF054691
:101B500041F28837D6F89000800700F18380FEF7C5
:101B60006DFF401BB842F5D9032003B0BDE8F083F8
:101B70003168002821F480313160316821F48021FE
:101B8000316000F08580FEF759FF0546306880031C
:101B90003FF50FAEFEF752FF401B64284FF00300E5
:101BA000F4D9BEE520F480703060FEF747FF0546AB
:101BB000306840057FF52EAEFEF740FF401B02283F
:101BC0004FF00300F4D9ACE5A5F17000B0FA80F055
:101BD0004009802D08BF022001E000BF002042F232
:101BE0000001C4F202010A6822F0070202440A60FE
:101BF000096801F00701814240F08480306840F0BC
:101C0000080030603068D4E9072120F0F000084374
:101C10003060706820F47F4040EA022070605FE02E
:101C2000FFF744F9B0F5007F06D1812D40D30120A4
:101C3000A02D88BF022045E0802D3BD9032041E044
:101C4000FEF7FCFE054641F28837D6F89000800783
:101C500008D5FEF7F3FE401BB8424FF00300F4D95D
:101C60005FE500BFB8F1000F7FF4DAADB06D20F092
:101C70008050B065D4E500BFF0684FF6FC71CFF638
:101C8000EE610840F060002003B0BDE8F08300BFC3
:101C9000FEF7D4FE0546306880037FF58AADFEF777
:101CA000CDFE401B64284FF00300F4D939E500BF96
:101CB000002007E0A5F17000B0FA80F04009802D07
:101CC00008BF022042F20001C4F202010A6822F0B9
:101CD000070202440A60096801F00701814211D13C
:101CE000B068F16810F00C0005D00C282AD101F082
:101CF0000301012926D13168090707D4D6F89410C9
:101D0000090A05E0012003B0BDE8F0833168090944
:101D100046F2205201F00F01C0F6000252F82110E5
:101D200000280A4618BF00220C2837D1F06800F0BE
:101D30000300022810D0032804BF41F20021C0F2A2
:101D40007A010DE004281FD0082823D141F2002297
:101D5000C0F27A0222E000BF42F20041C0F2F40178
:101D6000F068F268C0F30210C2F306225143F26831
:101D70000130B1FBF0F0C2F34161022202EB4101FC
:101D8000B0FBF1F20AE000BF42F20042C0F2F402FE
:101D900004E000BF002200210C28C7D0B06846F242
:101DA0000851C0F30310C0F60001085C00F01F00EA
:101DB00022FA00F140F20800C2F2000041F244426F
:101DC0000068C2F200021160FEF75CFE00287FF49A
:101DD000A8AC69E4F06848F28C01C0F29D1104F1EE
:101DE0002C0700EA010C8ECF6FF00F00D4E90F54DE
:101DF00000EB02100022CFF6E07241EA0C0102EA89
:101E000005520843A2F500124FF07E4540EA032038
:101E100005EA0465104305F17E4540EAC7602843A2
:101E2000F060306840F080703060F06840F08070A2
:101E3000F060FEF703FE04463068800108D4FEF728
:101E4000FDFD001B02284FF00300F5D969E400BF37
:101E5000002003B0BDE8F08370470000B0B582B049
:101E6000044600684168826812F0400305D112F010
:101E7000010518BF11F0400512D1950708D511F0E2
:101E8000800505D0216D204602B0BDE8B04008476E
:101E900012F4B07F18BF11F0200507D102B0B0BD19
:101EA000E16C204602B0BDE8B0400847BBB194F8F1
:101EB0005D30032B08D100210191C1680191806838
:101EC0000190019802B0B0BD236E43F00403236675
:101ED00000230193C368019383680193019B12F06F
:101EE000200302F4807203D18AB9226EDAB9D5E7F1
:101EF000236E43F00103236600230193836801935B
:101F0000036823F040030360019B002AEDD0226E9A
:101F100042F0080222660022019282680192019A30
:101F2000226E002ABAD04268890722F0E00242609D
:101F30004FF0010284F85D2020D0416844F6D94575
:101F400021F003014160A06DC0F6000538B1856342
:101F5000FEF750FC18B1206E40F040002066606D26
:101F600000289BD08563FEF745FC00283FF496AF20
:101F7000206E40F04000206602B0B0BD204602B0A6
:101F8000BDE8B040FFF768BF002804BF01207047DC
:101F9000B0B50446406A28B10020206104F1140065
:101FA00006E000BF6068B0F5827F03D004F11C003A
:101FB000002101600025A56294F85D0020B920464B
:101FC00084F85C5000F04EF8022084F85D00206830
:101FD000D4F80CE00268BEF5E06F22F04002026027
:101FE0004EF4006298BF0125B2F5706F1CBF00234C
:101FF000A3624FEA053CD4E90135D4E9042103F496
:10200000827305F404452B4402F002021A44A369CA
:1020100001F00101E569114403F40072114405F077
:102020003802256A114405F08002A56A114405F4BE
:102030000052114301600421626A0EF4706501EAE6
:102040001341636B45EA0C0502F01002294303F0CB
:10205000080311431943416000200121206684F8E0
:102060005D10B0BD80B586B0006843F20001C4F2D7
:102070000101884202D006B080BD00BF41F24C0091
:10208000C4F20200416941F480514161416901F4A7
:10209000805101910199016841F0010101600068DE
:1020A000012100F0010001900198B0200190022070
:1020B0000290CDE903100520059001A94FF0904052
:1020C000FEF7D8FB232000210022FEF72FFD23205E
:1020D000FEF718FD06B080BD411E0020B0EB116F69
:1020E0001CBF012070474EF21002CEF20002516078
:1020F0004EF62351CEF20001F0230B7007219060C1
:102100001160704770470000704700007047000082
:1021100010B590F83C20012A4FF0020255D080F80B
:102120003D20026843F2004C5368D2F808E0C4F244
:10213000010C624505D042F60044C4F20104A242FB
:1021400003D14C6823F4700323430C6823F070031D
:10215000234340F6FF34C4F20004A242536011DD71
:1021600043F2FF33C4F201039A421BDC40F6004302
:10217000C4F200039A421DD042F60043C4F20103A8
:102180000DE000BFB2F1804F14D040F20043C4F222
:1021900000039A420ED040F60003C4F200039A42B4
:1021A00008D00CE044F20003C4F201039A4201D0CB
:1021B000624504D189682EF08003194391600121A2
:1021C000002280F83D1080F83C20104610BD000031
:1021D000002804BF0120704710B5044690F83D0068
:1021E00028B9002084F83C00204600F023F80220A3
:1021F00084F83D002068211D02F0DEFD012084F8F6
:10220000480084F83E0084F83F0084F8400084F8D9
:10221000410084F8420084F8430084F8440084F8C4
:10222000450084F8460084F8470084F83D0000200B
:1022300010BD000080B586B0006840F60002C4F210
:10224000000200219042CDE90411CDE90211019173
:1022500032D040F20041C4F2000188425ED0B0F1B9
:10226000804F59D141F25800C4F20200016841F098
:1022700001010160016801F001010091009950F82D
:102280000C1C41F0010140F80C1C50F80C0C01A989
:1022900000F00100009000980120019002200290BF
:1022A0000020CDE903000E2005904FF09040FEF78E
:1022B000E1FA06B080BD00BF41F25800C4F202004E
:1022C000026842F004020260026802F00402009216
:1022D000009A50F80C2C42F0080240F80C2C50F8F0
:1022E0000C0C00F00800009000984FF400400190A2
:1022F0000220CDE90201CDE9041040F60040C4F609
:10230000000001A9FEF7B6FA1E2000210022FEF708
:102310000DFC1E20FEF7F6FB06B080BD41F2580012
:10232000C4F20200016841F002010160006800F09F
:1023300002000090009806B080BD000090F83D10AB
:1023400001291CBF01207047022180F83D1001685F
:1023500040F6FF30C4F2000081420FDD43F2FF304F
:10236000C4F20100814219DC40F60040C4F20000D2
:1023700081421FD042F6004018E000BFB1F1804F0B
:1023800018D040F20040C4F20000814212D040F662
:102390000000C4F2000081420CD018E044F20000BA
:1023A000C4F20100814205D043F20040C4F20100B2
:1023B00081420CD188680722C0F201020240062A3D
:1023C0004FF0000008D0B2F5803F08BF70470868A2
:1023D00040F00100086000207047000090F83D10B8
:1023E00001291CBF01207047022180F83D100168BF
:1023F00040F6FF32C868C4F20002914240F001008A
:10240000C8600FDD43F2FF30C4F20100814219DCE5
:1024100040F60040C4F2000081421FD042F6004066
:1024200018E000BFB1F1804F18D040F20040C4F274
:102430000000814212D040F60000C4F20000814248
:102440000CD018E044F20000C4F20100814205D033
:1024500043F20040C4F2010081420CD18868072297
:10246000C0F201020240062A4FF0000008D0B2F587
:10247000803F08BF7047086840F0010008600020F6
:10248000704700000146006841F21113026A1A42C7
:1024900004D00122002081F83D207047026A40F2FA
:1024A00044431A42F5D1026822F00102026001227F
:1024B000002081F83D2070470146006841F2111369
:1024C000C26822F00102C260026A1A4204D00122EC
:1024D000002081F83D207047026A40F244431A42CE
:1024E000F5D1026822F0010202600122002081F889
:1024F0003D20704780B590F83C20012A4FF0020241
:1025000000F0C28080F83D20D0F800C08822DCF8BE
:102510000830CFF6FE721A40CCF808200B684F2B1B
:1025200028DC1F2B44DD202B45D0302B43D0402B03
:1025300040F0AC80D1F804E0C968DCF82030DCF869
:10254000202022F00102CCF82020DCF8182022F014
:10255000F00242EA011123F00A0242EA0E02CCF82C
:102560001810CCF82020DCF8081041F0470121F0C9
:10257000300180E06F2B27DDB3F5005F48D0B3F565
:10258000805F7AD0702B40F08180D1E901E3C96887
:10259000DCF8082043EA0E0322F47F4243EA0121DB
:1025A0001143CCF80810DCF8081041F0770162E024
:1025B0000BB1102B6AD1DCF8081021F0700119431F
:1025C00041F0070157E000BF502B35D0602B5DD1A3
:1025D000D1F804E0C968DCF8203023F01003CCF80F
:1025E0002030DCF81830DCF8202023F4704322F08F
:1025F000A00243EA013142EA0E12CCF81810CCF8DE
:102600002020DCF8081041F0670121F0100132E0D1
:10261000D1E901E3C968DCF8082043EA0E0322F49B
:102620007F4243EA01211143CCF80810DCF808107E
:1026300041F480411FE000BFD1F804E0C968DCF834
:102640002030DCF8202022F00102CCF82020DCF839
:10265000182022F0F00242EA011123F00A0242EAB5
:102660000E02CCF81810CCF82020DCF8081041F04D
:10267000570121F02001CCF808100022012180F838
:102680003D10002180F83C10104680BD0122F5E786
:1026900070470000F0B590F83C30012B04BF0220D9
:1026A000F0BD4FEAB202032A28D8DFE802F0032D7A
:1026B0004B6B00BF0368D1E900C5D1F80CE01A6A82
:1026C00040F6FF3722F001021A621A4652F8186FDC
:1026D0001C6AC4F20007BB427ADD43F2FF37C4F242
:1026E0000107BB4200F3828040F60047C4F20007B6
:1026F000BB4200F0878042F600477FE001210022C4
:1027000080F83C200846F0BD0368D1E900E6D1E935
:1027100002C11A6A360222F010021A621A4652F8F0
:10272000184F4FF2FF071D6ABE4324F4734461F350
:102730000F3646EA040125F0A0040EF00A0744EA29
:1027400007173CE00768D1E900C5D1E902313A6AD0
:1027500061F3071522F480723A623A4652F81C4F30
:102760003E6A24F0F30445EA040126F420660CF0E6
:102770000A0546EA052611603E62116821F00C0147
:10278000116050E00368D1E900E6D1E902C11A6A9C
:10279000360222F480521A621A4652F81C4F4FF247
:1027A000FF071D6ABE4324F4734461F30F3646EA03
:1027B000040125F420440EF00A0744EA07371160AB
:1027C0001F6211684FEA0C2321F4406111602AE076
:1027D000B3F1804F16D040F20047C4F20007BB426D
:1027E00010D040F60007C4F2000709E044F20007E9
:1027F000C4F20107BB4205D043F20047C4F201070F
:10280000BB4219D126F00306354324F00A070CF029
:102810000A066EF3071537449D611F629F6927F012
:102820000C079F618B681168194311600021002219
:1028300080F83C200846F0BD46F00105E5E70000C1
:10284000002804BF0120704710B5044690F83D00F1
:1028500028B9002084F83C00204600F023F802202C
:1028600084F83D002068211D02F0A6FA012084F8BA
:10287000480084F83E0084F83F0084F8400084F863
:10288000410084F8420084F8430084F8440084F84E
:10289000450084F8460084F8470084F83D00002095
:1028A00010BD00007047000010B5016804460869BB
:1028B000800744BFC8685FEA80703FD4086940075A
:1028C00044BFC8685FEA407044D40869000744BF49
:1028D000C8685FEA00704BD40869C00644BFC86886
:1028E0005FEAC06050D40869C0071CBFC8685FEACF
:1028F000C07057D10869000644BFC8685FEA00602D
:1029000058D40869C00544BFC8685FEA006059D45C
:102910000869400644BFC8685FEA40605AD4086945
:10292000800646BFC8685FEA806010BD6FF0200275
:1029300020460A61BDE81040FFF7E8BB6FF00200D7
:10294000086101202077886980074BD02046FFF777
:102950009FFE4DE06FF00400086102202077886937
:1029600010F4407F48D02046FFF792FE4AE000BFB7
:102970006FF00800086104202077C869800745D0FF
:102980002046FFF785FE47E06FF010000861082041
:102990002077C86910F4407F42D02046FFF778FEC8
:1029A00044E000BF6FF001000861204600F02EFBFC
:1029B00021689FE76FF0800008612046FFF7A4FBC5
:1029C00021689EE76FF4807008612046FFF79AFB4C
:1029D00021689DE76FF040000861204600F068FB29
:1029E00021689CE7204600F025F8204600F028FAF0
:1029F00021680020207761E7204600F01BF8204680
:102A000000F01EFA2168002020775EE7204600F0E3
:102A100011F8204600F014FA2168002020775BE7C7
:102A2000204600F007F8204600F00AFA216800204E
:102A3000207758E7704700002DE9F04190F83C30CE
:102A4000012B04BF0220BDE8F0814FEAB202052A43
:102A500000F27281DFE812F006005000A400F800D6
:102A60003401780103681A6AA3F1804622F001025A
:102A70001A621D6A1A465C6852F818CF8F68A6F56C
:102A80009636D1F800E025F002054FEAB626072E6B
:102A900045EA07050AD80127B74017F0E50F1FBF21
:102AA000CF6825F00C0527F004073D43072E0BD80F
:102AB000012707FA06F616F0E50F1FBF24F440744D
:102AC000D1E9056734433C434FF68C76CFF6FE766A
:102AD0000CEA060747EA0E075C609F614F680969C8
:102AE0005F631D629F6947F008079F619F6927F038
:102AF00004079F6165E100BF036843F200461A6A5C
:102B0000C4F2010622F010021A621D6A1A46D3F8B6
:102B100004C052F8188FB3428E68D1F800E025F057
:102B2000200545EA061505D042F60046C4F2010626
:102B3000B34207D1CE686FF0400725F0C00507EA21
:102B400006163543A3F18046A6F596364FEAB6261B
:102B5000072E0CD8012707FA06F616F0E50F1FBF5F
:102B6000D1E905672CF44064374344EA870C48F602
:102B7000FF44CFF6FF6404EA080444EA0E27C3F8D2
:102B800004C09F614F6809699F631D629F6947F494
:102B900000679F619F6927F480679F6110E100BF14
:102BA000036843F200461A6AC4F2010622F48072F6
:102BB0001A621D6A1A46D3F804C052F81CEFB342D9
:102BC0008E68D1F8008025F4007545EA062505D009
:102BD00042F60046C4F20106B34207D1CE6840F285
:102BE000FF47360225F44065BE433543A3F18046D6
:102BF000A6F596364FEAB626072E0CD8012707FA17
:102C000006F616F0E50F1FBFD1E905672CF4405416
:102C1000374344EA071C4FF68C74CFF6FE740EEA75
:102C2000040747EA0807C3F804C0DF614F68096971
:102C3000DF631D62DF6947F00807DF61DF6927F0A6
:102C40000407DF61BDE000BF03681A6AA3F1804793
:102C500022F480521A621A46A7F59637D3F82080DC
:102C60005D6852F81CCFD1F800E08E684FEAB727B4
:102C7000072F09D80124BC4014F0E50F1EBF4C6992
:102C800025F4804545EA841528F4005444EA0634C6
:102C900048F6FF46CFF6FF660CEA060747EA0E271E
:102CA0005D60DF614F6809691F641C62DF6947F47A
:102CB0000067DF61DF6927F48067DF6180E000BFC4
:102CC00003681A6AA3F1804722F480321A621A4616
:102CD000A7F59637D3F820805D6852F854EFD1F805
:102CE00000C08E684FEAB727072F09D80124BC40DF
:102CF00014F0E50F1EBF4C6925F4803545EA042524
:102D000028F4003444EA06444FF68C76CFF6FE767B
:102D100003360EEA060747EA0C075D605F654F68F9
:102D200009699F651C625F6D47F008075F655F6D0D
:102D300027F004075F6544E00121002280F83C2071
:102D40000846BDE8F08100BF03681A6AA3F1804716
:102D500022F480121A621A46A7F59637D3F820801B
:102D60005D6852F854EFD1F800C08E684FEAB7277B
:102D7000072F09D80124BC4014F0E50F1EBF4C6991
:102D800025F4802545EA842528F4001444EA0654F5
:102D900048F6FF46CFF6FF6606F540760EEA0607D0
:102DA00047EA0C275D605F654F680969DF651C6253
:102DB0005F6D47F400675F655F6D27F480675F654F
:102DC00009021368194311600021002280F83C2099
:102DD0000846BDE8F0810000002804BF01207047CC
:102DE00010B5044690F83D0028B9002084F83C0056
:102DF000204600F023F8022084F83D002068211DC1
:102E000001F0DAFF012084F8480084F83E0084F8DD
:102E10003F0084F8400084F8410084F8420084F8C0
:102E2000430084F8440084F8450084F8460084F8A0
:102E3000470084F83D00002010BD000070470000EE
:102E40007047000061B10A1F4FEAB202032A11D88D
:102E5000DFE802F00214181C00F13F0318E000BF85
:102E600090F83E20012A1CBF01207047022280F802
:102E70003E202CE000F143030AE000BF00F14003D4
:102E800006E000BF00F1410302E000BF00F1420391
:102E90001B78012B1CBF01207047032A08D8DFE8EC
:102EA00002F0030B0F1300BF022280F83F200EE058
:102EB000022280F843200AE0022280F8402006E047
:102EC000022280F8412002E0022280F842200268BB
:102ED00001F01F010120136A00FA01F18B43136214
:102EE000136A0B43A2F18041A1F596314FEAB1215B
:102EF000062913624AD8884010F0650F46D0506CFE
:102F000040F6FF31C4F2000140F400408A425064B0
:102F10000EDD43F2FF30C4F20100824216DC40F6BF
:102F20000040C4F2000082421CD042F6004015E08E
:102F3000B2F1804F16D040F20040C4F2000082424D
:102F400010D040F60000C4F2000009E044F2000096
:102F5000C4F20100824205D043F20040C4F20100F5
:102F600082420CD190680721C0F20101014006297C
:102F70004FF0000008D0B1F5803F08BF70471068DF
:102F800040F0010010600020704700BF42F6FF30A3
:102F9000C4F2010082420DDC40F2FF70C4F2000076
:102FA000824215DCB2F1804FDCD040F20040C4F226
:102FB0000000D5E743F6FF70C4F20100824213DC43
:102FC00042F60040C4F201008242C5D1CAE700BF08
:102FD00040F60000C4F200008242C3D040F6004038
:102FE000C4F20000BCE700BF44F20000C4F20100DC
:102FF0008242B7D044F60000C4F20100824202BF10
:10300000506C40F400405064B9E70000B0B582B0A5
:1030100041F25044C2F20004607800283ED02425DA
:10302000C4F2000529681EA002F0DCFD00206070DB
:1030300041F66470C2F20000FFF73EFA41F6CC6040
:10304000C2F20000FFF71EFA40F20040C4F6000092
:103050004FF480410022FDF7EBFC286848F21F5135
:10306000C5F2EB11A0FB01125109642201FB120110
:1030700041F24844C2F200040CA0217002F0B2FDFB
:1030800022781825362020210223009501F0A4FB88
:1030900002B0BDE8B04001F0BDB800BF02B0B0BDA5
:1030A000667265713A2025640A00000025640A00F2
:1030B00070470000B0B582B0A0B10446806F28B957
:1030C000002084F87400204600F056F82420A06701
:1030D0002068016821F001010160204601F080FFB5
:1030E000012803D1012002B0B0BD00BF606A10B159
:1030F000204601F001FF2068416821F490414160C1
:10310000816821F02A018160016841F001010160BC
:103110000020C4F88000FDF791FC216805460A688C
:1031200012070CD56FF07E4C20464FF400110022A0
:103130002B46CDF800C002F087F878B921680868FE
:1031400040070FD56FF07E4C20464FF480010022DF
:103150002B46CDF800C002F077F818B1032002B07A
:10316000B0BD00BF2020A067E0670020206684F883
:10317000740002B0B0BD000010B5A8B004466846A7
:1031800004308821FDF769F8206848F20001C4F294
:103190000001884202D028B010BD00BF202000905E
:1031A0006846FDF79FFE002818BFFDF71DFB41F2A2
:1031B0004C00C4F20200016941F0010101610169A2
:1031C00001F0010123912399016841F04001016060
:1031D000006800F0400023902398FDF753FE4FF461
:1031E000C070239002202490002025900320269078
:1031F0000820279041F60000C4F6000023A9FDF73F
:1032000039FB28B010BD00002DE9F04182B0044622
:10321000806F20280BD10D4600294FF001005AD0B5
:103220001746002A57D094F87400012804D10220D0
:1032300002B0BDE8F08100BF012084F874000020D6
:10324000C4F8800021209846A067FDF7F7FBA4F89A
:103250005070A4F85270A1680746B1F5805F01D1A3
:10326000206918B12E46002501E000BF002600208D
:1032700084F874000BE000BF35F8021B00266FF3E2
:103280005F210185B4F852000138A4F85200B4F867
:10329000520078B12046802100223B46CDF80080C4
:1032A00001F0D2FF78B92068002EE5D016F8011B96
:1032B000E7E700BF2046402100223B46CDF80080D2
:1032C00001F0C2FF20B1032002B0BDE8F08100BFD1
:1032D0002020A067002002B0BDE8F081FEE70000DA
:1032E0002DE9F04F87B04FF0000B41F24C00CDE9D3
:1032F00005BBC4F20200016841F0100101600168E1
:1033000001F0100101910199016841F0040101608F
:10331000016801F0040101910199016841F0800107
:103320000160016801F0800101910199016841F09B
:1033300001010160016801F0010101910199016839
:1033400041F002010160016801F00201019101995F
:10335000016841F008010160016801F00801019174
:103360000199016841F040010160006800F04000EF
:1033700001900198FDF786FD40F20048C4F6000870
:10338000404644F2A0010022FDF752FB08F5A0568A
:103390003046402100224FF0400AFDF749FB08F576
:1033A0000065284604210022FDF742FB4FF400503F
:1033B00002904FF4881002AFCDE9030B08F580604E
:1033C0003946FDF757FA4FF48140029001244046F8
:1033D0003946CDE9034BCDF814B0FDF74BFA4FF069
:1033E000200930463946CDE9029BCDF810B0FDF7F3
:1033F00041FA30463946CDE902A4CDE904BBFDF7D8
:1034000039FA0420CDE902040226284639460494FC
:103410000596FDF72FFA40463946CDE90294CDE9ED
:103420000446FDF727FA07B000F000B830BCBDE84D
:10343000C08F000080B541F6D80048F20001C2F20A
:103440000000C4F2000100234FF00C0C4FF4E132F5
:1034500080E80E00C0E90333C0E905C3C0E90833C2
:10346000FFF728FE002808BF80BDBDE88040FDF7BB
:10347000BBB9000080B541F6686043F20001C2F2BA
:103480000000C4F201014FF4827200234FF4407C2B
:103490004FF4802E80E80E1007210822C0E9043383
:1034A000C0E906E3C0E90833C0E90A31C0E90C32DB
:1034B000FEF76AFD002808BF80BDBDE88040FDF72B
:1034C00093B9000010B588B041F6CC600024C2F278
:1034D00000004FF080414FF0FF320394CDE90144EA
:1034E000C0E90014C0E9024204618461FEF770FE85
:1034F000002818BFFDF778F94FF40050CDE9040417
:1035000041F6CC60C2F2000004A9CDE90644FEF702
:10351000F1FF002818BFFDF767F900200190039024
:1035200041F6CC60C2F2000001A9FEF7F1FD0028CF
:1035300018BFFDF759F908B010BD0000B0B594B040
:1035400040F2004541F61870C4F200050021C2F2B5
:10355000000004220E91CDE90C11CDE90911CDE94D
:103560000711CDE90511CDE90311CDE90111C0E93C
:103570000051C0E9021201618161FEF729FE0028B5
:1035800018BFFDF731F94FF480500B9041F61870D9
:10359000C2F200000BA9FEF7ADFF002818BFFDF72F
:1035A00023F941F61870C2F20000FFF715FC00285D
:1035B00018BFFDF719F941F618700024C2F2000097
:1035C00008A908940A94FEF7A3FD002818BFFDF788
:1035D0000BF9602001900220CDE90204059441F628
:1035E0001874C2F2000401A920460022FFF724FA51
:1035F000002818BFFDF7F8F82068A84202D014B0E0
:10360000B0BD00BF41F24C00C4F20200016841F0BD
:10361000100101600068002100F010000F900F9869
:1036200008200F9002201090139041F20000CDE985
:103630001111C4F600000FA9FDF71CF914B0B0BDBC
:1036400010B58CB041F6647040F600020021C2F261
:103650000000C4F200024CF24F3340F2E7340B9109
:10366000CDE909110791CDE90511CDE90311CDE9A6
:103670000111C0E90023C0E9021401618161FEF774
:10368000A7FD002818BFFDF7AFF84FF48050089051
:1036900041F66470C2F2000008A9FEF72BFF002873
:1036A00018BFFDF7A1F841F66470C2F20000FFF701
:1036B000C7F8002818BFFDF797F841F6647000249A
:1036C000C2F2000005A905940794FEF721FD002829
:1036D00018BFFDF789F80120CDE9020441F66470B6
:1036E000C2F2000001A90C2201940494FEF7D2FF5B
:1036F000002818BFFDF778F80CB010BD80B541F672
:103700005C10C2F200004FF0A0410622C0E9001296
:1037100002210122002300F1180CC1608CE80E0088
:10372000C0E90932C0E90B23FDF750FA002808BFB1
:1037300080BDBDE88040FDF757B80000FEE70000FF
:10374000FEE7000041F258400021C2F200000022D2
:103750008318815402F58072B2F5806F1972197462
:10376000197683F8201083F8281083F8301083F836
:10377000381083F8401083F8481083F8501083F80D
:10378000581083F8601083F8681083F8701083F87D
:10379000781083F8801083F8881083F8901083F8ED
:1037A000981083F8A01083F8A81083F8B01083F85D
:1037B000B81083F8C01083F8C81083F8D01083F8CD
:1037C000D81083F8E01083F8E81083F8F01083F83D
:1037D000F810BDD100210022831802F58072B2F5E5
:1037E000806F597059725974597683F8211083F893
:1037F000291083F8311083F8391083F8411083F8C9
:10380000491083F8511083F8591083F8611083F838
:10381000691083F8711083F8791083F8811083F8A8
:10382000891083F8911083F8991083F8A11083F818
:10383000A91083F8B11083F8B91083F8C11083F888
:10384000C91083F8D11083F8D91083F8E11083F8F8
:10385000E91083F8F11083F8F910BDD1002100229E
:10386000831802F58072B2F5806F9970997299741D
:10387000997683F8221083F82A1083F8321083F89F
:103880003A1083F8421083F84A1083F8521083F8F4
:103890005A1083F8621083F86A1083F8721083F864
:1038A0007A1083F8821083F88A1083F8921083F8D4
:1038B0009A1083F8A21083F8AA1083F8B21083F844
:1038C000BA1083F8C21083F8CA1083F8D21083F8B4
:1038D000DA1083F8E21083F8EA1083F8F21083F824
:1038E000FA10BDD100210022831802F58072B2F5D2
:1038F000806FD970D972D974D97683F8231083F880
:103900002B1083F8331083F83B1083F8431083F8AF
:103910004B1083F8531083F85B1083F8631083F81F
:103920006B1083F8731083F87B1083F8831083F88F
:103930008B1083F8931083F89B1083F8A31083F8FF
:10394000AB1083F8B31083F8BB1083F8C31083F86F
:10395000CB1083F8D31083F8DB1083F8E31083F8DF
:10396000EB1083F8F31083F8FB10BDD10021002287
:10397000831802F58072B2F5806F19711973197589
:10398000197783F8241083F82C1083F8341083F807
:103990003C1083F8441083F84C1083F8541083F8DB
:1039A0005C1083F8641083F86C1083F8741083F84B
:1039B0007C1083F8841083F88C1083F8941083F8BB
:1039C0009C1083F8A41083F8AC1083F8B41083F82B
:1039D000BC1083F8C41083F8CC1083F8D41083F89B
:1039E000DC1083F8E41083F8EC1083F8F41083F80B
:1039F000FC10BDD100210022831802F58072B2F5BF
:103A0000806F597159735975597783F8251083F868
:103A10002D1083F8351083F83D1083F8451083F896
:103A20004D1083F8551083F85D1083F8651083F806
:103A30006D1083F8751083F87D1083F8851083F876
:103A40008D1083F8951083F89D1083F8A51083F8E6
:103A5000AD1083F8B51083F8BD1083F8C51083F856
:103A6000CD1083F8D51083F8DD1083F8E51083F8C6
:103A7000ED1083F8F51083F8FD10BDD10021002270
:103A8000831802F58072B2F5806F997199739975F8
:103A9000997783F8261083F82E1083F8361083F870
:103AA0003E1083F8461083F84E1083F8561083F8C2
:103AB0005E1083F8661083F86E1083F8761083F832
:103AC0007E1083F8861083F88E1083F8961083F8A2
:103AD0009E1083F8A61083F8AE1083F8B61083F812
:103AE000BE1083F8C61083F8CE1083F8D61083F882
:103AF000DE1083F8E61083F8EE1083F8F61083F8F2
:103B0000FE10BDD100210022831802F58072B2F5AB
:103B1000806FD971D973D975D97783F8271083F855
:103B20002F1083F8371083F83F1083F8471083F87D
:103B30004F1083F8571083F85F1083F8671083F8ED
:103B40006F1083F8771083F87F1083F8871083F85D
:103B50008F1083F8971083F89F1083F8A71083F8CD
:103B6000AF1083F8B71083F8BF1083F8C71083F83D
:103B7000CF1083F8D71083F8DF1083F8E71083F8AD
:103B8000EF1083F8F71083F8FF10BDD100F042BBAF
:103B90002DE9F04F85B041F24C00C4F202000168FB
:103BA000012241F08001016001684FF0200801F01E
:103BB0008001009100990168012541F00101016037
:103BC000016801F0010100910099016841F00401D0
:103BD0000160016801F0040100910099016841F061
:103BE00008010160016801F0080100910099016875
:103BF00041F0020101600068202100F00200009005
:103C000000984FF09040FCF713FF4FF09040802158
:103C100001228027FCF70CFF4FF090401021012279
:103C20004FF0100AFCF704FF40F20049C4F6000907
:103C300009F50064204604210122FCF7F9FE4846FC
:103C400020210122FCF7F4FE484680210122FCF7E6
:103C5000EFFE6E464FF0020B4FF090403146CDE93B
:103C600000850295CDF80CB0FCF704FE4FF09040B3
:103C70003146CDE90075CDE9025BFCF7FBFD4FF065
:103C800090403146CDE900A5CDE9025BFCF7F2FD9D
:103C9000CDE90075002748463146CDE90277FCF7AB
:103CA000E9FD0420CDE9000520463146CDE9025B5F
:103CB000FCF7E0FD48463146CDE90085CDE9025BE1
:103CC000FCF7D8FD204604210022FCF7B1FEC820F5
:103CD000FCF7BCFD204604210122FCF7A9FEAE2022
:103CE000002100F0E1FD0020002100F0DDFD1020AA
:103CF000002100F0D9FD4020002100F0D5FD8120F9
:103D0000002100F0D1FDCF20002100F0CDFDA12049
:103D1000002100F0C9FDC820002100F0C5FDA6204B
:103D2000002100F0C1FDA820002100F0BDFD3F20D2
:103D3000002100F0B9FDD320002100F0B5FD0020E6
:103D4000002100F0B1FDD520002100F0ADFD802064
:103D5000002100F0A9FDD920002100F0A5FDF120EF
:103D6000002100F0A1FDDA20002100F09DFD1220CD
:103D7000002100F099FDDB20002100F095FD40209E
:103D8000002100F091FD2020002100F08DFD022097
:103D9000002100F089FD8D20002100F085FD142018
:103DA000002100F081FDA420002100F07DFDA6206F
:103DB000002100F079FDAF20002100F075FD41F2F7
:103DC0005840C2F2000000214218475401F58071AA
:103DD000B1F5806F17721774177682F8207082F829
:103DE000287082F8307082F8387082F8407082F85B
:103DF000487082F8507082F8587082F8607082F8CB
:103E0000687082F8707082F8787082F8807082F83A
:103E1000887082F8907082F8987082F8A07082F8AA
:103E2000A87082F8B07082F8B87082F8C07082F81A
:103E3000C87082F8D07082F8D87082F8E07082F88A
:103E4000E87082F8F07082F8F870BDD1002100228D
:103E5000831802F58072B2F5806F597059725974E7
:103E6000597683F8211083F8291083F8311083F8EC
:103E7000391083F8411083F8491083F8511083F802
:103E8000591083F8611083F8691083F8711083F872
:103E9000791083F8811083F8891083F8911083F8E2
:103EA000991083F8A11083F8A91083F8B11083F852
:103EB000B91083F8C11083F8C91083F8D11083F8C2
:103EC000D91083F8E11083F8E91083F8F11083F832
:103ED000F910BDD100210022831802F58072B2F5DD
:103EE000806F997099729974997683F8221083F88B
:103EF0002A1083F8321083F83A1083F8421083F8BE
:103F00004A1083F8521083F85A1083F8621083F82D
:103F10006A1083F8721083F87A1083F8821083F89D
:103F20008A1083F8921083F89A1083F8A21083F80D
:103F3000AA1083F8B21083F8BA1083F8C21083F87D
:103F4000CA1083F8D21083F8DA1083F8E21083F8ED
:103F5000EA1083F8F21083F8FA10BDD10021002294
:103F6000831802F58072B2F5806FD970D972D97456
:103F7000D97683F8231083F82B1083F8331083F855
:103F80003B1083F8431083F84B1083F8531083F8E9
:103F90005B1083F8631083F86B1083F8731083F859
:103FA0007B1083F8831083F88B1083F8931083F8C9
:103FB0009B1083F8A31083F8AB1083F8B31083F839
:103FC000BB1083F8C31083F8CB1083F8D31083F8A9
:103FD000DB1083F8E31083F8EB1083F8F31083F819
:103FE000FB10BDD100210022831802F58072B2F5CA
:103FF000806F197119731975197783F8241083F874
:104000002C1083F8341083F83C1083F8441083F8A4
:104010004C1083F8541083F85C1083F8641083F814
:104020006C1083F8741083F87C1083F8841083F884
:104030008C1083F8941083F89C1083F8A41083F8F4
:10404000AC1083F8B41083F8BC1083F8C41083F864
:10405000CC1083F8D41083F8DC1083F8E41083F8D4
:10406000EC1083F8F41083F8FC10BDD1002100227D
:10407000831802F58072B2F5806F597159735975C2
:10408000597783F8251083F82D1083F8351083F8BD
:104090003D1083F8451083F84D1083F8551083F8D0
:1040A0005D1083F8651083F86D1083F8751083F840
:1040B0007D1083F8851083F88D1083F8951083F8B0
:1040C0009D1083F8A51083F8AD1083F8B51083F820
:1040D000BD1083F8C51083F8CD1083F8D51083F890
:1040E000DD1083F8E51083F8ED1083F8F51083F800
:1040F000FD10BDD100210022831802F58072B2F5B7
:10410000806F997199739975997783F8261083F860
:104110002E1083F8361083F83E1083F8461083F88B
:104120004E1083F8561083F85E1083F8661083F8FB
:104130006E1083F8761083F87E1083F8861083F86B
:104140008E1083F8961083F89E1083F8A61083F8DB
:10415000AE1083F8B61083F8BE1083F8C61083F84B
:10416000CE1083F8D61083F8DE1083F8E61083F8BB
:10417000EE1083F8F61083F8FE10BDD10021002266
:10418000831802F58072B2F5806FD971D973D97531
:10419000D97783F8271083F82F1083F8371083F826
:1041A0003F1083F8471083F84F1083F8571083F8B7
:1041B0005F1083F8671083F86F1083F8771083F827
:1041C0007F1083F8871083F88F1083F8971083F897
:1041D0009F1083F8A71083F8AF1083F8B71083F807
:1041E000BF1083F8C71083F8CF1083F8D71083F877
:1041F000DF1083F8E71083F8EF1083F8F71083F8E7
:10420000FF10BDD100F006F805B000F000B830BCDA
:10421000BDE8C08F70B5B020002100F045FB002044
:10422000002100F041FB1020002100F03DFB41F295
:1042300058446FF00705C2F2000400BF6019007A0D
:10424000012100F031FB0835B5F57E7FF6D1B120B4
:10425000002100F029FB0020002100F025FB1020A8
:10426000002100F021FBE51F802600BF15F8080F94
:10427000012100F019FB013EF8D1B220002100F02D
:1042800013FB0020002100F00FFB1020002100F0A4
:104290000BFBA51F802600BF15F8080F012100F0B9
:1042A00003FB013EF8D1B320002100F0FDFA00200D
:1042B000002100F0F9FA1020002100F0F5FA651F46
:1042C000802600BF15F8080F012100F0EDFA013E2D
:1042D000F8D1B420002100F0E7FA0020002100F01E
:1042E000E3FA1020002100F0DFFA251F802600BF2E
:1042F00015F8080F012100F0D7FA013EF8D1B520DA
:10430000002100F0D1FA0020002100F0CDFA1020A9
:10431000002100F0C9FAE51E802600BF15F8080F3D
:10432000012100F0C1FA013EF8D1B620002100F0D1
:10433000BBFA0020002100F0B7FA1020002100F0A5
:10434000B3FAA51E802600BF15F8080F012100F062
:10435000ABFA013EF8D1B720002100F0A5FA002009
:10436000002100F0A1FA1020002100F09DFA013C8C
:10437000802500BF14F8080F012100F095FA013DD7
:10438000F8D170BD2DE9F04F85B0DD0801275E073B
:1043900018BF07EBD3055F0805FB07F63706039345
:1043A00000F00E81039B182B00F20A81039B01246D
:1043B00041F2000704FA03F3C0F201173B4200F098
:1043C000FF80203AD3B246F2505703EB4302C0F6C7
:1043D000000707EB820846F6C412C0F600025FFA37
:1043E00086FC4FF0000B019302EB03120B46009288
:1043F000049100BF039910290CD00C2946460CD01B
:10440000019946F6B47201EBC101C0F6000202EB5D
:10441000810100E0009901EB0B060290C1B241F26C
:104420005840DFB2C2F20000FA0800EBC10703F007
:104430000705B95C96F9006004FA05F521EA050A5A
:10444000002E48BF41EA050A03F10109049C5FFA06
:1044500089FE0398AEEB0401814207F802A000F048
:104460009F804FEADE055FFA86FA09F007017E5D5C
:10447000012202FA01F146EA01025FEA4A6458BFEA
:1044800026EA01029E1C049CF1B20C1B8442049C8F
:104490007A5500F08580CA0806F00701BE5C012548
:1044A00005FA01F146EA01055FEA8A6458BF26EA87
:1044B0000105DE1C049CF1B20C1B8442049CBD541B
:1044C0006ED0CA0806F00701BE5C012505FA01F1AD
:1044D00046EA01055FEACA6458BF26EA01051E1DC7
:1044E000049CF1B20C1B8442049CBD5458D0CA08F1
:1044F00006F00701BE5C012505FA01F146EA010557
:104500005FEA0A7458BF26EA01055E1D049CF1B2F9
:104510000C1B8442049CBD5442D0CA0806F007011B
:10452000BE5C012505FA01F146EA01055FEA4A741D
:1045300058BF26EA01059E1D049CF1B20C1B844263
:10454000049CBD542CD0CA0806F00701BE5C0125AE
:1045500005FA01F146EA01055FEA8A7458BF26EAC6
:104560000105DE1D049CF1B20C1B8442049CBD5469
:1045700016D0C90806F007027E5C012505FA02F292
:1045800046EA02055FEACA7408BF26EA0205083354
:10459000049EDAB2921B049C82427D540ED100BF6D
:1045A0000298234601300BF1010BBCF1010C08F11C
:1045B00001084FF001047FF41DAF01E00298F2E71B
:1045C00005B000F000B830BCBDE8C08F2DE9F04F59
:1045D00089B0DF080793069000F0F880079810383C
:1045E000C3B2400140EAD300C6B2062E00F2EE800C
:1045F0000120B04010F0470F00F0E8800798002538
:104600005043C0080090024606984FF0010E0596F0
:104610000BE000BF039F029D013F3A06019A05F19E
:10462000010502F1010200F0D1800192D3B240F203
:104630004442C2F2000202EB4329009A4FF0000B01
:10464000AB18DAB20492079A03970295A5E000BF6F
:10465000049A02EBC20540F26C12C2F2000202EBB5
:10466000C5055D4441F2584395F900C0C5B2CAB2D0
:10467000C2F20003D20803EBC50501F00706AF5CE8
:104680000EFA06F647EA060A5FEACC7808BF27EA80
:10469000060A05F802A04A1CD6B2F60802F0070284
:1046A000AF5D0EFA02F247EA02045FEA8C7358BF6C
:1046B00027EA02048A1CD3B2AC55DB0802F00702D9
:1046C000EC5C0EFA02F244EA02065FEA4C7758BF4D
:1046D00024EA0206CA1CEE54D3B2DB0802F0070239
:1046E000EC5C0EFA02F244EA02065FEA0C7758BF6D
:1046F00024EA02060A1DEE54D3B2DB0802F00702D8
:10470000EC5C0EFA02F244EA02065FEACC6758BF9C
:1047100024EA02064A1DEE54D3B2DB0802F0070277
:10472000EC5C0EFA02F244EA02065FEA8C6758BFBC
:1047300024EA02068A1DEE54D3B2DB0802F0070217
:10474000EC5C0EFA02F244EA02065FEA4C6758BFDC
:1047500024EA0206CA1DEE54D3B2DB0802F00702B7
:10476000EC5C0EFA02F224EA0207BCF1000F48BF2B
:1047700044EA0207EF540130069FC2B2079BD21BE6
:104780009A4204BF38460831089A059E0BF1010B86
:10479000013A09F101093FF43DAF089276B1012ECB
:1047A0003FF456AF022E4D467FF45CAF40F24422F8
:1047B000049BC2F2000202EBC31552E740F20C0266
:1047C000049BC2F2000202EB03154AE709B000F0B5
:1047D00000B830BCBDE8C08F2DE9F04F83B0002B8E
:1047E0005CD081460C981C464508981E01905842A2
:1047F00017468B4600265FFA80F842F2107A029242
:104800001FE000BF0120B7FBF0F04CF6CD41CCF625
:10481000CC41A0FB0112D10801EB8101A0EB4100CA
:1048200006FB059140F03002002808BF30220C9BA7
:10483000D2B2C8B25946FFF7A5FD0136F0B2A04288
:104840002CD2F043C1B24145DCD00199891BC9B2D9
:10485000032900EB040101D2012009E001F0FC0270
:10486000002301200433DFB2974200FB0AF0F9D1A4
:10487000029F11F00301C6D0012903D100EB800093
:104880004000C0E74FF47A72424302294FF06401BE
:1048900008BF00FB01F21046B5E700BF03B000F00F
:1048A00000B830BCBDE8C08FB0B540F20044C4F6DB
:1048B00000040A460546002920464FF0200118BF93
:1048C0000122FCF7B5F84FF0904010210022FCF7D0
:1048D000AFF84FF0904020210022FCF7A9F8EA0938
:1048E0004FF090408021FCF7A3F84FF0904020213A
:1048F0000122FCF79DF84FF0904020210022FCF7A8
:1049000097F8C5F380124FF090408021FCF790F8A3
:104910004FF0904020210122FCF78AF84FF09040A0
:1049200020210022FCF784F8C5F340124FF090409C
:104930008021FCF77DF84FF0904020210122FCF708
:1049400077F84FF0904020210022FCF771F8C5F372
:1049500000124FF090408021FCF76AF84FF0904031
:1049600020210122FCF764F84FF090402021002222
:10497000FCF75EF8C5F3C0024FF090408021FCF7D1
:1049800057F84FF0904020210122FCF751F84FF0EA
:10499000904020210022FCF74BF8C5F380024FF035
:1049A00090408021FCF744F84FF0904020210122F4
:1049B000FCF73EF84FF0904020210022FCF738F839
:1049C000C5F340024FF090408021FCF731F84FF0E2
:1049D000904020210122FCF72BF84FF0904020213D
:1049E0000022FCF725F805F001024FF090408021ED
:1049F000FCF71EF84FF0904020210122FCF718F838
:104A00004FF0904010210122FCF712F8204620219F
:104A10000122BDE8B040FCF70BB800007047000071
:104A2000F0B581B041F20007C4F20207FA680D4602
:104A30009107044614D0F868216800F0030088420A
:104A40004FF0010040F09F80002900F09C80F86842
:104A50006168C0F302100130884232D134E000BFF7
:104A6000206803280CD0022816D0012829D13968E3
:104A7000012211F0020182EA510116D120E000BFAB
:104A80003968890310D43968012211F4802182EA3F
:104A900091410AD114E000BF3968012211F480610C
:104AA00082EA912101D10BE00021FA6863686FF07E
:104AB0000F0622F0730206EB03131A431043F8604B
:104AC00011B1012001B0F0BD386820F0806038607D
:104AD000FBF7B4FF064600BF3868000106D5FBF7B8
:104AE000ADFF801B0228F7D944E000BF012D0DD097
:104AF000F5B9386948F2FF01C0F2FF710840D4E906
:104B0000021240EA012040EAC26022E048F2FF01BE
:104B10003869CFF6FF112269002301F1B461CFF6A5
:104B2000E0730840A16803EA0252A2F500120DE00A
:104B3000386948F2FF016269CFF6FF114FF07E43FA
:104B40000840A16803EA026202F17E4240EA0120C5
:104B500010433861386840F080603860FBF76EFFC2
:104B6000054600BF3868000108D4FBF767FF401B0B
:104B70000228F7D9032001B0F0BD00BFA069396950
:104B800008433861002001B0F0BD0000F0B581B0ED
:104B900041F20007C4F20207FA680D469107044685
:104BA00014D0F868216800F0030088424FF001003B
:104BB00040F08980002900F08680F8686168C0F3C1
:104BC00002100130884219D136E000BF2068032866
:104BD00018D002280AD0012810D13968012211F01A
:104BE000020182EA510108D019E000BF39680122B0
:104BF00011F4806182EA912111D1E9B1012001B063
:104C0000F0BD00BF3968890308D43968012211F466
:104C1000802182EA9141F0D001E000BF0021FA68D2
:104C200063686FF00F0622F0730206EB03131A435A
:104C30001043F8600029E1D1386820F080503860D6
:104C4000FBF7FCFE064600BF3868800006D5FBF780
:104C5000F5FE801B0228F7D92CE000BF7969A06817
:104C60004FEA002065B148F2FF02CFF6FF12114073
:104C700022694FF07E4303EA026202F17E4206E0BF
:104C800048F2FF02E368C0F2FF721140DA060843FF
:104C900010437861386840F080503860FBF7CEFEF2
:104CA000054600BF3868800008D4FBF7C7FE401BEC
:104CB0000228F7D9032001B0F0BD00BF606979690F
:104CC00008437861002001B0F0BD000041F6686043
:104CD000C2F20000FDF7C2B8806A0021A0F84610B9
:104CE000C187FDF7B9B8000070470000FBF7ACBE04
:104CF00010B596B005A804302421FBF7AEFA0024C5
:104D00004FF400700494CDE90244CDE90044FCF76F
:104D100073F828B1EFF3108072B600BFFEE700BF52
:104D2000FCF7CCF841F29000C4F20200016821F0D7
:104D30001801016014206021059001200D910221CD
:104D40000790CDE90B04CDE90F1011901920CDE9A2
:104D5000120105A8CDE91411FCF792FC20B1EFF384
:104D6000108072B6FEE700BF0F2000900320019074
:104D700000204FF480610290CDE9031068460321C2
:104D8000FCF7ACFA20B1EFF3108072B6FEE700BF7B
:104D9000FCF79EF816B010BD4EF68850CEF200001B
:104DA000016841F4700101607047000041F66470D1
:104DB000C2F20000FDF778BD80B540F6FF3302680F
:104DC000C4F2000398422DDCB0F1804F3CD040F299
:104DD0000043C4F20003984236D040F60003C4F208
:104DE0000003984230D042F6FF33C4F201039842E8
:104DF00034DD43F6FF73C4F2010398423EDD44F212
:104E00000003C4F20103984252D044F60003C4F2F6
:104E1000010398424CD044F20043C4F2010398428B
:104E200046D049E040F60043C4F2000398420BD05C
:104E300043F20043C4F20103984205D042F6004316
:104E4000C4F201039842CED14B6822F070021A439B
:104E500042F6FF33C4F201039842CADC40F2FF730A
:104E6000C4F20003984217DCB0F1804F20D040F22A
:104E70000043C4F2000398421AD01DE042F60043FA
:104E8000C4F20103984213D043F20043C4F2010379
:104E900098420DD010E000BF40F60003C4F20003BA
:104EA000984205D040F60043C4F20003984203D173
:104EB000CB6822F440721A434B6922F0800E8A6854
:104EC00043EA0E03D1F800C00360C262A0F1804241
:104ED000A2F596324FEAB222072AC0F828C007D8B6
:104EE000012303FA02F212F0E50F1CBF0969016306
:104EF0000121416180BD000080B5416ACA070DD122
:104F00008A0716D44A071FD40A0728D4CA0631D400
:104F10008A063AD44A0658D542E000BF0268D0F863
:104F200028C0536823F4003343EA0C0353608A0714
:104F3000E8D50268D0F82CC0536823F4803343EAE4
:104F40000C0353604A07DFD50268D0F830C05368BD
:104F500023F4802343EA0C0353600A07D6D5026882
:104F6000D0F834C0536823F4004343EA0C03536081
:104F7000CA06CDD50268D0F838C0936823F48053B0
:104F800043EA0C0393608A06C4D50268D0F83CC09B
:104F9000936823F4005343EA0C0393604A0614D544
:104FA0000268D0F840C05368BCF5801F23F480131A
:104FB00043EA0C03536008D1D2F804C0D0F844E0AF
:104FC0002CF4C00343EA0E035360090658BF80BDAA
:104FD0000168806C4A6822F400221043486080BD5A
:104FE000B0B5054605F108041ECC0068194341EA36
:104FF0000403D5F81CE0046846F6F311CEF6FF7101
:105000002140194341EA0E010160416848F2000C59
:1050100021F4405111434160AA69C4F2000C60457B
:105020001CBF296A0A438168102321F430611143AF
:10503000816044F6FF71C4F20001884218DC44F23A
:105040000041C4F20001884228D044F60001C4F2B5
:10505000000188422AD044F60041C4F2000188428F
:1050600042D141F28801C4F2020109688B0933E0A0
:1050700045F20001C4F2000188421FD0604525D0EE
:1050800043F60001C4F2010188422DD141F28801AA
:10509000C4F202010B6868A222E000BF41F288015D
:1050A000C4F2020109688B0816E000BF41F28801D2
:1050B000C4F2020109680B090EE000BF41F2880149
:1050C000C4F2020109680B0A06E000BF41F2880140
:1050D000C4F2020109688B0A47F61052C0F60002BA
:1050E00003F0030152F82130604542F20040C0F263
:1050F000F40015D0BEF5004F22D1082B4FF001016E
:1051000000F29580DFE803F0065460935893939380
:105110005E0000BFFCF726FA002855D14FE000BF23
:10512000082B4FF0010100F28280DFE803F00580D8
:1051300023801B8080802100FCF714FAD0B914E092
:10514000082B4FF0010100F27280DFE803F00553F5
:105150005F70577070705D00FCF704FA002855D13D
:105160004FE000BFFCF72AFA20B900215FE000BF42
:105170004FF400406A6802EB420188424FF001019F
:1051800055D31303984252D8010E000210EB52007F
:1051900041F100010023FBF725F84FF60052A0F57E
:1051A0004071C0F20F0291423BD301213FE000BFAA
:1051B000FCF7EEF940B902E0FCF700FA20B9002153
:1051C00035E000BF4FF4004069684A0802EB400038
:1051D000B0FBF1F04FF6EF72A0F11001914207D849
:1051E0004FF6F0710140C0F34200084419E000BFDF
:1051F00001211CE0FCF7CCF940B902E0FCF7DEF934
:1052000020B9002113E000BF4FF4004069684FF659
:10521000EF7200EB5100B0FBF1F0A0F110019142F0
:1052200004D82968C860002101E000BF01210022E4
:1052300008466A66AA66B0BD0100000004000000CE
:1052400002000000080000002DE9F041044600685B
:105250001546C2690E461140891BB1FA81F1490910
:10526000A94240F0A080DDF81880B8F1000F29D0E5
:1052700018F1010140F08080C1693140891BB1FA09
:1052800081F14909A94240F08E80C1693140891BF2
:10529000B1FA81F14909A94240F08580C1693140E4
:1052A000891BB1FA81F14909A9427CD1C169314018
:1052B000891BB1FA81F14909A942DDD00020BDE87E
:1052C000F08100BFFBF7BAFB206850E8000F2168AF
:1052D00020F4D07041E80002BAB3206850E8000F13
:1052E000216820F4D07041E8000272B3206850E8D1
:1052F000000F216820F4D07041E800022AB3206832
:1053000050E8000F216820F4D07041E80002002A24
:10531000DAD11AE0206850E8020F216820F001007D
:1053200041E80202DAB1206850E8020F216820F05B
:10533000010041E8020292B1206850E8020F2168A2
:1053400020F0010041E802024AB1206850E8020F53
:10535000216820F0010041E80202002ADAD1202071
:10536000A06704F17C0020210160002084F8740013
:105370000320BDE8F08100BF1F4600BFFBF75EFBC6
:10538000C01B4045A0D820680168490744BFC169D7
:105390005FEA01510AD4C0693040801BB0FA80F046
:1053A0004009A842EAD00020BDE8F0814FF4006136
:1053B000016200BF206850E8000F216820F4D0701F
:1053C00041E80002BAB3206850E8000F216820F4D9
:1053D000D07041E8000272B3206850E8000F2168E5
:1053E00020F4D07041E800022AB3206850E8000F92
:1053F000216820F4D07041E80002002ADAD11AE0D6
:10540000206850E8020F216820F0010041E8020204
:10541000DAB1206850E8020F216820F0010041E86D
:10542000020292B1206850E8020F216820F00100CA
:1054300041E802024AB1206850E8020F216820F0DA
:10544000010041E80202002ADAD12020A067E067CB
:1054500004F1800087E7000081B0C3680146079A25
:1054600040F6405043F04003C0F20300CB600023FD
:105470000093009B01330093009B83424AD80B6941
:10548000002B1BD4009B01330093009B834243D825
:105490000B69002B12D4009B01330093009B8342C5
:1054A0003CD80B69002B09D4009B01330093009B6F
:1054B000834235D80B69B3F1FF3FDADC0023009358
:1054C0000B6943F001030B61009B01330093009BC8
:1054D000834227D80B69DB0726D0009B013300935A
:1054E000009B834222D80B69DB0721D0009B01334C
:1054F0000093009B83421DD80B69DB071CD0009BE7
:1055000001330093009B834218D80B69DB07DBD182
:10551000002014E0032012E0032010E003200EE03E
:1055200003200CE003200AE0002008E0032006E04E
:10553000002004E0032002E0002000E003208B6B49
:10554000002A23F4803308BF03F580338B6301B056
:10555000704700000146D0F8000E20F00300C1F8AB
:10556000000ED1F8040840F002020020C1F804281F
:10557000704700002DE9F04F83B0DDF84CE00022C9
:10558000BEF1000FC0F80421C0F80821C0F80C21BA
:10559000C0F81021C0F81421C0F81821C0F81C214F
:1055A000C0F82021C0F82421C0F82821C0F82C21FF
:1055B000C0F83021C0F83421C0F83821C0F83C21AF
:1055C00006D0826B00F5006A42F40012826313E099
:1055D000D0F8042800F5006A42F00202C0F804285E
:1055E000826B22F400128263026842F04002026081
:1055F000026842F0800202600022C0F8002ED0F85B
:105600000078DDF83C90C0F80078D0F8007840F6DB
:105610004054C0F2030447F00307C0F80078019239
:10562000019A01320192019AA2424BD80269002AE2
:105630001BD4019A01320192019AA24242D8026916
:10564000002A12D4019A01320192019AA24239D859
:105650000269002A09D4019A01320192019AA242F8
:1056600030D80269B2F1FF3FDADC002201924FF438
:1056700084620261019A01320192019AA24221D808
:10568000026992061AD5019A01320192019AA24248
:1056900018D80269920611D5019A01320192019A35
:1056A000A2420FD80269920608D5019A01320192EE
:1056B000019AA24206D802699206DBD44FF0000B91
:1056C00002E000BF4FF0010B00220292029A013269
:1056D0000292029AA24247D80269002A1BD4029A77
:1056E00001320292029AA2423ED80269002A12D4E2
:1056F000029A01320292029AA24235D80269002A25
:1057000009D4029A01320292029AA2422CD802696A
:10571000B2F1FF3FDADC0022029210220261029A0B
:1057200001320292029AA2421ED80269D2061DD507
:10573000029A01320292029AA24215D80269D20656
:1057400014D5029A01320292029AA2420CD802693E
:10575000D2060BD5029A01320292029AA24203D8D3
:105760000269D206DBD401E04FF0010B4FF00008D4
:105770000029CAF81080CAF81480CAF81C8000F00A
:105780000281D0F800294FF0006707EA12124FF6A5
:105790007F334D1EC0F80029C0F81089C0F80839C1
:1057A0007AD08A1ECDF800B0032A05F0030B05D28B
:1057B0002027BBF1000F44D168E000BF25F00307AC
:1057C00000224FF090464FF67F3E4FF0000C00BF96
:1057D00000EB0C04D4F82099043F06EAE973C4F8FE
:1057E0002039C4F83029C4F828E9D4F840390CF13C
:1057F000800C06EAE373C4F84039C4F85029C4F8B1
:1058000048E9D4F8603906EAE373C4F86039C4F8AB
:105810007029C4F868E9D4F8803906EAE373C4F85B
:105820008039C4F89029C4F888E9D1D1DDF84CE07A
:10583000DDF83C900CF120074FF67F33BBF1000FF1
:1058400024D000F51066F4594FF0904C0CEAE47443
:10585000F219F45100264FF67F37BBF1010F1661A4
:10586000976013D0146ABBF1020F0CEAE47414625F
:10587000166397620AD0176C4FF0904606EAE777F6
:105880001764002717654FF67F379764DDF800B07F
:1058900000294FF0006776D0D0F8002B002D07EAE2
:1058A0001212C0F8002B4FF00002C0F8102BC0F805
:1058B000083B68D00239032905F0030C04D22022EA
:1058C000BCF1000F3AD15EE025F0030500224FF055
:1058D00090464FF67F3700214318D3F8204B043D04
:1058E00006EAE474C3F8204BC3F8302BC3F8287BD6
:1058F000D3F8404B01F1800106EAE474C3F8404B51
:10590000C3F8502BC3F8487BD3F8604B06EAE47425
:10591000C3F8604BC3F8702BC3F8687BD3F8804B97
:1059200006EAE474C3F8804BC3F8902BC3F8887B75
:10593000D2D101F12002BCF1000F24D000F5306378
:105940009E584FF0904707EAE67699189E50002639
:105950004FF67F32BCF1010F0E618A6013D00B6AE3
:10596000BCF1020F07EAE3730B620E638A620AD08E
:105970000A6C4FF0904303EAE2720A6400220A655F
:105980004FF67F328A64DAF8101043F6000221F4F1
:105990008071CAF810106FF08041C0F81880416122
:1059A0008169C8F23C0241F0100181618169B9F15D
:1059B000000F41EA0201816103D0816941F00801D1
:1059C0008161BEF1010F05D1816941F0804141F053
:1059D00004018161584603B000F000B830BCBDE856
:1059E000C08F00000146806820F0010200208A601C
:1059F00070470000B0B50446C06820F0C040E060C9
:105A000091B1012926D1E068002540F00050E06006
:105A10000120FAF71BFF6069C00705F1010014D1EE
:105A2000312D0546F4D310E0E068002540F08040B9
:105A3000E06000BF0120FAF709FF6069C00705F1C7
:105A4000010002D0312D0546F4D33238B0FA80F08F
:105A50004009B0BD0120B0BDFEE7000080B582B0B6
:105A6000019041F6D800C2F2000001A901224FF6D0
:105A7000FF73FDF7C9FB019802B080BD40F20045FD
:105A800040F628072424C4F60005C4F20007C4F237
:105A90000004FAF7E7FFFFF72BF9FDF721FCFDF70C
:105AA000C9FCFDF7E7FCFDF729FEFDF747FDFDF713
:105AB000C7FDFDF707FD42A000F014FDFEF768F8F2
:105AC00041F2504841F6CC6B41F6647605F58065AD
:105AD000C2F200084FF00009C2F2000BC2F2000649
