:020000040800F2
:1000000050050020B94000087D3F00087F3F0008F0
:1000100000000000000000000000000000000000E0
:10002000000000000000000000000000813F000808
:100030000000000000000000833F0008853F00082A
:100040006F16000843170008471C0008631D0008CE
:10005000532700084B330008AF3C0008E33C00087E
:100060006F4000087B400008A7400008DD40000802
:100070008D3F0008DF40000800000000E14000085C
:1000800000000000E3400008000000000000000045
:10009000E540000800000000E7400008E9400008D3
:1000A000EB400008ED400008EF400008F140000878
:1000B000973F0008F3400008F5400008F7400008AB
:1000C000F1B5A6B00E0015001F004C487844FF3073
:1000D0002D3003C824AA03C214ACA6600020E0623D
:1000E00001E000982D1800206946C88024AB00224A
:1000F000D243290001A8801C01F047F90090012893
:1001000005DA2878411E8941C943C90F0091684624
:10011000C0882528009800D1401E012811DB2E0040
:1001200004903178A068269A9047A060002800D1FA
:1001300007E1E06A401CE062761C0498401E0490CF
:10014000EFD16846C088252807D100206061A061F2
:10015000E06120626062A06208E06846C088002812
:10016000BFD1E06AEFE00100012008436D1C29784F
:100170002029F8D023290ED02B2904D02D2907D0EF
:1001800030290BD00DE001000220084380B2EDE7DA
:1001900001000420F9E701000820F6E70100102023
:1001A000F3E72A290FD1396839600A68091D3960D7
:1001B0006263002A05D551426163010004200843AF
:1001C00080B26D1C12E0002161630AE0626B844B17
:1001D0009A4205D093009A18520051183039616341
:1001E0006D1C29780A00303A0A2AEFD329782E2983
:1001F00006D00021C943216321E000BFBC3D0000BF
:100200006D1C29782A2907D1396839600A68091DC7
:10021000396022636D1C12E0002121630AE0226B29
:100220006F4B9A4205D093009A18520051183039FA
:1002300021636D1C29780A00303A0A2AEFD32087FF
:100240002E783100044878440E3001F0ACF80028D4
:1002500004D06D1C03E000BF683D000000263A207A
:100260002654205C682804D12978682901D16220AD
:1002700005E06C2806D128786C2803D171203A213A
:1002800060546D1C05A820612E786D1C3000253847
:100290002AD01C3800D1EAE0001F022800D8E6E08E
:1002A000133800D108E1093800D1E0E0801E00D108
:1002B0006CE1401E00D146E1401E022800D8D6E085
:1002C000001F00D13FE1401F00D1A2E0401E00D13D
:1002D000F2E0401E39D0C01E0BD0801E00D1EBE0F2
:1002E000C01E00D1E8E073E12520694608750120B1
:1002F00078E13A20205C6C283868386017D00168B3
:10030000001D3860E160266B002E03D5084601F021
:1003100054F80AE032000021E06801F056F80028A5
:1003200002D0E168401A00E03000A0615BE10268A1
:10033000001D386014A9269800F03CFA002800D46B
:1003400051E10020C04327B0F0BD38683860026832
:10035000001D38600020C0430021104014AA03C2D1
:1003600005A8E060206900903C2214A803C802ABF5
:1003700003C302A803C8002904D1002802D1206BBE
:1003800000281DD0521E02A803C80007000F3030FD
:10039000C0B23A2800DB27300099885402A803C86D
:1003A00000090B071843090902AB03C302A803C8DD
:1003B00001D1002804D0E068009989188842E1D36F
:1003C0003C20801AA06100998918E160216B884265
:1003D0000ADA081A2062208F02490140218702E1CF
:1003E000FFFFFF7FEFFF0000002900D4FBE0382172
:1003F000615C14220A40102A00D0F4E0616B62694B
:10040000891A226A891A0A1A012A00DAEBE02262A2
:10041000E9E03A20205C622819D0682806D06A28D2
:100420000CD06C281BD0712808D018E038683860D0
:100430000168001D3860E06A0880D4E038683860E0
:100440000268001D3860E06AC11703C2CBE038685B
:1004500038600168001D3860E06A0870C3E03868E1
:1004600038600168001D3860E06A0860BBE03A68E7
:10047000D21D072082433A6003CA3A6014AA03C21D
:10048000002902D560692D2109E0208F810702D55E
:1004900060692B2103E0C00705D56069202105AA0A
:1004A0001154401C606105A861694018E06031008A
:1004B00014A800F0A9FB96E03A20205C6C280BD031
:1004C000712801D06A2807D13A68D21D07208243DB
:1004D0003A6003CA3A6005E0396839600868091D66
:1004E0003960002114AA03C23A20205C682803D195
:1004F00014A803C880B20BE0622803D114A803C873
:10050000C0B205E0742801D07A2804D114A803C829
:10051000002114AA03C23820205C00072DD514A89E
:1005200003C8002901D1002827D020203043782893
:1005300023D16069302105AA1154401C411C61611E
:1005400005A90E5419E039003A20205C00F0FDF8AE
:1005500014AA03C2002902DA60692D2109E0208F64
:10056000810702D560692B2103E0C00705D56069CA
:10057000202105AA1154401C606105A8616940183A
:10058000E060310014A800F0A7FA2CE03A20205CCB
:100590006C2809D001206061386838600168001D4E
:1005A0003860684601751EE0386838600168001DD3
:1005B000386068460180002069464880C043206357
:1005C0006A4614A9269800F0F5F800280BD5B8E67D
:1005D00025206946087501206061300003D005A818
:1005E000467002206061606B6169401A216A401A9E
:1005F000A169401A616A401AE169401AA16A401A69
:1006000004903820205C400711D4202069460871EE
:10061000049801280BDB049E012301AA14A9269843
:1006200000F09BFE002800D08BE6761EF4D16069B6
:1006300005AE002810D000903178A068269A904727
:10064000A060002800D17CE6E06A401CE062761CD5
:100650000098401E0090EFD1302069460871266A4C
:10066000012E0ADB012301AA14A9269800F075FEC9
:10067000002800D065E6761EF4D1E668A06900285F
:1006800010D000903178A068269A9047A06000288A
:1006900000D156E6E06A401CE062761C0098401EDD
:1006A0000090EFD1302069460871666A012E0ADB9E
:1006B000012301AA14A9269800F04FFE002800D0BB
:1006C0003FE6761EF4D1E068A1694618E06900288B
:1006D00010D000903178A068269A9047A06000283A
:1006E00000D12EE6E06A401CE062761C0098401EB5
:1006F0000090EFD1302069460871A66A012E0ADB0E
:10070000012301AA14A9269800F027FE002800D092
:1007100017E6761EF4D13820205C400700D4E2E4CE
:100720002020694608710498012800DADBE4049E61
:10073000012301AA14A9269800F00FFE002800D07A
:10074000FFE5761E00D1CEE4F2E70A00622822D04F
:10075000682819D06A2808D06C2823D0712804D0C2
:1007600074281FD07A2808D01CE01368DB1D0720EE
:100770008343136003CB13607047116811600868EE
:10078000091D116000217047116811600868091D7A
:10079000116000B20BE0116811600868091D11605A
:1007A00040B204E0116811600868091D1160C117AA
:1007B00070470000F4B59AB007000C00206B0028C9
:1007C00000D50E48039000F00CFE616B08180690EF
:1007D00009487844223003C807AA03C23820205CA5
:1007E000400702D4069841280AD209A80290402066
:1007F00006900020059012E0D0370000FFFFFF7F39
:1008000000F0F4FD02900028F3D10020C04361E124
:100810001A98801C1A9003980199401A0390039823
:10082000012800DAD0E007AA1A98018800A8401C25
:1008300000F038FE0190002800D5E2E01A98008808
:10084000002804D10198401E019000D5D9E00398FA
:100850000199884200DAB7E060690699019A821826
:10086000914200D39FE0002161634142206A081A4F
:10087000A169401A616A401AE169401AA16A401AE6
:1008800004903820205C400711D42020694608706D
:10089000049801280BDB049D01236A4621003800DF
:1008A00000F05BFD002800D0ABE06D1EF4D166695E
:1008B000029D002E0CD02978A068B847A0600028BF
:1008C00000D19EE0E06A401CE0626D1C761EF2D111
:1008D000302069460870256A012D0ADB01236A462B
:1008E0002100380000F039FD002800D089E06D1E9D
:1008F000F4D1E568A669002E0BD02978A068B84726
:10090000A06000287DD0E06A401CE0626D1C761E6D
:10091000F3D1302069460870656A012D09DB012397
:100920006A462100380000F018FD002869D16D1ECC
:10093000F5D1E068A1694518E669002E0BD0297849
:10094000A068B847A06000285BD0E06A401CE06265
:100950006D1C761EF3D1302069460870A56A012D02
:1009600009DB01236A462100380000F0F6FC00286C
:1009700047D16D1EF5D13820205C400710D52020CE
:1009800069460870049801280ADB049D01236A4621
:100990002100380000F0E1FC002832D16D1EF5D1B5
:1009A000002005906061019A00A9491C02986369C2
:1009B000C01800F083FD60690199401860611A98C1
:1009C0000088002800D023E7059800287BD1606BC1
:1009D0006169401A216A401AA169401A616A401A85
:1009E000E169401AA16A461A3820205C400711D4F8
:1009F000012E0FDB35002021A068B847A060002839
:100A000003D10020C04305905DE0E06A401CE06235
:100A10006D1EF0D16369029A2100380000F09DFC40
:100A20000028EED1256A012D0ADB3021A068B847E5
:100A3000A0600028E5D0E06A401CE0626D1EF4D1A1
:100A4000A369E2682100380000F087FC0028D8D1B3
:100A5000656A012D0ADB3021A068B847A060002834
:100A6000CFD0E06A401CE0626D1EF4D1E369E0681B
:100A7000A16942182100380000F06FFC0028C0D1A5
:100A8000A56A012D0ADB3021A068B847A0600028C4
:100A9000B7D0E06A401CE0626D1EF4D13820205CC3
:100AA00040070DD5012E0BDB35002021A068B8478B
:100AB000A0600028A5D0E06A401CE0626D1EF4D161
:100AC000002060616063029809A9884201D000F0AB
:100AD00023FD05981BB0F0BDF3B583B0006900900D
:100AE0006846027C6F2A01D1082406E020211143C8
:100AF000782901D00A2400E010243C25039803C87B
:100B000006000F00642A01D0692A07D1002905DAFE
:100B100000200021801BB94106000F00002F10D1DA
:100B2000002E0ED10398006B00280AD1082C3AD170
:100B300003983821405C000735D53B2530200099CB
:100B400030E06D1E0195300039002200E31700F0FF
:100B500027FD3032D2B23A2A03DB6846007C513896
:100B6000121800984255300039002200E31700F0B7
:100B700017FD06000F0001D1002E05D00398C068B4
:100B8000009949198842DCD3082C0CD103983821EC
:100B9000405C000707D50098405D302803D06D1EEB
:100BA0003020009948553C20401B039988610099EA
:100BB0004919039AD1600399096B884209DA081A26
:100BC000039908620398008F0E490140039801873A
:100BD00015E0002913D503993822895C14220A40B4
:100BE000102A0CD10399496B039A5269891A039A06
:100BF000126A891A0D1A012D01DB0398056205B0EE
:100C0000F0BD0000EFFF0000F3B591B006AA03C8E5
:100C100002AB03C312A8007820210143009161298F
:100C20000BD01198006B002801D5062003E004D1F9
:100C3000672902D101201199086311984068410089
:100C4000490DA64B994225D1000310D11198006897
:100C500000280CD103201199886112A8007861380E
:100C60001A283AD31F4878447A3000900BE00320CA
:100C70001199886112A8007861381A2829D31A4876
:100C8000784464300090032200991198C06800F005
:100C900015FCE9E1012919DB914B03409148184308
:100CA000119B586090480D1A0026F6430098612861
:100CB00027D11198C06830210170811C119BD96027
:100CC00012A90978612915D1782114E000260025A0
:100CD000ECE7064878441430D4E7054878441030EF
:100CE000C3E700BFF8320000EC320000E43200003D
:100CF000E83200005821417011984069801C119918
:100D00004861002E03D1002468468680A3E1009844
:100D1000612800D09EE01198046B002C01D521249D
:100D200000E0641C24B2601C00901198C0C802A8A6
:100D300003C80022002300F068FC02D280200006D5
:100D4000474002A8C0C0281F6946888000260E764A
:100D500006A8471C0098012835DB02A803C800221A
:100D600080235B0300F06AFC2DD81C2102A800F050
:100D70007FFC02A803C800F0BBFC05000098C01F60
:100D8000009001280ADB280000F0DCFC02000B00C8
:100D900002A803C800F04DFD02AA03C2F81D0721F6
:100DA00004E0401E2A07120F02702D11012D01DBF5
:100DB000491EF6D5491E02D4401E0670FAE7C71D2B
:100DC00000980128C9DA06A8401C391A06A8421C56
:100DD000A14200DA0C0024B2200032D4884205DAA5
:100DE00006A909184978082900DB0F2606A9091861
:100DF00001E0641E491E401E0B78B342F9D00F2E4D
:100E000004D106A909184B785B1C4B70002806D545
:100E100006AA641C019800B2001D6946888024B2AD
:100E2000601E0ED411180B783033DBB23A2B03DB83
:100E300012AD2D783A3D5B190B70401E491E0028FB
:100E4000F1D51198006B002800D404E1601E1199BF
:100E5000086300E102A803C80022002300F0D5FBCC
:100E600006D202A803C880221206514002AA03C279
:100E70002DB27E4868437E4900F068FD694688804F
:100E80000720019909B2421A00207A49012A20DB81
:100E9000049202AA30CA00260F000498C00707D5A2
:100EA00032003B002000290000F0AAFD04000D00E4
:100EB0000498401004903000390032003B0000F0EC
:100EC0009FFD06000F0004980028E6D102A830C05C
:100ED00029E054420026684F19E000BFFF070000D8
:100EE000FFFF0F800000E03FFE030000E00707D592
:100EF00004A803C832003B0000F082FD06000F008A
:100F0000641004A803C804AA0CCA00F079FD04AA5E
:100F100003C2002CEAD102A803C832003B0000F053
:100F200031FE02AA03C20098662803D1019800B2DC
:100F30000A3000E006201199096B08180490142863
:100F400001DB1320049030206946087606A8441C73
:100F5000049801283BDB02A803C800F0DBFB060075
:100F60000834042530000A2100F0F3FC0F003000A3
:100F70000A2100F0EEFC06003037601E07703000DA
:100F80000A2100F0E6FC0F0030000A2100F0E1FC2D
:100F90000600A41E303727706D1EE3D10834049874
:100FA000083804900128D3DB02A803C800F0B2FB84
:100FB00000F0D2FB02000B0002A803C800F039FCCD
:100FC00000222E4B00F01CFD02AA03C2C3E706A8B4
:100FD000401C201A06A94A1C6B4605E0401E0199D8
:100FE00009B2491E9980521C11783029F6D0009917
:100FF000662903D1019909B2491C04E0652901D190
:10100000012100E00021119B1B6B5C1824B2A0425F
:1010100000DA040024B221001DD4814204DA505CBD
:10102000352801DB392000E03020531800E0641E31
:101030005B1E491E1D788542F9D0392802D1505CCB
:10104000401C5054002906D5521E641C019800B261
:10105000401C69468880019800B2009023B212A813
:101060000178119800F00CF813B0F0BD97750000EE
:10107000A0860100000024400000F03F84D7974183
:10108000F3B587B015001C0000F0F7FD0090406A32
:101090000078694608710798076B012C01DA012472
:1010A000ADA508A80178202008430E9E662801D12E
:1010B000761C17E0672800D09EE00321C9438E42CA
:1010C00000DA9DE0BE4200DB9AE0761C07983821EA
:1010D000405C000702D4BC4200DA270036B2BF1BD6
:1010E00000D50027079880690799C96809180091F9
:1010F00036B2012E2EDA401C3021009A1170012FD9
:1011000004DA07993822895C090705D56946097907
:10111000079AD2681154401C07998861704287422F
:1011200000DA7E4236B2704207994862BF19A74280
:1011300000DA3C0024B20798C46122002900079815
:10114000C068079B9B69C01800F0B8F9381B079965
:101150008862E2E0B44220DA22002900009800F020
:10116000ADF9079989690919079A9161301B079AA6
:101170005062012F04DA07983822805C000709D5F5
:1011800068460079079AD26850540798C069401C95
:101190000799C86107988762BFE03200290000986C
:1011A00000F08CF9079880698019A41B012F04DADC
:1011B00007993822895C090705D569460979079A94
:1011C000D2681154401C0799886124B2A74200DA02
:1011D0003C0024B22200A9190798C068079B9B69AC
:1011E000C01800F06BF907988069001907998861A9
:1011F000381B0799486290E0612914D1702015E0EE
:10120000BC4205DA07993822895C090700D4270017
:101210007F1E00D5002708A80078672801D1652027
:1012200004E0452002E0412902D1502008A90870BD
:1012300007988069411C079A91612978079AD268BA
:101240001154681C0090012F04DA07983821405C83
:10125000000720D507988169481C079A90616A4663
:101260001279079BDB685A54012F14DB641E24B2E9
:10127000A74200DA3C0024B222000099079BDB68F9
:10128000181800F01BF90798806900190799886100
:10129000381B079948620798C068079989694118FF
:1012A00008A800780870300003D42B2048708D1CEB
:1012B00003E02D224A708D1C4642002404AF08E052
:1012C0000A2202A800F0F4FC03983870029E641C05
:1012D0007F1C31B20129F3DA022C08DA08A8007861
:1012E00020210143652902D1302028706D1C002C7B
:1012F00009D1302028706D1C07E0641E04A8005D31
:10130000303028706D1C012CF7DA0798C0680799F7
:1013100089694018281A0799C86107983821405CE4
:1013200014210140102914D107984069079989694F
:1013300040180799496A40180799C96940180799E0
:10134000896A40180799496B884202DA081A079996
:10135000086209B0F0BD00003000F1B50E001400C5
:101360000027002B0FD01D002178B068009A90470D
:10137000B060002806D0F06A401CF062641C6D1E4C
:1013800001D0F1E7FF433800F2BDF8B504000F00CB
:1013900015001E0000F09CFC33002A0039002000DC
:1013A00000F0AAFCF2BDC9B200E0401C02788A42FB
:1013B00002D0002AF9D100207047010000E0491C4A
:1013C0000A78002AFBD1081A7047C9B201E0401C14
:1013D000521E002A03D003788B42F8D170470020B8
:1013E000704780B500F074FC012002BD70B50500A7
:1013F0002C000F340720844300BF00BFA54233D226
:10140000082C04D2082402E0083000F085F82448B3
:10141000026811000CD1011D0A68002A20D013684F
:10142000A34212D2111DF7E71D68A5420DD2191D66
:101430000B68002BF8D11268011D00E0191D0B6824
:1014400093420DD01D68A542F8D300290CD00D6839
:101450002A681300083BA3420AD26A680A600FE0B8
:1014600000F068FC0028CFD100BF00BF002070BD95
:101470002B190B606E685E60121B0B681A602C6083
:101480000968002904D04A68002A01D0091D00E03B
:101490000021016000BF00BF2800083070BD0000BF
:1014A0009C08002070B504000D00160000F010FC30
:1014B00032002900200000F015FC70BD124207D058
:1014C0008B0706D00B78491C0370401C521EF7D8BE
:1014D0007047830706D00B78491C0370401C521ECE
:1014E000F9D1704770B4103A03D378C9103A78C074
:1014F000FBD2530701D318C918C001D508C908C0C9
:10150000D20704D30B880380891C801C002A01D5D4
:101510000B78037070BC7047002800D1704738B555
:10152000083804002068082836D3400734D100BFAB
:1015300000BF1A484168002901D08C4203D2616083
:10154000446019E019004B68002B01D0A342F9D385
:101550000B68CD18AC421DD3A54204D122689A185D
:101560000A600C0008E04A68002A03D02368E318E8
:101570009A420FD362604C60616800290AD02268E9
:10158000A3188B4206D1002303600868101820605E
:101590004868606000BF00BF31BD00009C080020AB
:1015A000124224D0994228D970B500251B4202D09E
:1015B0000C00002109E000240126491864419442EE
:1015C00000D3A41A7641F8D33100012601E0764118
:1015D00009D2001864416D41A41A9D41F7D2A418A4
:1015E0005D41B619F5D3300022002B0070BD1B42BF
:1015F000D8D108B500F0B4FB08BD01D19042D3D2D8
:1016000002000B0000210020704730B40124640563
:101610004D00EC420BD85D00EC4208D80C001C4396
:1016200064000443144304D2994200D1904230BC78
:101630007047FCD08B42FAD18242F8E730B40124E3
:1016400064054D00EC420BD85D00EC4208D80C005C
:101650001C4364000443144304D28B4200D18242F1
:1016600030BC7047FCD09942FAD19042F8E7FEE7CF
:1016700010B4020050684000400D194B984207D149
:101680005068000302D11068002811D0022025E024
:10169000002823D001290DDB1B1A99420AD3506878
:1016A000002802D500200F4901E000200E4903C2A6
:1016B000012013E043428B4209DA53680B4C1C4073
:1016C00008180005204350600020C04306E0506821
:1016D00080210906084050600020106010BC70474F
:1016E000FF0700000000F0FF0000F07FFFFF0F8009
:1016F000F4464A1805D200F00FF801D580174008CB
:10170000604700F009F80121C907884200D90800A4
:10171000404260474A1812D2400DC90208430121D5
:10172000C9070843520D40210901521A521C06D420
:1017300052421F3201D4D0407047C017704700207A
:101740007047FEE7010009D5F446404200F006F874
:101750000122D20711436047010000BF422212015B
:10176000D21E004207D002D4521E0018FCD5C10A76
:1017700040051205891870478B4200D1824205D975
:101780008446100062468C4619006346DF184C18E8
:10179000640D7F0D3AD0661C760537D0E61B352EDA
:1017A00034DCDB022B43DB0A0C0DC9022943C912CE
:1017B000202E0DDB1700203E06D01F00F741F3401E
:1017C0005F400026012A7741C01871410DD217E011
:1017D0001700F741F2405740F3415A40B340F340FD
:1017E0005A400026801859410AD3A21C52050FD036
:1017F000C207012F724117004008CB071843490860
:10180000641C24054208AF4170416141F0BC70473F
:10181000641C21050020F9E76B4010E06B40ABE74A
:10182000F742F3D1E943F1E72442EFD10020002150
:10183000ECE7F0B40125ED070F005F40EED40C009B
:10184000871A9C4105D2C01BA141D219634169404E
:101850006B40AE0ADF184C18F442E1D2640D7F0DE4
:10186000E2D0E61B362ED1DCDB022B43DB0AA4469A
:101870000C0DC9022943C90A012E28DC04D1D60760
:101880005208DF073A435B08EF0A764290419941DC
:1018900014D039423BD1B61940414941761C3942F6
:1018A00004D1761C001849413942FAD0B943674641
:1018B000B74208D9A41B24052143A7E70042EAD177
:1018C0003642E8D1A2E7E40AE10700209EE7202E95
:1018D0000BDD203E1F00F340F7415F40012A00224C
:1018E00057417E42984191410BE01700F741F24089
:1018F0005740F3415A40B340F3405A407E42904132
:1019000099410A0303D2641EB61940414941002798
:10191000641E24054208AE4178416141F0BC704725
:10192000F446002804D4494200F013F840426047CE
:101930004042002905D45FD000F00BF840424942F4
:101940006047494200F005F84942604703460B43AF
:10195000E6D40022030A8B420BD203098B4219D230
:1019600043088B422ED2411A00D201465241104602
:101970007047FF2209023FD012068B4205D3121294
:1019800009028B4201D31212090203098B4219D3B7
:1019900000E0090AC3098B4201D3CB01C01A5241AE
:1019A00083098B4201D38B01C01A524143098B42F8
:1019B00001D34B01C01A524103098B4201D30B01E1
:1019C000C01A5241C3088B4201D3CB00C01A524106
:1019D00083088B4201D38B00C01A524143088B42CB
:1019E00001D34B00C01A5241884200D3401A5241E1
:1019F000CFD201461046704708B500F0B3F908BDD4
:101A0000F0B50E005E400125ED072E40B446AE0A4B
:101A1000DF184C18F44208D2F7420ED2640D01D000
:101A20007F0D12D100206146F0BD05D1F74201D8EB
:101A30007F0D05D10020C143F0BDFBD1640DF9D06D
:101A40000020C143490549088FE0E419C902DB02BF
:101A500029432B43DB0A460DC00231438E4630B486
:101A600087B295B27D432E0CADB2140C7C43A41901
:101A7000260C240425439CB27C43A419190C7943F9
:101A8000270CC919A4B20F043C43090C000C97B2EF
:101A900047432E0CBE193543ADB2170C4743360CE5
:101AA000BF19A6B2BF193E043543240C3E0C3619AB
:101AB0009FB24743BF19BCB23E0C89191F0C474364
:101AC0007F183E043443390C704680B297B24743C6
:101AD0002E0CBE193543ADB2170C4743360CBF1957
:101AE000A6B2BF193E043543240C3E0C36199FB2F2
:101AF0004743BF19BCB23E0C89191F0C47437F18DE
:101B00003E043443390C77463F0C90B278432E0C98
:101B100080190604ADB22E43050CA0B22D18120C8C
:101B20007A435019020C80B2240CA4189AB27A435A
:101B3000121914042043120C89181B0C7B43C9187A
:101B400030BCEF0A394203D1B61940414941641E05
:101B50006F12BF0DE41B0BDBFF19BC4211DA240529
:101B600000274208AE417841614166463143F0BDED
:101B7000641C05D1401C6141CF0201D34908F4E740
:101B800050E75DE7F0B40E005E400125ED072E4002
:101B9000B446AE0ADF184C18F4423BD2F74241D2A9
:101BA000640D43D07F0D38D0E41BC902DB0229430A
:101BB0002B43CF0ADB0A0600B61A9F4104D2641EEB
:101BC000B6197F41B6185F416812800D24180018BD
:101BD000844222DAE80C0021B6197F41B61A9F41EF
:101BE00002D2B6185F413F1C40414941F4D3241C46
:101BF00021DD2405B6197F41B61A9F4105D337432D
:101C0000C60737430026012F7041614166463143C4
:101C1000F0BC7047FCD1F74205D20020C143490512
:101C20004908F3E704D00020C143F1E77F0DFAD063
:101C300000206146ECE72442FAD1401C61410F03C9
:101C4000F6D30020E2E7FEE780B5124800F08BF8FB
:101C500011A1016041608160C160016141618161E8
:101C60000EA242628162C162016341630CA282637F
:101C70000DA2C2630164416401BD10B5054800F0C6
:101C800072F804002068002801D1FFF7DDFF200072
:101C900010BD000050000020000000002E000000D9
:101CA00066616C7365000000747275650000000069
:101CB0007CB504000E00150030002900FFF746FE39
:101CC00000904543701B0190684603C803C473BD70
:101CD00080B5034800F047F8806902BD00000000AD
:101CE000E0000020002804D10EA003C803C2002099
:101CF0007047017001207047002904D10BA003C870
:101D000003C300207047002A02D10120C04370475E
:101D1000002801D00A7802800978481E8041C0431B
:101D2000C00F70470000000000000000000000002D
:101D30000000000007490868002801D00020704713
:101D4000054807229043086004499143091A01603D
:101D5000704700BFA408002057050020500700204E
:101D60007047FEE77047704738B5040014D025006F
:101D700078356868002803D12870200000F060FCE6
:101D800024206860206801680122914301602000DE
:101D900000F0E0F9012801D1012032BD606A00287D
:101DA00002D0200000F0DAFA20684168084A0A40B0
:101DB0004260206881682A2291438160FFE72068A1
:101DC000016801220A430260200000F031FB32BDAD
:101DD000FFB7FFFFFDB582B00D0004465034E06A46
:101DE000202856D1002D0DD0002A0BD080277F014E
:101DF00002988068B84207D102980069002803D190
:101E0000E80701D5012045E0002666632120E06255
:101E100000F04EFC019068468089208068468089E9
:101E2000608002988068B84205D102980069002855
:101E300001D1002708E02F00002505E039788162F4
:101E40007F1C6088401E6080608800280498009095
:101E5000019B32460FD08021029800F045FB0028FC
:101E60000FD102980068002FE8D12988C905C90D53
:101E70008162AD1CE5E74021029800F035FB0028A7
:101E800003D02020E062032004E02020E062002054
:101E900000E0022005B0F0BDF8B504002268D0696A
:101EA00011689368A64F0740250058350026002F7B
:101EB0000AD1870600D58F0600D47FE02969080083
:101EC00001D020008847F1BDDF0702D49D4F0F40AD
:101ED00074D0C70706D5CF0504D501271762EA6A73
:101EE0001743EF62820708D5DA0706D50222276872
:101EF0003A62EA6A04271743EF62420708D5DA0715
:101F000006D5042227683A62EA6A02271743EF627D
:101F1000020709D58A0601D4DA0705D50822236805
:101F20001A62EB6A1A43EA62020509D54A0107D52B
:101F30008022120123681A62EA6A20231343EB62AB
:101F4000EA6A002A30D0800606D5880604D52969B9
:101F5000080001D020008847E86A2168896849069E
:101F600002D42821014024D0200000F013FB206877
:101F70008068400619D5EFF31080012181F31088A5
:101F800021688A6840239A438A6080F31088E86950
:101F900000280AD06C498163E86900F0B2FB002890
:101FA00002D0E869816B8847F1BD200000F0CFFBCB
:101FB000F1BD200000F0CBFBEE62F1BDAF68012F58
:101FC00000D090E0C70600D5CF0600D48BE01020EB
:101FD0001062C04321688968490649D5E9690A68E1
:101FE000526893B2002BE8D02F88BB42E5D26A80BA
:101FF00009680968890634D4EFF31081012282F35D
:10200000108822681368514F1F40176081F31088B1
:10201000EFF31081012282F3108822689368012770
:10202000BB43936081F31088EFF31081012282F3A8
:102030001088226893684027BB43936081F310881F
:102040002021A962AE60EFF31081012282F3108893
:10205000226813681840106081F31088E86900F066
:102060002DFB0220E86028886988411A89B236E091
:1020700029886A88891A6A461180698800295DD092
:1020800069460988002959D0EFF31081012282F3B3
:102090001088226813682E4F1F40176081F3108844
:1020A000EFF31081012282F31088226893680127E0
:1020B000BB43936081F310882021A962AE602E613A
:1020C000EFF31081012282F3108822681368184010
:1020D000106081F310880220E860684601882000C3
:1020E00000F036FBF1BDC70208D55B0206D58020A3
:1020F00040031062200000F02DFBF1BD020607D561
:102100000A0605D56969080018D020008847F1BD86
:10211000400613D5480611D5EFF31080012181F355
:10212000108821680A6840239A430A6080F3108867
:10213000202068626E61200000F00DFBF1BD000000
:102140000F08000020010004FD250008FFFEFFFF2E
:10215000DFFEFFFFF8B5050000242E6830687949DE
:102160000140A86808432969014368690843E9698F
:1021700001433160706874490140E8680843706049
:10218000A86972498E4202D00100286A0843B168EA
:102190006F4A0A401043B0606E48810880221202E4
:1021A0006D4B9E422FD19F4BDB6C9B079B0F04D046
:1021B000022B66D067D3032B5FE001239A4EEF69B1
:1021C000974200D08CE0002B0AD0012B7AD0022B52
:1021D0007BD0042B00D17EE0082B00D17EE0A9E06B
:1021E00000F0FDFD00282CD0696840004A088018E6
:1021F000FFF7AFFB01001039B142F0D206400007F3
:10220000400F304385E0894B9E4224D1854BDB6CE7
:102210000C271F4033D0042F35D0082F31D00C2F7E
:1022200033D01023494FBE42C8D1002B06D0022B19
:102230002DD0042B31D0082B32D07BE000F0CFFD25
:10224000002878D06E6871008919884272D33103F2
:10225000814227D26EE03D4B9E42E2D1714BDF6C52
:10226000C0231B013B400AD05709BB420BD01709C2
:10227000BB4206D0C0273F01BB4206D0D1E70023B6
:10228000D0E70223CEE70423CCE70823CAE7654A58
:102290001268D206D6D50800D4E700F067FDCFE774
:1022A0001000CFE7030E0202700800218018594188
:1022B00032000023FFF774F989494118894A914295
:1022C00038D226E000F09AFD8CE7564A1268D20612
:1022D0008AD5080088E700F049FD83E7100083E70E
:1022E000002B08D0012B17D0022B18D0042B1CD0A8
:1022F000082B1DD01EE000F072FD00281BD069687D
:102300004A088018FFF725FB01001039B14211D2AD
:1023100080B22968C8600EE000F070FDEDE7414A28
:102320001268D206EBD50800E9E700F01FFDE4E7EC
:102330001000E4E701240020A866E8662000F2BD52
:1023400000000000F369FFEFFFCFFFFF00480040EF
:10235000FFF4FFFF0024F400003801402421415C19
:10236000C90706D501684A68814B1340826A1A433F
:102370004A602421415C890706D501684A687D4B83
:102380001340C26A1A434A602421415C490706D5BA
:1023900001684A68784B1340026B1A434A60242153
:1023A000415C090706D501684A68744B1340426BCB
:1023B0001A434A602421415CC90606D501688A682F
:1023C0006F4B1340826B1A438A602421415C89065B
:1023D00006D501688A686B4B1340C26B1A438A604A
:1023E0002421415C490611D501684A68664B1340B7
:1023F000026C1A434A60026C80235B039A4205D147
:102400004A68624B1340426C1A434A602421415C83
:10241000090606D501684A685D4B1340806C184375
:102420004860704700100240F0FF00000044004088
:10243000F0B583B00600370078370024FC6000F068
:1024400037F90190202530680068000717D56948E2
:102450000090019B00222904300000F045F800287C
:102460000DD0EFF31080012181F3108831680A68E4
:1024700080239A430A6080F310887D6026E03068EC
:102480000068400725D55B480090019B0022690445
:10249000300000F029F800281BD0EFF31080012154
:1024A00081F3108831680A68534B13400B6080F346
:1024B0001088EFF31080012181F3108831688A6859
:1024C00001239A438A6080F31088BD603C7003202A
:1024D000FEBD7D60BD60346674663C700020FEBD4C
:1024E00000FDFFFF00FD0F00FEB5040080273F0147
:1024F000082500262068C0690099014000988142A3
:1025000001D1012000E000206946097988422CD1E0
:1025100008980021C9438842ECD000F0C9F802991C
:10252000401A089981421ED300291CD020680168F6
:102530004907DFD5C169294009D00562200000F0B4
:1025400029F820007830C56006700120FEBDC16901
:102550003940CFD00762200000F01CF8200078300E
:102560002021C16006700320FEBD0020FEBD0000DA
:10257000FFFFFDFFFFFFFEFFFFFFFBFFFF7FFFFFF2
:10258000FFEFFFFFFFDFFFFFFFFFEFFFFFFF9FFFFB
:10259000FFFFF7FF10B5EFF31081012282F31088DF
:1025A00002681368144C1C40146081F31088EFF328
:1025B0001081012282F31088026893680124A343EA
:1025C000936081F31088016E01290BD1EFF3108124
:1025D000012282F31088026813681024A343136059
:1025E00081F31088202180228150002101668166BC
:1025F00010BD0000FFFFFF01DFFEFFFF80B5806A16
:102600000100523100220A810A8000F0A0F801BDC9
:1026100080B5244824490160E1214902416000213C
:102620008160C16001610C2242618161C16101620E
:102630004162FFF799FB002801D000F0D5FC01BDF5
:1026400010B586B0040001A8142100F00BFD20682D
:102650001549884224D11548C168802292020A4354
:10266000C260012102680A430260006801400091D3
:1026700000980C200190022002900020039003207B
:1026800004900420059001A9A020C00500F0ECFCF6
:10269000002200211C2000F0F3FD1C2000F0F4FDBE
:1026A00006B010BD50070020004400402C1002402E
:1026B00001484068704700BF0000002030B50100AD
:1026C000243100224B78022B04D0042088610A7048
:1026D000012030BD03681C680E25AC431C600068F7
:1026E00003680124A343036001202023CB5C1C2446
:1026F0001C400123A340CC69636048700A7000202D
:1027000030BDF8B5002300240100243101224D78AA
:10271000022D03D004208861012416E005682E688C
:102720000E27BE432E6005682E6896432E60202536
:102730004D5D1C262E400125B540CE6975604A705E
:102740000B7049690A0000D088472000F2BD70472D
:102750007047FEE770477047FEB5040057D0B54D8F
:10276000E8680C2101400091E86880214902084096
:1027700001900127206838400DD00098082804D027
:102780000C2869D10198884266D12868800302D557
:10279000606800283BD0207880072BD5E0680921AD
:1027A000C943009A042A05D00C2A01D1019A002AB3
:1027B00000D08BE02A68520701D5002827D06B682B
:1027C000AF4A1A4023691B0213436B602A68114009
:1027D0000843286000F0CAFAAA49EA681206120FF4
:1027E000895CC840A8490860A848006800F072FDEC
:1027F000010030D12078C00600D4B0E00098002855
:1028000000D08CE02868800503D5E069002800D15D
:10281000D2E16868B9490140606A08436860686845
:102820000002000A216A090601436960606A400BE0
:10283000401C01218140C8039249EA681206120F28
:10284000895CC840904908609048006800F042FDEB
:10285000010000D183E0FEBD6068884201D1286894
:1028600009E0A021C9028842286806D1B9040143C1
:1028700029602868390401430AE0A1490140296020
:102880002868390408400290029828689D49014050
:102890002960606800280CD0FFF70AFF060028684E
:1028A000800300D577E7FFF703FF801B6528F6D389
:1028B0006BE1FFF7FDFE06002868800300D46AE79D
:1028C000FFF7F6FE801B6528F6D35EE1002817D0DF
:1028D0002A68114008432860FFF7EAFE06002868CE
:1028E000400705D4FFF7E4FE801B0328F7D34CE133
:1028F000686863490140206900020843686079E71D
:102900002868B8432860FFF7D3FE06002868400710
:10291000F5D5FFF7CDFE801B0328F7D335E1E0693D
:102920000028286830D0A90D01432960FFF7C0FEB8
:1029300006002868800505D4FFF7BAFE801B03282F
:10294000F7D322E168686D490140606A0843686016
:1029500068680002000A216A09060143696020785C
:1029600000072ED560690028286D1CD038432865E3
:10297000FFF79EFE0600286D800722D4FFF798FE21
:10298000801B0328F7D300E18D4901402960FFF740
:102990008FFE060028688005E1D5FFF789FE801BC1
:1029A0000328F7D3F1E0B8432865FFF781FE06005E
:1029B000286D800705D5FFF77BFE801B0328F7D322
:1029C000E3E0207840076AD5002001903807A96B22
:1029D000014003D1A96B0843A863019779480068B7
:1029E000C00512D477480068A90D014375480160FD
:1029F000FFF75EFE060073480068C00505D4FFF7C8
:102A000057FE801B6528F6D3BFE0A168A80D814260
:102A10000AD06D4800290FD0A022D20091420BD1DC
:102A2000286D290D01432965286DA90D01432965EC
:102A300009E000BF00100240296D614A0A402A6582
:102A4000296D08402865A06800280CD0FFF730FEEB
:102A50000600286D80051BD4FFF72AFE801B5B490A
:102A60008842F6D391E0FFF723FE0600286D80052B
:102A70000ED5FFF71DFE801B54498842F6D384E033
:102A8000FFE0FFFF2C4000080C00002008000020A1
:102A90000198002803D0A86B4D490140A963207814
:102AA000800631D5AD48A1690029A96814D0394301
:102AB000A960696B0F436F630168420C0A430260AF
:102AC000FFF7F6FD0600A86880071DD4FFF7F0FDAC
:102AD000801B0328F7D358E0B943A9600168A04AD6
:102AE0000A400260FFF7E4FD0600A86880070BD5E6
:102AF000FFF7DEFD801B0328F7D346E0FF1FFFFF33
:102B0000FFFFFEFFFFFFFBFFA06A002856D00099E1
:102B10000C293CD08027BF0492490228286827D17D
:102B200001402960FFF7C4FD06002868384005D041
:102B3000FFF7BEFD801B0328F7D326E0E8688A492B
:102B40000140E06A0843216B0143606B0843E86081
:102B50002868790801432960FFF7AAFD0600286864
:102B600038402BD1FFF7A4FD801B0328F7D30CE0DE
:102B700001402960FFF79CFD0600286838401DD001
:102B8000FFF796FD801B0328F7D30320FEBD012825
:102B900012D0E868802149020140E26A91420BD1DB
:102BA000F02189030140226B914205D1C021090423
:102BB0000140606B814201D00120FEBD0020FEBDBE
:102BC000FFFEFFFF00700040FFFBFFFF89130000C6
:102BD000FFFFFFEFF2B5040055D0854F8548006830
:102BE000C107C90F0098814217D2824800680121AD
:102BF0008843009901437F480160FFF759FD0500B4
:102C00007C480068C107C90F0098814205D0FFF7D2
:102C10004FFD401BB842F3D378E0774E2078800711
:102C200005D5F068F0218843A1680143F160207860
:102C3000C0074DD56068022818D13168890322D5B4
:102C4000F168032291430843F060FFF731FD05006E
:102C50006068022819D1F0680C210140082937D09A
:102C6000FFF726FD401BB842F5D34FE0032802D101
:102C70003168890103E00128316802D14907DFD4B6
:102C800001E08905DCD40120F2BD03280AD1F068F7
:102C90000C2101400C291BD0FFF70AFD401BB84254
:102CA000F5D333E001280FD1F0680C21014004294D
:102CB0000ED0FFF7FDFC401BB842F5D326E0FFF72E
:102CC000F7FC401BB84221D2F0680C210140F6D13C
:102CD000009848490968CA07D20F904218D245485F
:102CE0000068012188430099014342480160FFF7D1
:102CF000DFFC05003F480068C107C90F009881420A
:102D000006D0FFF7D5FC401BB842F3D30320F2BD39
:102D10002078400705D5F0683D490140E068084348
:102D2000F0602078000706D5F0683A490140206934
:102D3000C0000843F06000F019F83749F268120645
:102D4000120F895CC840354908603548006800F0BA
:102D5000C1FA010000D10020F2BD000020000140B6
:102D6000FFDFFFFFFFFFFFFEFFFF02FF50B5224A1C
:102D7000D16810230C200840042804D0082809D06A
:102D80000C2809D023E01068034001D0264850BD2C
:102D9000264850BD264850BD26488C02240F005DB1
:102DA00009028C0F641C0021D668F60301D5204A65
:102DB00003E01268134002D01B4A002300E01B4AC4
:102DC00000F0AAFA22000023FEF7EAFB50BD50688B
:102DD00001210004400F401C8140C80350BD0F4832
:102DE000006815490F4A126852050DE00000000006
:102DF00089130000002002400010024007480068CC
:102E00000D49084A12689204520F895CC840704705
:102E1000FFF8FFFFFFC7FFFF2C4000080C00002059
:102E2000080000200C10024000093D000024F400BE
:102E300000127A003C400008D440000801B55F4B06
:102E4000012269466548FEF7C5FF009802BD0000F3
:102E5000F8B5002700F07AFA00F05CF800F08AFA82
:102E6000FFF7D6FB00F0E4FA60A000F055FB00BFCE
:102E700063A000F051FB524E43E0380041D00021E6
:102E8000504800F05BFB4F4800F09CFC7078002835
:102E900021D000240025A80030184068FEF75CFC13
:102EA00049A20CCAFEF7ACFD0022494BFEF76AFEB0
:102EB00000F0ECFD210000F01AFE04006D1C052D51
:102EC000E9D1444900F09EFE00F0F2FE02000B0042
:102ED00051A000F021FB0020707001222021A020D1
:102EE000C00500F09FF99620400000F0FBFE002294
:102EF0002021A020C00500F095F99620400000F0A8
:102F0000F1FE80218901364800F086F90028B4D10D
:102F10000127B4E710B59CB005A8382100F0A2F84D
:102F20006846142100F09EF813A8242100F09AF8B6
:102F3000294801682B4A0A40C10C11430160102046
:102F4000059001200C9000240D94A02000020E900A
:102F50000F9405A8FFF700FC002801D072B6FEE729
:102F60000F20009001940294039404940021684679
:102F7000FFF730FE002801D072B6FEE70220139062
:102F8000179413A800F0C2FE002801D072B6FEE725
:102F90001CB010BD38B50A4C2578691C217000F0B2
:102FA0004FFCA900611848602078052803D1002053
:102FB00020700120607031BD00000000FFFF0000A4
:102FC00084080020D80700206666666666660A40A8
:102FD00000FEAF400000A0400070004050070020FD
:102FE00000080050FFE7FFFF72B6FEE7526561641C
:102FF0007920746F20646574656374210A00000091
:10300000707265737320627574746F6E20746F20B4
:1030100073746172740A0000546865206176657289
:1030200061676520766F6C746167653A202566205C
:10303000560A0000130030B414001500103902D3F2
:1030400010393CC0FCD2490700D30CC000D504C0E5
:10305000890002D30280801C002900D5027030BC98
:10306000704700000022E5E7F0B585B00024032397
:1030700031E006256F46FF78BD403543039E35603D
:103080006B4DAE68019FFD432E404F68FF0202D595
:103090003700019E3E43664FBE60FE682E404F687B
:1030A000BF0202D53700019E3E43614FFE607E683D
:1030B0002E404F68BF0302D53700019E3E435C4F50
:1030C0007E603E6835404E68F60302D52E00019DB5
:1030D00035433D60641C0E683500E54000D199E041
:1030E0000125A5402E400196019E002EF2D06600DB
:1030F0006F463E706E4637780326BE40F743029710
:103100004E6803273740012F02D01E40022E12D1F5
:103110008768029E3E40B446CF686E463678B74018
:103120006646374387604668AE434D68EF06FF0F3B
:10313000A74037434760A5006E46B5704D681D40F7
:10314000032D27D0C668029D35408E686F463F78B4
:10315000BE402E43C6604D681D40022D1AD1E508C1
:10316000AD0045192E6A04966E46B7781C263E407F
:103170006F467E70049FBC466E4677780F26BE4031
:103180006746B743BC460F696E467678B7406646D9
:1031900037432F620668029D35404E681E406F46D9
:1031A0003F78BE402E4306604D681E042E4091D0ED
:1031B000204D2D6801262E431E4D2E601E4DA60863
:1031C000B600AD1903952E686D46AF780C253D40CD
:1031D0006F46FD706D46EF780F25BD40AE43A025CC
:1031E000ED05A84201D1002544E7144DA84201D1C4
:1031F00001253FE7124DA84201D102253AE7114DC2
:10320000A84201D1032535E70F4DA84200D030E791
:1032100005252FE705B0F0BD0069084000D001206A
:10322000C0B27047002A01D0816170478162704747
:103230000004014034100240080001400004005026
:1032400000080050000C0050001C005010B5C200D7
:1032500018231340FF249C40E2438907090E99403C
:10326000002801D4174B03E0174B0007000F083864
:1032700080088000181803681A401143016010BDCF
:1032800080B5FFF7E3FF01BD002805D40121C0068A
:10329000C00E81400D480160704710B5401E80216E
:1032A0004904884201D3012010BD094C606003210C
:1032B0000020C043FFF7CAFF0020A0600721216063
:1032C00010BD000000E400E01CED00E000E100E0C3
:1032D00010E000E038B504000D4DFA208000297898
:1032E000FEF737FB01000B480068FEF732FBFFF7E3
:1032F000D4FF00280AD1042C08D20022210000208B
:10330000C043FFF7BDFFAC60002032BD012032BDDD
:10331000000000200C00002030B4434351435D18EE
:10332000010C0C00130C5C432D1980B2434392B284
:1033300051430024C918644124040B04090C0919E1
:103340005043C018694130BC7047FEE710B50024F7
:103350000748016840220A4302600020FFF7BAFFD5
:10336000002801D0012401E000F0BCFD200010BDC8
:1033700000200240F0B587B001A81421FFF772FECB
:103380000421294802680A43026002681140009142
:103390000099802102680A4302600268114000918E
:1033A00000990124016821430160006820400090D9
:1033B00000981E4E012204213000FFF733FFA027A2
:1033C000FF05002220213800FFF72CFF00226102B8
:1033D0003000FFF727FF60030190842080030290F4
:1033E0000025039501A93000FFF73EFE81208000F3
:1033F000019002940395049501A93000FFF734FE73
:103400002020019002940395049501A93800FFF74C
:103410002BFE200201900295039501A93000FFF7D1
:1034200023FE07B0F0BD00002C1002400008005041
:1034300030B583B036A003C86A4603C22F4C30486B
:1034400020602000243000218161C02212066260C9
:10345000A160416101222261E160202561552125A1
:1034600061554160FF23C23303600172042363612D
:10347000C160A1610261E161200000F0BBF8002899
:1034800001D0FFF7B1FD1F4800908020400101905E
:103490006946200000F03AFA002801D0FFF7A4FDA9
:1034A00037BD10B586B0040001A81421FFF7DAFD7E
:1034B0002068134988421ED113488168420D0A438F
:1034C0008260042102680A430260006801400091A2
:1034D000009810200190032002900020039001A981
:1034E0000A48FFF7C1FD002200210C20FFF7C8FEAB
:1034F0000C20FFF7C9FE06B010BD0000D807002061
:1035000000240140004000382C1002400008005008
:1035100000000000000000000EB400B582B003A956
:1035200000916B4602000121034878440A30FCF701
:10353000C7FD029906B00847590B0000F1B582B0EB
:1035400000240027054650352878012801D10220A3
:10355000FEBD01262E7002980068032182680A4091
:10356000012A02D10268D20739D46B68204A1A4076
:10357000022313436B60C26811400191C1680322AA
:103580009143C160029800688168802212060A4354
:103590008260FFF78DF8009002980068816800292A
:1035A00013D5FFF785F80099401A0B28F4D3029839
:1035B000006880680028EFD56868022188431021E0
:1035C000014369602C700120FEBDC168019A0A4365
:1035D000C26068680221884306436E6004E0686840
:1035E00020210143696001272C703800FEBD0000D6
:1035F000FFFEFFFFF8B5040016D025005035002669
:103600006868002804D1AE602E702000FFF749FFE3
:1036100010206968014003D121688A68520705D5E6
:103620006968084368602E700120F2BD68685E4AD0
:1036300002400220104368605C488A689207920F3B
:10364000012A02D10A68D2072AD46268584BC027DF
:103650003F06BA4206D05F1CBA4203D080273F061D
:10366000BA4208D10A6913400B6121680A6963688C
:1036700013430B610AE00A6913400B6101684D4A6C
:103680000A400260016862680A4302602168CA68F1
:1036900018239A43CA602168CA68A3681343CB60A1
:1036A0000168454A0A4002602100243102680B6922
:1036B0005B06134303602068802252058368134031
:1036C00002D183681A4382602068C2683B4B134072
:1036D000C3602069022801D1042000E00020226894
:1036E000D368E76838432027E75D7F030743087AFC
:1036F00040003843CF680743A06980033843E76937
:10370000FF0307431F43D7600868FF22C23290427D
:1037100005D02268D3684F6807431F43D760012252
:103720002120205C012810D12020205C002805D118
:103730002068C36817041F43C76006E06868202339
:1037400003436B60A8681043A8608869012820685B
:10375000036911D11A4F1F40076123681869844615
:10376000CF69086A38434F6A0743604607431F61C1
:1037700020680369134303E0134002D003699343B5
:103780000361206843690727BB434361206843699D
:10379000496919434161AE60686802218843024368
:1037A0006A600020F2BD0000FFFEFFFF0827014015
:1037B000FFFFFF3FFFFFC3FFFFFFFFFD1902FEFFFB
:1037C00003FCFFFFF8B50400002500200426216853
:1037D000896831402BD1270050373978012926D00C
:1037E00001213970E169012904D0200000F0F8F8C6
:1037F00001001DD17968114A0A40B1011143796075
:10380000BD603D701C21226811606269082A09D1DF
:1038100021684A68B2434A6021684A681823134302
:103820004B6003E0226853681943516001E00220B5
:10383000F2BD21688A6816438E60F2BDFEF1FFFF7B
:103840000068006C7047F8B5040020680568466899
:103850001027690701D5710703D4290732D531072D
:1038600030D5616D394003D1616D7A010A436265DB
:10387000C168C02212010A401BD12021615C0029CD
:1038800017D1290715D5816849070AD441680C2248
:1038900091434160606D67490140012008436065C4
:1038A00007E0606D202101436165A06D01210143A6
:1038B000A1652000FFF76EFBA069012802D00C2053
:1038C0002168086028060BD5300609D5606D3903DC
:1038D00001436165200000F013FB8020216808602F
:1038E000E80612D5F00610D52068216B002902D019
:1038F000C168C90707D5A16D02220A43A265076006
:10390000200000F0FEFA20680760F1BDF2B582B039
:1039100004005020205C012801D10220FEBD0120BE
:10392000502160542068816849070CD52000503030
:103930004068202101432000503041600020502188
:1039400060540120FEBD029909684903490B0091AA
:1039500080277F027D003C4E6900029A52683B4BF3
:103960009A42826A009B1DD01343836202980068CA
:10397000014006D03068A901014331600A2000F0FF
:1039800067F802980068054003D03068B901014328
:1039900031600298006807401ED0306880214904D9
:1039A000014318E09A43826202980068014003D004
:1039B000306830490140316002980068054003D00A
:1039C00030682D490140316002980068074003D0FB
:1039D00030682A4901403160002050216054FEBD0A
:1039E000F8B50400206881688907890F012902D190
:1039F0000168C9071CD4102501268168204A0A40A5
:103A000015D1816831438160012000F021F8FEF773
:103A10004FFE070020680068304009D1FEF748FEDD
:103A2000C01B0B28F6D3206800683040F2D103E0B9
:103A30000020F2BDFFFEFFFF606D05436565A06DD0
:103A40000643A6650120F2BD0827014001100000D1
:103A500018B504000B4800680B49FDF77AFF010018
:103A60002000484301E00098401E00900098002884
:103A7000F9D111BDFFFF7FFFFFFFBFFFFFFFFFFE7B
:103A8000170000800C00002040420F000122520568
:103A90004B18DA4201D9581570475B0D0722D20145
:103AA0009B1A10D9FF2B1DD2DB050122D2070A4039
:103AB00013430903020D1143490AC200524100D9C0
:103AC000491CC81870470AD1800A0A0302435212DF
:103AD000921C04D9D3070B40D00518437047C80F78
:103AE000C0077047C80F0002FF30C00570470122B1
:103AF000D20703004B402ED4431A01D2C01AC91872
:103B000030B44B180418240E1B0E22D0FF2C20D0EA
:103B1000E31A182B1DDC09021143C40D641E0002B8
:103B2000104394461925ED1A0A00AA40D9404518B9
:103B300001D36D08A41CE405D209280A2D062A43E6
:103B40006546AA41604103181B0EFF2B01D3C00D2F
:103B5000C00530BC7047514001E05140CCE7431AEA
:103B600003D2C01AC9185040514030B44B18090252
:103B700011430418240E1B0E40D0FF2C3AD0250010
:103B80009D410BD31ED8C50D4002401A0BD3ED0545
:103B90000100400AC90591416841DAE7C50D4002BC
:103BA0004918401AD5D001214008491C0018FCD5FD
:103BB0008C4204D36D1A000AED054019C9E7E805E7
:103BC0001040C6E7182DC4DCAC1C0D00E140E541F7
:103BD0004D40012D4941C40D00021043451A01D446
:103BE0006D199543641EE405280A2D069541604130
:103BF00030BC7047FF2BACD1D843AAE72442A8D1F0
:103C00000020A6E730B405004D400122D207154040
:103C10004B180418240E28D01B0E2FD0FF2C34D0A4
:103C2000FF2B37D0E41A0002090210431143430866
:103C30004808D10D1B1A02D2641EDB181B18DB18B2
:103C4000834200D31B1A4941F9D37F3426DDFE2C71
:103C500008DAE4054808C90719439141604128433F
:103C600030BC7047FF20C005F9E728001B0E03D0C9
:103C7000FF2BF5D14902F3D0D043F1E7FF2C01D15E
:103C80004002F9D1FF20C005E9E74002F4D1FF2B43
:103C9000F8D1F1E728004902E2D0EDE70B0200205D
:103CA0002442DCD15B129B1CD9D9D805D7E7FEE7AB
:103CB000012212060118CA420AD28A420DD83822BD
:103CC000120609098918C20FD2071143400770472D
:103CD00000D049080909014301E0C10FC9070020CC
:103CE0007047FEE738B50500FEF7E2FC040000204F
:103CF000C043854202D0044800782D18FEF7D8FC56
:103D0000001BA842FAD331BD00000020F0B583B0FB
:103D1000040000200190684D2068822109010140C3
:103D200000D190E080204005A96B014004D1A96B2F
:103D30000843A86301200190604E3068C00510D48C
:103D40003068A90D01433160FEF7B2FC0090306885
:103D5000C00506D4FEF7ACFC0099401A6528F6D3DE
:103D600042E0C027BF032968394060683E093A0035
:103D70000240914203D1A2683A40914208D03100FA
:103D80000140B14204D12968890301D50120FEBD5B
:103D9000296D31402AD03040814202D020788006FF
:103DA00006D4A0683040814220D02068000530D57C
:103DB000286D43490140286D8022120302432A6581
:103DC000286D404A02402A652965C8050ED5FEF7D0
:103DD0006FFC0090286D800508D4FEF769FC0099FF
:103DE000401A39498842F5D30320FEBD20680005FA
:103DF0000FD5A06831000140B14205D12968334A8E
:103E00000A40384010432860286DA16831400143C2
:103E10002965207880060FD5606831000140B142E5
:103E200005D12968294A0A40074017432F60286DA9
:103E300061680E4006432E650198002803D0A86BE8
:103E400023490140A9632078C00705D5E86C032108
:103E50008843E1680143E9642078800705D5E86C70
:103E60000C21884321690143E9642078400705D586
:103E7000E86C1849014060690843E864207800074D
:103E800005D5E86C14490140A0690843E86420782E
:103E9000400605D5E86C11490140206A0843E864F2
:103EA0002078000605D5E86C0D490140E06908431B
:103EB000E8640020FEBD00000010024000700040D9
:103EC000FFFFFCFFFFFFF7FF89130000FFFFCFFF9D
:103ED000FFFFFFEFFFF3FFFFFFCFFFFFFFFFFFFB42
:103EE000FFFFF3FF0548016801220A4302604168B1
:103EF000802252050A434260704700BF34100240DE
:103F00007047704770B40121002213E00468001D5F
:103F10000C4202D04D466D1E64192260241D1B1FE9
:103F2000042BFAD225009E0701D52280AD1C0B4040
:103F300000D02A700368001D002BE7D170BC7047C9
:103F400030B501684118446862088A188368E4073C
:103F500001D54C461B19914201D10C3030BD0C7873
:103F600064B2491C0D78491C1D705B1C002C02D5E5
:103F7000641CF9D1EFE7641EF4D5ECE7FEE7FEE739
:103F80007047704780B500F00FF801BD80B5044858
:103F9000FFF759FC01BD80B50248FDF77DFF01BD6B
:103FA000D80700205007002002484168027889188D
:103FB0004160704700000020000000000000000089
:103FC000686A6C747A4C0000000000000000000079
:103FD0006E616E004E414E00696E6600494E4600AD
:103FE00010B5074979441831064C7C44163404E076
:103FF000081D0A68891888470100A142F8D110BD40
:104000000800000024000000FDFEFFFF5801000032
:10401000500700200000000029FFFFFFDC00000027
:104020006E0000000000002070470000000000004B
:104030000000000001020304060708090304060843
:104040000C1018203000000000F00BF8002801D000
:10405000FFF7C6FF002000BF00BFFEF7F9FE00F02B
:1040600002F80120704780B500F002F801BDFEE7BC
:104070000746384600F002F8FBE7FEE780B500BFD0
:1040800000BF024A11001820ABBEFBE72600020069
:1040900038B505000C00200000F006F8A04200D062
:1040A0000025280032BDFEE780B50249FEF7C6FEB6
:1040B00002BD00BF100000200148804701480047B2
:1040C00029400008C940000800BF00BF00BF00BF72
:1040D000FFF7BAFF0000000001020304FEE7FEE75D
:1040E000FEE7FEE7FEE7FEE7FEE7FEE7FEE7FEE7A8
:1040F000FEE7FEE7FEE7FEE70001F9000004FB0033
:10410000212000020401013408002084080020342A
:1041100008002034080020340800204D000020341E
:0F412000000020C400F8FFDC00FAFF8100D1008E
:04000005080040C9E6
:00000001FF
